{
	"data": {
		"bytecode": {
			"linkReferences": {},
			"object": "608060405234801561001057600080fd5b5061093b806100206000396000f3fe608060405234801561001057600080fd5b506004361061009e5760003560e01c80635134d99c116100665780635134d99c146101355780636a66bf831461014857806395082d251461015b578063d07ac67e1461015b578063e66a7fda146101635761009e565b80630ff24ec1146100a3578063106e1a39146100cc578063202ea199146100ed57806320e6da171461010f5780632223f14914610122575b600080fd5b6100b66100b13660046106f0565b610176565b6040516100c391906108b1565b60405180910390f35b6100df6100da36600461071b565b6101b7565b6040516100c39291906108ba565b6101006100fb36600461067e565b610263565b6040516100c3939291906108c8565b6100b661011d3660046106cf565b610325565b61010061013036600461067e565b610347565b6100b6610143366004610637565b61039c565b61010061015636600461067e565b610435565b6100b66104d1565b6100b66101713660046106cf565b6104d8565b60008061019c620f4240610190878763ffffffff6104f116565b9063ffffffff61052b16565b90506101ae818463ffffffff61056d16565b95945050505050565b600080806101d2620f42406101908a8a63ffffffff6104f116565b905060006101ed8661019089620f424063ffffffff6104f116565b90506000610227620f424061019061020b8a8663ffffffff6104f116565b61021b8a8c63ffffffff6104f116565b9063ffffffff61056d16565b9050600081841161023957508261023c565b50805b6102538a61019083620f424063ffffffff6104f116565b9b909a5098505050505050505050565b600080600080610284856000015186604001516104f190919063ffffffff16565b9050600061029b82620f424063ffffffff61052b16565b905060006102d9620f42406101906102c38a60800151620f424061056d90919063ffffffff16565b60808b015161019090889063ffffffff6104f116565b905060006102fb8860200151610190620f4240856104f190919063ffffffff16565b905061030d838363ffffffff6105af16565b818960400151965096509650505050505b9193909250565b600061033e8361019084620f424063ffffffff6104f116565b90505b92915050565b60008060008060008061035987610435565b925092509250600080600061036d8a610263565b9250925092508286111561038b579197509550935061031e92505050565b50939650919450925061031e915050565b80516000906103c65760405162461bcd60e51b81526004016103bd9061082f565b60405180910390fd5b60006103ea620f4240610190856020015186606001516104f190919063ffffffff16565b835190915081111561040e5760405162461bcd60e51b81526004016103bd906107a8565b604083015160009061042d9061019084620f424063ffffffff6104f116565b949350505050565b600080600080610456856020015186606001516104f190919063ffffffff16565b9050600061046d82620f424063ffffffff61052b16565b9050600061048c8261021b89608001518661052b90919063ffffffff16565b87519091506000906104ab9061019084620f424063ffffffff6104f116565b90506104bd838363ffffffff6105af16565b606098909801519798909650945050505050565b620f424081565b600061033e620f4240610190848663ffffffff6104f116565b60008261050057506000610341565b8282028284828161050d57fe5b041461033e5760405162461bcd60e51b81526004016103bd90610870565b600061033e83836040518060400160405280601a81526020017f536166654d6174683a206469766973696f6e206279207a65726f0000000000008152506105d4565b600061033e83836040518060400160405280601e81526020017f536166654d6174683a207375627472616374696f6e206f766572666c6f77000081525061060b565b60008282018381101561033e5760405162461bcd60e51b81526004016103bd906107f8565b600081836105f55760405162461bcd60e51b81526004016103bd9190610755565b50600083858161060157fe5b0495945050505050565b6000818484111561062f5760405162461bcd60e51b81526004016103bd9190610755565b505050900390565b600060808284031215610648578081fd5b61065260806108de565b823581526020830135602082015260408301356040820152606083013560608201528091505092915050565b600060a0828403121561068f578081fd5b61069960a06108de565b82358152602083013560208201526040830135604082015260608301356060820152608083013560808201528091505092915050565b600080604083850312156106e1578081fd5b50508035926020909101359150565b600080600060608486031215610704578081fd5b505081359360208301359350604090920135919050565b600080600080600060a08688031215610732578081fd5b505083359560208501359550604085013594606081013594506080013592509050565b6000602080835283518082850152825b8181101561078157858101830151858201604001528201610765565b818111156107925783604083870101525b50601f01601f1916929092016040019392505050565b60208082526030908201527f596f752061726520747279696e6720746f20627579206261636b206d6f72652060408201526f7468616e20746865206578636573732160801b606082015260800190565b6020808252601b908201527f536166654d6174683a206164646974696f6e206f766572666c6f770000000000604082015260600190565b60208082526021908201527f4e6f2065786365737320636f6c6c61746572616c20746f20627579206261636b6040820152602160f81b606082015260800190565b60208082526021908201527f536166654d6174683a206d756c7469706c69636174696f6e206f766572666c6f6040820152607760f81b606082015260800190565b90815260200190565b918252602082015260400190565b9283526020830191909152604082015260600190565b60405181810167ffffffffffffffff811182821017156108fd57600080fd5b60405291905056fea2646970667358221220cf2f06e56306aac8f011ba715f386f2f1b1a2392e66cf01558d2beee50ff31f464736f6c634300060b0033",
			"opcodes": "PUSH1 0x80 PUSH1 0x40 MSTORE CALLVALUE DUP1 ISZERO PUSH2 0x10 JUMPI PUSH1 0x0 DUP1 REVERT JUMPDEST POP PUSH2 0x93B DUP1 PUSH2 0x20 PUSH1 0x0 CODECOPY PUSH1 0x0 RETURN INVALID PUSH1 0x80 PUSH1 0x40 MSTORE CALLVALUE DUP1 ISZERO PUSH2 0x10 JUMPI PUSH1 0x0 DUP1 REVERT JUMPDEST POP PUSH1 0x4 CALLDATASIZE LT PUSH2 0x9E JUMPI PUSH1 0x0 CALLDATALOAD PUSH1 0xE0 SHR DUP1 PUSH4 0x5134D99C GT PUSH2 0x66 JUMPI DUP1 PUSH4 0x5134D99C EQ PUSH2 0x135 JUMPI DUP1 PUSH4 0x6A66BF83 EQ PUSH2 0x148 JUMPI DUP1 PUSH4 0x95082D25 EQ PUSH2 0x15B JUMPI DUP1 PUSH4 0xD07AC67E EQ PUSH2 0x15B JUMPI DUP1 PUSH4 0xE66A7FDA EQ PUSH2 0x163 JUMPI PUSH2 0x9E JUMP JUMPDEST DUP1 PUSH4 0xFF24EC1 EQ PUSH2 0xA3 JUMPI DUP1 PUSH4 0x106E1A39 EQ PUSH2 0xCC JUMPI DUP1 PUSH4 0x202EA199 EQ PUSH2 0xED JUMPI DUP1 PUSH4 0x20E6DA17 EQ PUSH2 0x10F JUMPI DUP1 PUSH4 0x2223F149 EQ PUSH2 0x122 JUMPI JUMPDEST PUSH1 0x0 DUP1 REVERT JUMPDEST PUSH2 0xB6 PUSH2 0xB1 CALLDATASIZE PUSH1 0x4 PUSH2 0x6F0 JUMP JUMPDEST PUSH2 0x176 JUMP JUMPDEST PUSH1 0x40 MLOAD PUSH2 0xC3 SWAP2 SWAP1 PUSH2 0x8B1 JUMP JUMPDEST PUSH1 0x40 MLOAD DUP1 SWAP2 SUB SWAP1 RETURN JUMPDEST PUSH2 0xDF PUSH2 0xDA CALLDATASIZE PUSH1 0x4 PUSH2 0x71B JUMP JUMPDEST PUSH2 0x1B7 JUMP JUMPDEST PUSH1 0x40 MLOAD PUSH2 0xC3 SWAP3 SWAP2 SWAP1 PUSH2 0x8BA JUMP JUMPDEST PUSH2 0x100 PUSH2 0xFB CALLDATASIZE PUSH1 0x4 PUSH2 0x67E JUMP JUMPDEST PUSH2 0x263 JUMP JUMPDEST PUSH1 0x40 MLOAD PUSH2 0xC3 SWAP4 SWAP3 SWAP2 SWAP1 PUSH2 0x8C8 JUMP JUMPDEST PUSH2 0xB6 PUSH2 0x11D CALLDATASIZE PUSH1 0x4 PUSH2 0x6CF JUMP JUMPDEST PUSH2 0x325 JUMP JUMPDEST PUSH2 0x100 PUSH2 0x130 CALLDATASIZE PUSH1 0x4 PUSH2 0x67E JUMP JUMPDEST PUSH2 0x347 JUMP JUMPDEST PUSH2 0xB6 PUSH2 0x143 CALLDATASIZE PUSH1 0x4 PUSH2 0x637 JUMP JUMPDEST PUSH2 0x39C JUMP JUMPDEST PUSH2 0x100 PUSH2 0x156 CALLDATASIZE PUSH1 0x4 PUSH2 0x67E JUMP JUMPDEST PUSH2 0x435 JUMP JUMPDEST PUSH2 0xB6 PUSH2 0x4D1 JUMP JUMPDEST PUSH2 0xB6 PUSH2 0x171 CALLDATASIZE PUSH1 0x4 PUSH2 0x6CF JUMP JUMPDEST PUSH2 0x4D8 JUMP JUMPDEST PUSH1 0x0 DUP1 PUSH2 0x19C PUSH3 0xF4240 PUSH2 0x190 DUP8 DUP8 PUSH4 0xFFFFFFFF PUSH2 0x4F1 AND JUMP JUMPDEST SWAP1 PUSH4 0xFFFFFFFF PUSH2 0x52B AND JUMP JUMPDEST SWAP1 POP PUSH2 0x1AE DUP2 DUP5 PUSH4 0xFFFFFFFF PUSH2 0x56D AND JUMP JUMPDEST SWAP6 SWAP5 POP POP POP POP POP JUMP JUMPDEST PUSH1 0x0 DUP1 DUP1 PUSH2 0x1D2 PUSH3 0xF4240 PUSH2 0x190 DUP11 DUP11 PUSH4 0xFFFFFFFF PUSH2 0x4F1 AND JUMP JUMPDEST SWAP1 POP PUSH1 0x0 PUSH2 0x1ED DUP7 PUSH2 0x190 DUP10 PUSH3 0xF4240 PUSH4 0xFFFFFFFF PUSH2 0x4F1 AND JUMP JUMPDEST SWAP1 POP PUSH1 0x0 PUSH2 0x227 PUSH3 0xF4240 PUSH2 0x190 PUSH2 0x20B DUP11 DUP7 PUSH4 0xFFFFFFFF PUSH2 0x4F1 AND JUMP JUMPDEST PUSH2 0x21B DUP11 DUP13 PUSH4 0xFFFFFFFF PUSH2 0x4F1 AND JUMP JUMPDEST SWAP1 PUSH4 0xFFFFFFFF PUSH2 0x56D AND JUMP JUMPDEST SWAP1 POP PUSH1 0x0 DUP2 DUP5 GT PUSH2 0x239 JUMPI POP DUP3 PUSH2 0x23C JUMP JUMPDEST POP DUP1 JUMPDEST PUSH2 0x253 DUP11 PUSH2 0x190 DUP4 PUSH3 0xF4240 PUSH4 0xFFFFFFFF PUSH2 0x4F1 AND JUMP JUMPDEST SWAP12 SWAP1 SWAP11 POP SWAP9 POP POP POP POP POP POP POP POP POP JUMP JUMPDEST PUSH1 0x0 DUP1 PUSH1 0x0 DUP1 PUSH2 0x284 DUP6 PUSH1 0x0 ADD MLOAD DUP7 PUSH1 0x40 ADD MLOAD PUSH2 0x4F1 SWAP1 SWAP2 SWAP1 PUSH4 0xFFFFFFFF AND JUMP JUMPDEST SWAP1 POP PUSH1 0x0 PUSH2 0x29B DUP3 PUSH3 0xF4240 PUSH4 0xFFFFFFFF PUSH2 0x52B AND JUMP JUMPDEST SWAP1 POP PUSH1 0x0 PUSH2 0x2D9 PUSH3 0xF4240 PUSH2 0x190 PUSH2 0x2C3 DUP11 PUSH1 0x80 ADD MLOAD PUSH3 0xF4240 PUSH2 0x56D SWAP1 SWAP2 SWAP1 PUSH4 0xFFFFFFFF AND JUMP JUMPDEST PUSH1 0x80 DUP12 ADD MLOAD PUSH2 0x190 SWAP1 DUP9 SWAP1 PUSH4 0xFFFFFFFF PUSH2 0x4F1 AND JUMP JUMPDEST SWAP1 POP PUSH1 0x0 PUSH2 0x2FB DUP9 PUSH1 0x20 ADD MLOAD PUSH2 0x190 PUSH3 0xF4240 DUP6 PUSH2 0x4F1 SWAP1 SWAP2 SWAP1 PUSH4 0xFFFFFFFF AND JUMP JUMPDEST SWAP1 POP PUSH2 0x30D DUP4 DUP4 PUSH4 0xFFFFFFFF PUSH2 0x5AF AND JUMP JUMPDEST DUP2 DUP10 PUSH1 0x40 ADD MLOAD SWAP7 POP SWAP7 POP SWAP7 POP POP POP POP POP JUMPDEST SWAP2 SWAP4 SWAP1 SWAP3 POP JUMP JUMPDEST PUSH1 0x0 PUSH2 0x33E DUP4 PUSH2 0x190 DUP5 PUSH3 0xF4240 PUSH4 0xFFFFFFFF PUSH2 0x4F1 AND JUMP JUMPDEST SWAP1 POP JUMPDEST SWAP3 SWAP2 POP POP JUMP JUMPDEST PUSH1 0x0 DUP1 PUSH1 0x0 DUP1 PUSH1 0x0 DUP1 PUSH2 0x359 DUP8 PUSH2 0x435 JUMP JUMPDEST SWAP3 POP SWAP3 POP SWAP3 POP PUSH1 0x0 DUP1 PUSH1 0x0 PUSH2 0x36D DUP11 PUSH2 0x263 JUMP JUMPDEST SWAP3 POP SWAP3 POP SWAP3 POP DUP3 DUP7 GT ISZERO PUSH2 0x38B JUMPI SWAP2 SWAP8 POP SWAP6 POP SWAP4 POP PUSH2 0x31E SWAP3 POP POP POP JUMP JUMPDEST POP SWAP4 SWAP7 POP SWAP2 SWAP5 POP SWAP3 POP PUSH2 0x31E SWAP2 POP POP JUMP JUMPDEST DUP1 MLOAD PUSH1 0x0 SWAP1 PUSH2 0x3C6 JUMPI PUSH1 0x40 MLOAD PUSH3 0x461BCD PUSH1 0xE5 SHL DUP2 MSTORE PUSH1 0x4 ADD PUSH2 0x3BD SWAP1 PUSH2 0x82F JUMP JUMPDEST PUSH1 0x40 MLOAD DUP1 SWAP2 SUB SWAP1 REVERT JUMPDEST PUSH1 0x0 PUSH2 0x3EA PUSH3 0xF4240 PUSH2 0x190 DUP6 PUSH1 0x20 ADD MLOAD DUP7 PUSH1 0x60 ADD MLOAD PUSH2 0x4F1 SWAP1 SWAP2 SWAP1 PUSH4 0xFFFFFFFF AND JUMP JUMPDEST DUP4 MLOAD SWAP1 SWAP2 POP DUP2 GT ISZERO PUSH2 0x40E JUMPI PUSH1 0x40 MLOAD PUSH3 0x461BCD PUSH1 0xE5 SHL DUP2 MSTORE PUSH1 0x4 ADD PUSH2 0x3BD SWAP1 PUSH2 0x7A8 JUMP JUMPDEST PUSH1 0x40 DUP4 ADD MLOAD PUSH1 0x0 SWAP1 PUSH2 0x42D SWAP1 PUSH2 0x190 DUP5 PUSH3 0xF4240 PUSH4 0xFFFFFFFF PUSH2 0x4F1 AND JUMP JUMPDEST SWAP5 SWAP4 POP POP POP POP JUMP JUMPDEST PUSH1 0x0 DUP1 PUSH1 0x0 DUP1 PUSH2 0x456 DUP6 PUSH1 0x20 ADD MLOAD DUP7 PUSH1 0x60 ADD MLOAD PUSH2 0x4F1 SWAP1 SWAP2 SWAP1 PUSH4 0xFFFFFFFF AND JUMP JUMPDEST SWAP1 POP PUSH1 0x0 PUSH2 0x46D DUP3 PUSH3 0xF4240 PUSH4 0xFFFFFFFF PUSH2 0x52B AND JUMP JUMPDEST SWAP1 POP PUSH1 0x0 PUSH2 0x48C DUP3 PUSH2 0x21B DUP10 PUSH1 0x80 ADD MLOAD DUP7 PUSH2 0x52B SWAP1 SWAP2 SWAP1 PUSH4 0xFFFFFFFF AND JUMP JUMPDEST DUP8 MLOAD SWAP1 SWAP2 POP PUSH1 0x0 SWAP1 PUSH2 0x4AB SWAP1 PUSH2 0x190 DUP5 PUSH3 0xF4240 PUSH4 0xFFFFFFFF PUSH2 0x4F1 AND JUMP JUMPDEST SWAP1 POP PUSH2 0x4BD DUP4 DUP4 PUSH4 0xFFFFFFFF PUSH2 0x5AF AND JUMP JUMPDEST PUSH1 0x60 SWAP9 SWAP1 SWAP9 ADD MLOAD SWAP8 SWAP9 SWAP1 SWAP7 POP SWAP5 POP POP POP POP POP JUMP JUMPDEST PUSH3 0xF4240 DUP2 JUMP JUMPDEST PUSH1 0x0 PUSH2 0x33E PUSH3 0xF4240 PUSH2 0x190 DUP5 DUP7 PUSH4 0xFFFFFFFF PUSH2 0x4F1 AND JUMP JUMPDEST PUSH1 0x0 DUP3 PUSH2 0x500 JUMPI POP PUSH1 0x0 PUSH2 0x341 JUMP JUMPDEST DUP3 DUP3 MUL DUP3 DUP5 DUP3 DUP2 PUSH2 0x50D JUMPI INVALID JUMPDEST DIV EQ PUSH2 0x33E JUMPI PUSH1 0x40 MLOAD PUSH3 0x461BCD PUSH1 0xE5 SHL DUP2 MSTORE PUSH1 0x4 ADD PUSH2 0x3BD SWAP1 PUSH2 0x870 JUMP JUMPDEST PUSH1 0x0 PUSH2 0x33E DUP4 DUP4 PUSH1 0x40 MLOAD DUP1 PUSH1 0x40 ADD PUSH1 0x40 MSTORE DUP1 PUSH1 0x1A DUP2 MSTORE PUSH1 0x20 ADD PUSH32 0x536166654D6174683A206469766973696F6E206279207A65726F000000000000 DUP2 MSTORE POP PUSH2 0x5D4 JUMP JUMPDEST PUSH1 0x0 PUSH2 0x33E DUP4 DUP4 PUSH1 0x40 MLOAD DUP1 PUSH1 0x40 ADD PUSH1 0x40 MSTORE DUP1 PUSH1 0x1E DUP2 MSTORE PUSH1 0x20 ADD PUSH32 0x536166654D6174683A207375627472616374696F6E206F766572666C6F770000 DUP2 MSTORE POP PUSH2 0x60B JUMP JUMPDEST PUSH1 0x0 DUP3 DUP3 ADD DUP4 DUP2 LT ISZERO PUSH2 0x33E JUMPI PUSH1 0x40 MLOAD PUSH3 0x461BCD PUSH1 0xE5 SHL DUP2 MSTORE PUSH1 0x4 ADD PUSH2 0x3BD SWAP1 PUSH2 0x7F8 JUMP JUMPDEST PUSH1 0x0 DUP2 DUP4 PUSH2 0x5F5 JUMPI PUSH1 0x40 MLOAD PUSH3 0x461BCD PUSH1 0xE5 SHL DUP2 MSTORE PUSH1 0x4 ADD PUSH2 0x3BD SWAP2 SWAP1 PUSH2 0x755 JUMP JUMPDEST POP PUSH1 0x0 DUP4 DUP6 DUP2 PUSH2 0x601 JUMPI INVALID JUMPDEST DIV SWAP6 SWAP5 POP POP POP POP POP JUMP JUMPDEST PUSH1 0x0 DUP2 DUP5 DUP5 GT ISZERO PUSH2 0x62F JUMPI PUSH1 0x40 MLOAD PUSH3 0x461BCD PUSH1 0xE5 SHL DUP2 MSTORE PUSH1 0x4 ADD PUSH2 0x3BD SWAP2 SWAP1 PUSH2 0x755 JUMP JUMPDEST POP POP POP SWAP1 SUB SWAP1 JUMP JUMPDEST PUSH1 0x0 PUSH1 0x80 DUP3 DUP5 SUB SLT ISZERO PUSH2 0x648 JUMPI DUP1 DUP2 REVERT JUMPDEST PUSH2 0x652 PUSH1 0x80 PUSH2 0x8DE JUMP JUMPDEST DUP3 CALLDATALOAD DUP2 MSTORE PUSH1 0x20 DUP4 ADD CALLDATALOAD PUSH1 0x20 DUP3 ADD MSTORE PUSH1 0x40 DUP4 ADD CALLDATALOAD PUSH1 0x40 DUP3 ADD MSTORE PUSH1 0x60 DUP4 ADD CALLDATALOAD PUSH1 0x60 DUP3 ADD MSTORE DUP1 SWAP2 POP POP SWAP3 SWAP2 POP POP JUMP JUMPDEST PUSH1 0x0 PUSH1 0xA0 DUP3 DUP5 SUB SLT ISZERO PUSH2 0x68F JUMPI DUP1 DUP2 REVERT JUMPDEST PUSH2 0x699 PUSH1 0xA0 PUSH2 0x8DE JUMP JUMPDEST DUP3 CALLDATALOAD DUP2 MSTORE PUSH1 0x20 DUP4 ADD CALLDATALOAD PUSH1 0x20 DUP3 ADD MSTORE PUSH1 0x40 DUP4 ADD CALLDATALOAD PUSH1 0x40 DUP3 ADD MSTORE PUSH1 0x60 DUP4 ADD CALLDATALOAD PUSH1 0x60 DUP3 ADD MSTORE PUSH1 0x80 DUP4 ADD CALLDATALOAD PUSH1 0x80 DUP3 ADD MSTORE DUP1 SWAP2 POP POP SWAP3 SWAP2 POP POP JUMP JUMPDEST PUSH1 0x0 DUP1 PUSH1 0x40 DUP4 DUP6 SUB SLT ISZERO PUSH2 0x6E1 JUMPI DUP1 DUP2 REVERT JUMPDEST POP POP DUP1 CALLDATALOAD SWAP3 PUSH1 0x20 SWAP1 SWAP2 ADD CALLDATALOAD SWAP2 POP JUMP JUMPDEST PUSH1 0x0 DUP1 PUSH1 0x0 PUSH1 0x60 DUP5 DUP7 SUB SLT ISZERO PUSH2 0x704 JUMPI DUP1 DUP2 REVERT JUMPDEST POP POP DUP2 CALLDATALOAD SWAP4 PUSH1 0x20 DUP4 ADD CALLDATALOAD SWAP4 POP PUSH1 0x40 SWAP1 SWAP3 ADD CALLDATALOAD SWAP2 SWAP1 POP JUMP JUMPDEST PUSH1 0x0 DUP1 PUSH1 0x0 DUP1 PUSH1 0x0 PUSH1 0xA0 DUP7 DUP9 SUB SLT ISZERO PUSH2 0x732 JUMPI DUP1 DUP2 REVERT JUMPDEST POP POP DUP4 CALLDATALOAD SWAP6 PUSH1 0x20 DUP6 ADD CALLDATALOAD SWAP6 POP PUSH1 0x40 DUP6 ADD CALLDATALOAD SWAP5 PUSH1 0x60 DUP2 ADD CALLDATALOAD SWAP5 POP PUSH1 0x80 ADD CALLDATALOAD SWAP3 POP SWAP1 POP JUMP JUMPDEST PUSH1 0x0 PUSH1 0x20 DUP1 DUP4 MSTORE DUP4 MLOAD DUP1 DUP3 DUP6 ADD MSTORE DUP3 JUMPDEST DUP2 DUP2 LT ISZERO PUSH2 0x781 JUMPI DUP6 DUP2 ADD DUP4 ADD MLOAD DUP6 DUP3 ADD PUSH1 0x40 ADD MSTORE DUP3 ADD PUSH2 0x765 JUMP JUMPDEST DUP2 DUP2 GT ISZERO PUSH2 0x792 JUMPI DUP4 PUSH1 0x40 DUP4 DUP8 ADD ADD MSTORE JUMPDEST POP PUSH1 0x1F ADD PUSH1 0x1F NOT AND SWAP3 SWAP1 SWAP3 ADD PUSH1 0x40 ADD SWAP4 SWAP3 POP POP POP JUMP JUMPDEST PUSH1 0x20 DUP1 DUP3 MSTORE PUSH1 0x30 SWAP1 DUP3 ADD MSTORE PUSH32 0x596F752061726520747279696E6720746F20627579206261636B206D6F726520 PUSH1 0x40 DUP3 ADD MSTORE PUSH16 0x7468616E207468652065786365737321 PUSH1 0x80 SHL PUSH1 0x60 DUP3 ADD MSTORE PUSH1 0x80 ADD SWAP1 JUMP JUMPDEST PUSH1 0x20 DUP1 DUP3 MSTORE PUSH1 0x1B SWAP1 DUP3 ADD MSTORE PUSH32 0x536166654D6174683A206164646974696F6E206F766572666C6F770000000000 PUSH1 0x40 DUP3 ADD MSTORE PUSH1 0x60 ADD SWAP1 JUMP JUMPDEST PUSH1 0x20 DUP1 DUP3 MSTORE PUSH1 0x21 SWAP1 DUP3 ADD MSTORE PUSH32 0x4E6F2065786365737320636F6C6C61746572616C20746F20627579206261636B PUSH1 0x40 DUP3 ADD MSTORE PUSH1 0x21 PUSH1 0xF8 SHL PUSH1 0x60 DUP3 ADD MSTORE PUSH1 0x80 ADD SWAP1 JUMP JUMPDEST PUSH1 0x20 DUP1 DUP3 MSTORE PUSH1 0x21 SWAP1 DUP3 ADD MSTORE PUSH32 0x536166654D6174683A206D756C7469706C69636174696F6E206F766572666C6F PUSH1 0x40 DUP3 ADD MSTORE PUSH1 0x77 PUSH1 0xF8 SHL PUSH1 0x60 DUP3 ADD MSTORE PUSH1 0x80 ADD SWAP1 JUMP JUMPDEST SWAP1 DUP2 MSTORE PUSH1 0x20 ADD SWAP1 JUMP JUMPDEST SWAP2 DUP3 MSTORE PUSH1 0x20 DUP3 ADD MSTORE PUSH1 0x40 ADD SWAP1 JUMP JUMPDEST SWAP3 DUP4 MSTORE PUSH1 0x20 DUP4 ADD SWAP2 SWAP1 SWAP2 MSTORE PUSH1 0x40 DUP3 ADD MSTORE PUSH1 0x60 ADD SWAP1 JUMP JUMPDEST PUSH1 0x40 MLOAD DUP2 DUP2 ADD PUSH8 0xFFFFFFFFFFFFFFFF DUP2 GT DUP3 DUP3 LT OR ISZERO PUSH2 0x8FD JUMPI PUSH1 0x0 DUP1 REVERT JUMPDEST PUSH1 0x40 MSTORE SWAP2 SWAP1 POP JUMP INVALID LOG2 PUSH5 0x6970667358 0x22 SLT KECCAK256 0xCF 0x2F MOD 0xE5 PUSH4 0x6AAC8F0 GT 0xBA PUSH18 0x5F386F2F1B1A2392E66CF01558D2BEEE50FF BALANCE DELEGATECALL PUSH5 0x736F6C6343 STOP MOD SIGNEXTEND STOP CALLER "
		},
		"gasEstimates": {
			"creation": {
				"codeDepositCost": "472600",
				"executionCost": "505",
				"totalCost": "473105"
			},
			"external": {
				"COLLATERAL_RATIO_PRECISION()": "294",
				"PRICE_PRECISION()": "272",
				"calcBuyBackShares((uint256,uint256,uint256,uint256))": "infinite",
				"calcMint1t1USE(uint256,uint256)": "infinite",
				"calcMintFractionalUSE((uint256,uint256,uint256,uint256,uint256))": "infinite",
				"calcMintFractionalWithCollateral((uint256,uint256,uint256,uint256,uint256))": "infinite",
				"calcMintFractionalWithShare((uint256,uint256,uint256,uint256,uint256))": "infinite",
				"calcRecollateralizeUSEInner(uint256,uint256,uint256,uint256,uint256)": "infinite",
				"calcRedeem1t1USE(uint256,uint256)": "infinite",
				"recollateralizeAmount(uint256,uint256,uint256)": "infinite"
			}
		},
		"methodIdentifiers": {
			"COLLATERAL_RATIO_PRECISION()": "d07ac67e",
			"PRICE_PRECISION()": "95082d25",
			"calcBuyBackShares((uint256,uint256,uint256,uint256))": "5134d99c",
			"calcMint1t1USE(uint256,uint256)": "e66a7fda",
			"calcMintFractionalUSE((uint256,uint256,uint256,uint256,uint256))": "2223f149",
			"calcMintFractionalWithCollateral((uint256,uint256,uint256,uint256,uint256))": "6a66bf83",
			"calcMintFractionalWithShare((uint256,uint256,uint256,uint256,uint256))": "202ea199",
			"calcRecollateralizeUSEInner(uint256,uint256,uint256,uint256,uint256)": "106e1a39",
			"calcRedeem1t1USE(uint256,uint256)": "20e6da17",
			"recollateralizeAmount(uint256,uint256,uint256)": "0ff24ec1"
		}
	},
	"abi": [
		{
			"inputs": [],
			"name": "COLLATERAL_RATIO_PRECISION",
			"outputs": [
				{
					"internalType": "uint256",
					"name": "",
					"type": "uint256"
				}
			],
			"stateMutability": "view",
			"type": "function"
		},
		{
			"inputs": [],
			"name": "PRICE_PRECISION",
			"outputs": [
				{
					"internalType": "uint256",
					"name": "",
					"type": "uint256"
				}
			],
			"stateMutability": "view",
			"type": "function"
		},
		{
			"inputs": [
				{
					"components": [
						{
							"internalType": "uint256",
							"name": "excess_collateral_dollar_value_d18",
							"type": "uint256"
						},
						{
							"internalType": "uint256",
							"name": "shares_price_usd",
							"type": "uint256"
						},
						{
							"internalType": "uint256",
							"name": "col_price_usd",
							"type": "uint256"
						},
						{
							"internalType": "uint256",
							"name": "shares_amount",
							"type": "uint256"
						}
					],
					"internalType": "struct USEPoolAlgo.BuybackShares_Params",
					"name": "params",
					"type": "tuple"
				}
			],
			"name": "calcBuyBackShares",
			"outputs": [
				{
					"internalType": "uint256",
					"name": "",
					"type": "uint256"
				}
			],
			"stateMutability": "pure",
			"type": "function"
		},
		{
			"inputs": [
				{
					"internalType": "uint256",
					"name": "col_price",
					"type": "uint256"
				},
				{
					"internalType": "uint256",
					"name": "collateral_amount_d18",
					"type": "uint256"
				}
			],
			"name": "calcMint1t1USE",
			"outputs": [
				{
					"internalType": "uint256",
					"name": "",
					"type": "uint256"
				}
			],
			"stateMutability": "pure",
			"type": "function"
		},
		{
			"inputs": [
				{
					"components": [
						{
							"internalType": "uint256",
							"name": "shares_price_usd",
							"type": "uint256"
						},
						{
							"internalType": "uint256",
							"name": "col_price_usd",
							"type": "uint256"
						},
						{
							"internalType": "uint256",
							"name": "shares_amount",
							"type": "uint256"
						},
						{
							"internalType": "uint256",
							"name": "collateral_amount",
							"type": "uint256"
						},
						{
							"internalType": "uint256",
							"name": "col_ratio",
							"type": "uint256"
						}
					],
					"internalType": "struct USEPoolAlgo.MintFU_Params",
					"name": "params",
					"type": "tuple"
				}
			],
			"name": "calcMintFractionalUSE",
			"outputs": [
				{
					"internalType": "uint256",
					"name": "",
					"type": "uint256"
				},
				{
					"internalType": "uint256",
					"name": "",
					"type": "uint256"
				},
				{
					"internalType": "uint256",
					"name": "",
					"type": "uint256"
				}
			],
			"stateMutability": "pure",
			"type": "function"
		},
		{
			"inputs": [
				{
					"components": [
						{
							"internalType": "uint256",
							"name": "shares_price_usd",
							"type": "uint256"
						},
						{
							"internalType": "uint256",
							"name": "col_price_usd",
							"type": "uint256"
						},
						{
							"internalType": "uint256",
							"name": "shares_amount",
							"type": "uint256"
						},
						{
							"internalType": "uint256",
							"name": "collateral_amount",
							"type": "uint256"
						},
						{
							"internalType": "uint256",
							"name": "col_ratio",
							"type": "uint256"
						}
					],
					"internalType": "struct USEPoolAlgo.MintFU_Params",
					"name": "params",
					"type": "tuple"
				}
			],
			"name": "calcMintFractionalWithCollateral",
			"outputs": [
				{
					"internalType": "uint256",
					"name": "",
					"type": "uint256"
				},
				{
					"internalType": "uint256",
					"name": "",
					"type": "uint256"
				},
				{
					"internalType": "uint256",
					"name": "",
					"type": "uint256"
				}
			],
			"stateMutability": "pure",
			"type": "function"
		},
		{
			"inputs": [
				{
					"components": [
						{
							"internalType": "uint256",
							"name": "shares_price_usd",
							"type": "uint256"
						},
						{
							"internalType": "uint256",
							"name": "col_price_usd",
							"type": "uint256"
						},
						{
							"internalType": "uint256",
							"name": "shares_amount",
							"type": "uint256"
						},
						{
							"internalType": "uint256",
							"name": "collateral_amount",
							"type": "uint256"
						},
						{
							"internalType": "uint256",
							"name": "col_ratio",
							"type": "uint256"
						}
					],
					"internalType": "struct USEPoolAlgo.MintFU_Params",
					"name": "params",
					"type": "tuple"
				}
			],
			"name": "calcMintFractionalWithShare",
			"outputs": [
				{
					"internalType": "uint256",
					"name": "",
					"type": "uint256"
				},
				{
					"internalType": "uint256",
					"name": "",
					"type": "uint256"
				},
				{
					"internalType": "uint256",
					"name": "",
					"type": "uint256"
				}
			],
			"stateMutability": "pure",
			"type": "function"
		},
		{
			"inputs": [
				{
					"internalType": "uint256",
					"name": "collateral_amount",
					"type": "uint256"
				},
				{
					"internalType": "uint256",
					"name": "col_price",
					"type": "uint256"
				},
				{
					"internalType": "uint256",
					"name": "global_collat_value",
					"type": "uint256"
				},
				{
					"internalType": "uint256",
					"name": "frax_total_supply",
					"type": "uint256"
				},
				{
					"internalType": "uint256",
					"name": "global_collateral_ratio",
					"type": "uint256"
				}
			],
			"name": "calcRecollateralizeUSEInner",
			"outputs": [
				{
					"internalType": "uint256",
					"name": "",
					"type": "uint256"
				},
				{
					"internalType": "uint256",
					"name": "",
					"type": "uint256"
				}
			],
			"stateMutability": "pure",
			"type": "function"
		},
		{
			"inputs": [
				{
					"internalType": "uint256",
					"name": "col_price_usd",
					"type": "uint256"
				},
				{
					"internalType": "uint256",
					"name": "use_amount",
					"type": "uint256"
				}
			],
			"name": "calcRedeem1t1USE",
			"outputs": [
				{
					"internalType": "uint256",
					"name": "",
					"type": "uint256"
				}
			],
			"stateMutability": "pure",
			"type": "function"
		},
		{
			"inputs": [
				{
					"internalType": "uint256",
					"name": "total_supply",
					"type": "uint256"
				},
				{
					"internalType": "uint256",
					"name": "global_collateral_ratio",
					"type": "uint256"
				},
				{
					"internalType": "uint256",
					"name": "global_collat_value",
					"type": "uint256"
				}
			],
			"name": "recollateralizeAmount",
			"outputs": [
				{
					"internalType": "uint256",
					"name": "",
					"type": "uint256"
				}
			],
			"stateMutability": "pure",
			"type": "function"
		}
	]
}