{
	"data": {
		"bytecode": {
			"linkReferences": {},
			"object": "610484610026600b82828239805160001a60731461001957fe5b30600052607381538281f3fe73000000000000000000000000000000000000000030146080604052600436106100565760003560e01c80630ff24ec11461005b578063106e1a391461008457806320e6da17146100a5578063e66a7fda146100b8575b600080fd5b61006e61006936600461033e565b6100cb565b60405161007b9190610437565b60405180910390f35b610097610092366004610369565b61010c565b60405161007b929190610440565b61006e6100b336600461031d565b6101b8565b61006e6100c636600461031d565b6101da565b6000806100f1620f42406100e5878763ffffffff6101f316565b9063ffffffff61023616565b9050610103818463ffffffff61027816565b95945050505050565b60008080610127620f42406100e58a8a63ffffffff6101f316565b90506000610142866100e589620f424063ffffffff6101f316565b9050600061017c620f42406100e56101608a8663ffffffff6101f316565b6101708a8c63ffffffff6101f316565b9063ffffffff61027816565b9050600081841161018e575082610191565b50805b6101a88a6100e583620f424063ffffffff6101f316565b9b909a5098505050505050505050565b60006101d1836100e584620f424063ffffffff6101f316565b90505b92915050565b60006101d1620f42406100e5848663ffffffff6101f316565b600082610202575060006101d4565b8282028284828161020f57fe5b04146101d15760405162461bcd60e51b815260040161022d906103f6565b60405180910390fd5b60006101d183836040518060400160405280601a81526020017f536166654d6174683a206469766973696f6e206279207a65726f0000000000008152506102ba565b60006101d183836040518060400160405280601e81526020017f536166654d6174683a207375627472616374696f6e206f766572666c6f7700008152506102f1565b600081836102db5760405162461bcd60e51b815260040161022d91906103a3565b5060008385816102e757fe5b0495945050505050565b600081848411156103155760405162461bcd60e51b815260040161022d91906103a3565b505050900390565b6000806040838503121561032f578182fd5b50508035926020909101359150565b600080600060608486031215610352578081fd5b505081359360208301359350604090920135919050565b600080600080600060a08688031215610380578081fd5b505083359560208501359550604085013594606081013594506080013592509050565b6000602080835283518082850152825b818110156103cf578581018301518582016040015282016103b3565b818111156103e05783604083870101525b50601f01601f1916929092016040019392505050565b60208082526021908201527f536166654d6174683a206d756c7469706c69636174696f6e206f766572666c6f6040820152607760f81b606082015260800190565b90815260200190565b91825260208201526040019056fea2646970667358221220026efcb4901158273d3416a04ac51898469b19966b787a136afa53973f9b9af164736f6c634300060b0033",
			"opcodes": "PUSH2 0x484 PUSH2 0x26 PUSH1 0xB DUP3 DUP3 DUP3 CODECOPY DUP1 MLOAD PUSH1 0x0 BYTE PUSH1 0x73 EQ PUSH2 0x19 JUMPI INVALID JUMPDEST ADDRESS PUSH1 0x0 MSTORE PUSH1 0x73 DUP2 MSTORE8 DUP3 DUP2 RETURN INVALID PUSH20 0x0 ADDRESS EQ PUSH1 0x80 PUSH1 0x40 MSTORE PUSH1 0x4 CALLDATASIZE LT PUSH2 0x56 JUMPI PUSH1 0x0 CALLDATALOAD PUSH1 0xE0 SHR DUP1 PUSH4 0xFF24EC1 EQ PUSH2 0x5B JUMPI DUP1 PUSH4 0x106E1A39 EQ PUSH2 0x84 JUMPI DUP1 PUSH4 0x20E6DA17 EQ PUSH2 0xA5 JUMPI DUP1 PUSH4 0xE66A7FDA EQ PUSH2 0xB8 JUMPI JUMPDEST PUSH1 0x0 DUP1 REVERT JUMPDEST PUSH2 0x6E PUSH2 0x69 CALLDATASIZE PUSH1 0x4 PUSH2 0x33E JUMP JUMPDEST PUSH2 0xCB JUMP JUMPDEST PUSH1 0x40 MLOAD PUSH2 0x7B SWAP2 SWAP1 PUSH2 0x437 JUMP JUMPDEST PUSH1 0x40 MLOAD DUP1 SWAP2 SUB SWAP1 RETURN JUMPDEST PUSH2 0x97 PUSH2 0x92 CALLDATASIZE PUSH1 0x4 PUSH2 0x369 JUMP JUMPDEST PUSH2 0x10C JUMP JUMPDEST PUSH1 0x40 MLOAD PUSH2 0x7B SWAP3 SWAP2 SWAP1 PUSH2 0x440 JUMP JUMPDEST PUSH2 0x6E PUSH2 0xB3 CALLDATASIZE PUSH1 0x4 PUSH2 0x31D JUMP JUMPDEST PUSH2 0x1B8 JUMP JUMPDEST PUSH2 0x6E PUSH2 0xC6 CALLDATASIZE PUSH1 0x4 PUSH2 0x31D JUMP JUMPDEST PUSH2 0x1DA JUMP JUMPDEST PUSH1 0x0 DUP1 PUSH2 0xF1 PUSH3 0xF4240 PUSH2 0xE5 DUP8 DUP8 PUSH4 0xFFFFFFFF PUSH2 0x1F3 AND JUMP JUMPDEST SWAP1 PUSH4 0xFFFFFFFF PUSH2 0x236 AND JUMP JUMPDEST SWAP1 POP PUSH2 0x103 DUP2 DUP5 PUSH4 0xFFFFFFFF PUSH2 0x278 AND JUMP JUMPDEST SWAP6 SWAP5 POP POP POP POP POP JUMP JUMPDEST PUSH1 0x0 DUP1 DUP1 PUSH2 0x127 PUSH3 0xF4240 PUSH2 0xE5 DUP11 DUP11 PUSH4 0xFFFFFFFF PUSH2 0x1F3 AND JUMP JUMPDEST SWAP1 POP PUSH1 0x0 PUSH2 0x142 DUP7 PUSH2 0xE5 DUP10 PUSH3 0xF4240 PUSH4 0xFFFFFFFF PUSH2 0x1F3 AND JUMP JUMPDEST SWAP1 POP PUSH1 0x0 PUSH2 0x17C PUSH3 0xF4240 PUSH2 0xE5 PUSH2 0x160 DUP11 DUP7 PUSH4 0xFFFFFFFF PUSH2 0x1F3 AND JUMP JUMPDEST PUSH2 0x170 DUP11 DUP13 PUSH4 0xFFFFFFFF PUSH2 0x1F3 AND JUMP JUMPDEST SWAP1 PUSH4 0xFFFFFFFF PUSH2 0x278 AND JUMP JUMPDEST SWAP1 POP PUSH1 0x0 DUP2 DUP5 GT PUSH2 0x18E JUMPI POP DUP3 PUSH2 0x191 JUMP JUMPDEST POP DUP1 JUMPDEST PUSH2 0x1A8 DUP11 PUSH2 0xE5 DUP4 PUSH3 0xF4240 PUSH4 0xFFFFFFFF PUSH2 0x1F3 AND JUMP JUMPDEST SWAP12 SWAP1 SWAP11 POP SWAP9 POP POP POP POP POP POP POP POP POP JUMP JUMPDEST PUSH1 0x0 PUSH2 0x1D1 DUP4 PUSH2 0xE5 DUP5 PUSH3 0xF4240 PUSH4 0xFFFFFFFF PUSH2 0x1F3 AND JUMP JUMPDEST SWAP1 POP JUMPDEST SWAP3 SWAP2 POP POP JUMP JUMPDEST PUSH1 0x0 PUSH2 0x1D1 PUSH3 0xF4240 PUSH2 0xE5 DUP5 DUP7 PUSH4 0xFFFFFFFF PUSH2 0x1F3 AND JUMP JUMPDEST PUSH1 0x0 DUP3 PUSH2 0x202 JUMPI POP PUSH1 0x0 PUSH2 0x1D4 JUMP JUMPDEST DUP3 DUP3 MUL DUP3 DUP5 DUP3 DUP2 PUSH2 0x20F JUMPI INVALID JUMPDEST DIV EQ PUSH2 0x1D1 JUMPI PUSH1 0x40 MLOAD PUSH3 0x461BCD PUSH1 0xE5 SHL DUP2 MSTORE PUSH1 0x4 ADD PUSH2 0x22D SWAP1 PUSH2 0x3F6 JUMP JUMPDEST PUSH1 0x40 MLOAD DUP1 SWAP2 SUB SWAP1 REVERT JUMPDEST PUSH1 0x0 PUSH2 0x1D1 DUP4 DUP4 PUSH1 0x40 MLOAD DUP1 PUSH1 0x40 ADD PUSH1 0x40 MSTORE DUP1 PUSH1 0x1A DUP2 MSTORE PUSH1 0x20 ADD PUSH32 0x536166654D6174683A206469766973696F6E206279207A65726F000000000000 DUP2 MSTORE POP PUSH2 0x2BA JUMP JUMPDEST PUSH1 0x0 PUSH2 0x1D1 DUP4 DUP4 PUSH1 0x40 MLOAD DUP1 PUSH1 0x40 ADD PUSH1 0x40 MSTORE DUP1 PUSH1 0x1E DUP2 MSTORE PUSH1 0x20 ADD PUSH32 0x536166654D6174683A207375627472616374696F6E206F766572666C6F770000 DUP2 MSTORE POP PUSH2 0x2F1 JUMP JUMPDEST PUSH1 0x0 DUP2 DUP4 PUSH2 0x2DB JUMPI PUSH1 0x40 MLOAD PUSH3 0x461BCD PUSH1 0xE5 SHL DUP2 MSTORE PUSH1 0x4 ADD PUSH2 0x22D SWAP2 SWAP1 PUSH2 0x3A3 JUMP JUMPDEST POP PUSH1 0x0 DUP4 DUP6 DUP2 PUSH2 0x2E7 JUMPI INVALID JUMPDEST DIV SWAP6 SWAP5 POP POP POP POP POP JUMP JUMPDEST PUSH1 0x0 DUP2 DUP5 DUP5 GT ISZERO PUSH2 0x315 JUMPI PUSH1 0x40 MLOAD PUSH3 0x461BCD PUSH1 0xE5 SHL DUP2 MSTORE PUSH1 0x4 ADD PUSH2 0x22D SWAP2 SWAP1 PUSH2 0x3A3 JUMP JUMPDEST POP POP POP SWAP1 SUB SWAP1 JUMP JUMPDEST PUSH1 0x0 DUP1 PUSH1 0x40 DUP4 DUP6 SUB SLT ISZERO PUSH2 0x32F JUMPI DUP2 DUP3 REVERT JUMPDEST POP POP DUP1 CALLDATALOAD SWAP3 PUSH1 0x20 SWAP1 SWAP2 ADD CALLDATALOAD SWAP2 POP JUMP JUMPDEST PUSH1 0x0 DUP1 PUSH1 0x0 PUSH1 0x60 DUP5 DUP7 SUB SLT ISZERO PUSH2 0x352 JUMPI DUP1 DUP2 REVERT JUMPDEST POP POP DUP2 CALLDATALOAD SWAP4 PUSH1 0x20 DUP4 ADD CALLDATALOAD SWAP4 POP PUSH1 0x40 SWAP1 SWAP3 ADD CALLDATALOAD SWAP2 SWAP1 POP JUMP JUMPDEST PUSH1 0x0 DUP1 PUSH1 0x0 DUP1 PUSH1 0x0 PUSH1 0xA0 DUP7 DUP9 SUB SLT ISZERO PUSH2 0x380 JUMPI DUP1 DUP2 REVERT JUMPDEST POP POP DUP4 CALLDATALOAD SWAP6 PUSH1 0x20 DUP6 ADD CALLDATALOAD SWAP6 POP PUSH1 0x40 DUP6 ADD CALLDATALOAD SWAP5 PUSH1 0x60 DUP2 ADD CALLDATALOAD SWAP5 POP PUSH1 0x80 ADD CALLDATALOAD SWAP3 POP SWAP1 POP JUMP JUMPDEST PUSH1 0x0 PUSH1 0x20 DUP1 DUP4 MSTORE DUP4 MLOAD DUP1 DUP3 DUP6 ADD MSTORE DUP3 JUMPDEST DUP2 DUP2 LT ISZERO PUSH2 0x3CF JUMPI DUP6 DUP2 ADD DUP4 ADD MLOAD DUP6 DUP3 ADD PUSH1 0x40 ADD MSTORE DUP3 ADD PUSH2 0x3B3 JUMP JUMPDEST DUP2 DUP2 GT ISZERO PUSH2 0x3E0 JUMPI DUP4 PUSH1 0x40 DUP4 DUP8 ADD ADD MSTORE JUMPDEST POP PUSH1 0x1F ADD PUSH1 0x1F NOT AND SWAP3 SWAP1 SWAP3 ADD PUSH1 0x40 ADD SWAP4 SWAP3 POP POP POP JUMP JUMPDEST PUSH1 0x20 DUP1 DUP3 MSTORE PUSH1 0x21 SWAP1 DUP3 ADD MSTORE PUSH32 0x536166654D6174683A206D756C7469706C69636174696F6E206F766572666C6F PUSH1 0x40 DUP3 ADD MSTORE PUSH1 0x77 PUSH1 0xF8 SHL PUSH1 0x60 DUP3 ADD MSTORE PUSH1 0x80 ADD SWAP1 JUMP JUMPDEST SWAP1 DUP2 MSTORE PUSH1 0x20 ADD SWAP1 JUMP JUMPDEST SWAP2 DUP3 MSTORE PUSH1 0x20 DUP3 ADD MSTORE PUSH1 0x40 ADD SWAP1 JUMP INVALID LOG2 PUSH5 0x6970667358 0x22 SLT KECCAK256 MUL PUSH15 0xFCB4901158273D3416A04AC5189846 SWAP12 NOT SWAP7 PUSH12 0x787A136AFA53973F9B9AF164 PUSH20 0x6F6C634300060B00330000000000000000000000 "
		},
		"gasEstimates": {
			"creation": {
				"codeDepositCost": "231200",
				"executionCost": "300",
				"totalCost": "231500"
			},
			"external": {
				"calcMint1t1USE(uint256,uint256)": "infinite",
				"calcRecollateralizeUSEInner(uint256,uint256,uint256,uint256,uint256)": "infinite",
				"calcRedeem1t1USE(uint256,uint256)": "infinite",
				"recollateralizeAmount(uint256,uint256,uint256)": "infinite"
			},
			"internal": {
				"calcBuyBackShares(struct USEPoolLibrary.BuybackShares_Params memory)": "infinite",
				"calcMintFractionalUSE(struct USEPoolLibrary.MintFU_Params memory)": "infinite"
			}
		},
		"methodIdentifiers": {
			"calcMint1t1USE(uint256,uint256)": "e66a7fda",
			"calcRecollateralizeUSEInner(uint256,uint256,uint256,uint256,uint256)": "106e1a39",
			"calcRedeem1t1USE(uint256,uint256)": "20e6da17",
			"recollateralizeAmount(uint256,uint256,uint256)": "0ff24ec1"
		}
	},
	"abi": [
		{
			"inputs": [
				{
					"internalType": "uint256",
					"name": "col_price",
					"type": "uint256"
				},
				{
					"internalType": "uint256",
					"name": "collateral_amount_d18",
					"type": "uint256"
				}
			],
			"name": "calcMint1t1USE",
			"outputs": [
				{
					"internalType": "uint256",
					"name": "",
					"type": "uint256"
				}
			],
			"stateMutability": "pure",
			"type": "function"
		},
		{
			"inputs": [
				{
					"internalType": "uint256",
					"name": "collateral_amount",
					"type": "uint256"
				},
				{
					"internalType": "uint256",
					"name": "col_price",
					"type": "uint256"
				},
				{
					"internalType": "uint256",
					"name": "global_collat_value",
					"type": "uint256"
				},
				{
					"internalType": "uint256",
					"name": "frax_total_supply",
					"type": "uint256"
				},
				{
					"internalType": "uint256",
					"name": "global_collateral_ratio",
					"type": "uint256"
				}
			],
			"name": "calcRecollateralizeUSEInner",
			"outputs": [
				{
					"internalType": "uint256",
					"name": "",
					"type": "uint256"
				},
				{
					"internalType": "uint256",
					"name": "",
					"type": "uint256"
				}
			],
			"stateMutability": "pure",
			"type": "function"
		},
		{
			"inputs": [
				{
					"internalType": "uint256",
					"name": "col_price_usd",
					"type": "uint256"
				},
				{
					"internalType": "uint256",
					"name": "use_amount",
					"type": "uint256"
				}
			],
			"name": "calcRedeem1t1USE",
			"outputs": [
				{
					"internalType": "uint256",
					"name": "",
					"type": "uint256"
				}
			],
			"stateMutability": "pure",
			"type": "function"
		},
		{
			"inputs": [
				{
					"internalType": "uint256",
					"name": "total_supply",
					"type": "uint256"
				},
				{
					"internalType": "uint256",
					"name": "global_collateral_ratio",
					"type": "uint256"
				},
				{
					"internalType": "uint256",
					"name": "global_collat_value",
					"type": "uint256"
				}
			],
			"name": "recollateralizeAmount",
			"outputs": [
				{
					"internalType": "uint256",
					"name": "",
					"type": "uint256"
				}
			],
			"stateMutability": "pure",
			"type": "function"
		}
	]
}