{
	"data": {
		"bytecode": {
			"linkReferences": {},
			"object": "60a0604052620f4240600e556b204fce5e3e25026110000000601d556000601e55611d4c601f5560016020556022805464ffffffffff191690553480156200004657600080fd5b5060405162004f1738038062004f17833981016040819052620000699162000529565b600a80546001600160a01b03199081166001600160a01b03898116918217909355600980548316898516908117909155600680548416909217909155600780548316909117905560038054821687841690811790915560088054831686851617905560048054831687851617815560058054841686861617905560028054909316909117918290556040805163313ce56760e01b815290518a948a948a948a948a948a946200018c94169263313ce56792808201926020929091829003018186803b1580156200013857600080fd5b505afa1580156200014d573d6000803e3d6000fd5b505050506040513d601f19601f82011682018060405250810190620001739190620005af565b60ff166012620002b760201b6200373c1790919060201c565b608052620001b76000620001a86001600160e01b036200030a16565b6001600160e01b036200030e16565b620001ed604051620001c99062000679565b6040519081900390206008546001600160a01b03166001600160e01b036200032716565b620001ff604051620001c99062000637565b62000211604051620001c9906200060e565b62000223604051620001c990620005f4565b62000235604051620001c99062000650565b620002606040516200024790620005d9565b604051908190039020826001600160e01b036200032716565b5050505050506200027e6000801b620001a86200030a60201b60201c565b5050602280546001600160a01b039093166501000000000002600160281b600160c81b0319909316929092179091555062000735915050565b60006200030183836040518060400160405280601e81526020017f536166654d6174683a207375627472616374696f6e206f766572666c6f7700008152506200038860201b60201c565b90505b92915050565b3390565b6200032382826001600160e01b03620003b716565b5050565b6000828152600160205260409020600201546200036090620003516001600160e01b036200030a16565b6001600160e01b036200043b16565b6200030e5760405162461bcd60e51b81526004016200037f90620006e6565b60405180910390fd5b60008184841115620003af5760405162461bcd60e51b81526004016200037f919062000690565b505050900390565b6000828152600160209081526040909120620003de9183906200377e62000461821b17901c565b156200032357620003f76001600160e01b036200030a16565b6001600160a01b0316816001600160a01b0316837f2f8788117e7eff1d82e926ec794901d17c78024a50270940304540a733656f0d60405160405180910390a45050565b60008281526001602090815260408220620003019184906200379362000481821b17901c565b600062000301836001600160a01b0384166001600160e01b03620004a116565b600062000301836001600160a01b0384166001600160e01b03620004f916565b6000620004b883836001600160e01b03620004f916565b620004f05750815460018181018455600084815260208082209093018490558454848252828601909352604090209190915562000304565b50600062000304565b60009081526001919091016020526040902054151590565b80516001600160a01b03811681146200030457600080fd5b60008060008060008060c0878903121562000542578182fd5b6200054e888862000511565b95506200055f886020890162000511565b945062000570886040890162000511565b935062000581886060890162000511565b925062000592886080890162000511565b9150620005a38860a0890162000511565b90509295509295509295565b600060208284031215620005c1578081fd5b815160ff81168114620005d2578182fd5b9392505050565b6e21a7a6a6aaa724aa2cafa920aa22a960891b8152600f0190565b6d212aaca120a1a5afa820aaa9a2a960911b8152600e0190565b7f5245434f4c4c41544552414c495a455f50415553455200000000000000000000815260160190565b6c2922a222a2a6afa820aaa9a2a960991b8152600d0190565b7f434f4c4c41544552414c5f50524943455f504155534552000000000000000000815260170190565b6a26a4a72a2fa820aaa9a2a960a91b8152600b0190565b6000602080835283518082850152825b81811015620006be57858101830151858201604001528201620006a0565b81811115620006d05783604083870101525b50601f01601f1916929092016040019392505050565b6020808252602f908201527f416363657373436f6e74726f6c3a2073656e646572206d75737420626520616e60408201526e0818591b5a5b881d1bc819dc985b9d608a1b606082015260800190565b60805161479a6200077d60003980610b16528061134652806116bd5280611a5f5280611b5d52806121a4528061250e5280612af25280612d135280612fe0525061479a6000f3fe608060405234801561001057600080fd5b50600436106105245760003560e01c80636ad3531f116102af578063abae2c4c11610172578063d547741f116100d9578063e66a7fda11610092578063e66a7fda1461098b578063ece38e2d1461099e578063f61adab2146109a6578063f7683bbc146109ae578063fa2febe2146109b6578063fa4dfa3a146109be57610524565b8063d547741f14610958578063d5eecae91461096b578063daa5048514610973578063dc6663c71461097b578063dc9b60f314610983578063dd89fe0a1461074357610524565b8063c0bbd8841161012b578063c0bbd88414610925578063c31587b81461092d578063c74ec56a14610935578063ca15c8731461093d578063d07ac67e14610743578063d30016cb1461095057610524565b8063abae2c4c146108c9578063abb5bb1e146108dc578063aec25ce7146108ef578063b235d46814610902578063b929e2de1461090a578063bdacb3031461091257610524565b80638ac75d6a11610216578063a2248a8f116101cf578063a2248a8f14610896578063a49c9166146108a9578063a57381ea146108b1578063a7466afd146108b9578063aaf5eb6814610743578063ab80926d146108c157610524565b80638ac75d6a1461084d5780638d2ac7a4146108605780639010d07c1461086857806391d148541461087b57806395082d2514610743578063a217fddf1461088e57610524565b80637d55094d116102685780637d55094d146108075780637ded8ea01461080f5780637e4831d3146108225780637f877f851461082a57806380edef8e1461083257806386994bc01461083a57610524565b80636ad3531f146107bf5780636d2c5615146107c75780636dfa7e2b146107dc578063736b2d61146107e45780637ad1f61b146107ec5780637b0461e9146107ff57610524565b806326fc803f116103f757806342d15aec1161035e5780635bf2930f116103175780635bf2930f1461076e5780635fc2477e146107815780636090cd50146107945780636481cac61461079c5780636526a12a146107a45780636a66bf83146107ac57610524565b806342d15aec146107335780634c6349341461073b5780634ee3274e1461074357806350c9ecd91461074b57806351161b2f146107535780635134d99c1461075b57610524565b8063315deeaa116103b0578063315deeaa146106e257806336568abe146106ea57806338423a09146106fd5780633a26a91b146107105780633b837521146107185780633ed4e55c1461072b57610524565b806326fc803f146106a75780632780130d146106af57806329323fb1146106b757806329be843a146106bf5780632f2ff15d146106c75780632fb5e86d146106da57610524565b8063168313b31161049b5780631fb0c41d116104545780631fb0c41d1461063c578063202ea1991461064457806320e6da17146106665780632223f14914610679578063248a9ca31461068c5780632621db2f1461069f57610524565b8063168313b3146105f457806317284c9414610609578063172a7b061461061157806317eae98c146106195780631a286ad71461062c5780631eaa0e171461063457610524565b8063106e1a39116104ed578063106e1a391461059557806312ace5a2146105b657806313af4035146105be57806315128425146105d157806315f05352146105d95780631636e804146105ec57610524565b8062972dc61461052957806306ed0a1d1461053e57806308a7493d146105515780630d904ddd1461057a5780630ff24ec114610582575b600080fd5b61053c610537366004613c6e565b6109c6565b005b61053c61054c366004613c27565b610d36565b61056461055f366004613bc0565b610e1d565b6040516105719190613f20565b60405180910390f35b610564610e2f565b610564610590366004613d5b565b610e46565b6105a86105a3366004613d86565b610e7b565b604051610571929190614701565b61053c610f27565b61053c6105cc366004613bc0565b6111a8565b610564611209565b61053c6105e7366004613d5b565b61120f565b61056461125c565b6105fc611268565b6040516105719190613eb2565b610564611277565b610564611387565b61053c610627366004613dc0565b611393565b6105fc6113ef565b6105fc6113fe565b61056461140d565b610657610652366004613cf2565b611413565b6040516105719392919061470f565b610564610674366004613c6e565b6114e4565b610657610687366004613cf2565b611506565b61056461069a366004613c27565b61155b565b6105fc611570565b61056461157f565b6105fc611585565b610564611594565b6105646115a0565b61053c6106d5366004613c3f565b6115a6565b6105646115ee565b6105646115f4565b61053c6106f8366004613c3f565b611635565b61056461070b366004613bc0565b611677565b610564611689565b610564610726366004613d5b565b611695565b6105646116bb565b61053c6116df565b610564611716565b61056461171c565b61053c611723565b61056461175c565b610564610769366004613cab565b611762565b61053c61077c366004613bdc565b6117ea565b61053c61078f366004613d5b565b61184f565b610564611d20565b610564611d26565b610564611d2c565b6106576107ba366004613cf2565b611d32565b610564611deb565b6107cf611df7565b6040516105719190613f03565b610564611e06565b610564611e29565b61053c6107fa366004613c27565b611e2f565b610564611e8d565b61053c611e93565b61053c61081d366004613d86565b611ebf565b6107cf611f15565b6107cf611f1e565b6105fc611f2e565b61053c610848366004613d5b565b611f3d565b61053c61085b366004613c6e565b61245a565b6107cf612782565b6105fc610876366004613c6e565b612793565b6107cf610889366004613c3f565b6127b1565b6105646127cf565b61053c6108a4366004613c27565b6127d4565b610564612948565b61056461294e565b610564612954565b610564612a21565b6105646108d7366004613bc0565b612a4f565b61053c6108ea366004613c6e565b612a61565b61053c6108fd366004613c6e565b612e75565b6107cf61317b565b610564613189565b61053c610920366004613bc0565b61318f565b61053c6131f0565b6107cf613442565b610564613456565b61056461094b366004613c27565b61345c565b610564613473565b61053c610966366004613c3f565b613479565b6107cf6134b3565b61053c6134c0565b6105fc6134f5565b610564613504565b610564610999366004613c6e565b61350a565b610564613523565b610564613529565b6105646136f0565b61056461371e565b6105fc613724565b6109ce6137a8565b156109f45760405162461bcd60e51b81526004016109eb906145a8565b60405180910390fd5b6109fc6137c7565b15610a195760405162461bcd60e51b81526004016109eb906145a8565b602254610100900460ff1615610a415760405162461bcd60e51b81526004016109eb9061420a565b610a49613442565b1515600114610a6a5760405162461bcd60e51b81526004016109eb906144df565b610a726131f0565b600a5460408051632eb9771b60e01b81529051620f4240926001600160a01b031691632eb9771b916004808301926020929190829003018186803b158015610ab957600080fd5b505afa158015610acd573d6000803e3d6000fd5b505050506040513d601f19601f82011682018060405250810190610af19190613d43565b14610b0e5760405162461bcd60e51b81526004016109eb9061447d565b6000610b43837f0000000000000000000000000000000000000000000000000000000000000000600a0a63ffffffff6137e616565b90506000610b58610b526136f0565b836114e4565b9050610b94610b85620f4240610b796015548861382890919063ffffffff16565b9063ffffffff6137e616565b6016549063ffffffff61386216565b601655610bc9620f4240610b79610bbc610bac611e06565b620f42409063ffffffff61373c16565b849063ffffffff61382816565b9050610bd36115f4565b811115610bf25760405162461bcd60e51b81526004016109eb90614650565b80831115610c125760405162461bcd60e51b81526004016109eb9061450c565b33600090815260196020526040902054610c32908263ffffffff61386216565b33600090815260196020526040902055601a54610c55908263ffffffff61386216565b601a55336000818152601c602052604090819020439055600a549051635453bc5760e11b81526001600160a01b039091169163a8a778ae91610c9c91908890600401613eea565b600060405180830381600087803b158015610cb657600080fd5b505af1158015610cca573d6000803e3d6000fd5b50505050610cd6613442565b1515600114610cf75760405162461bcd60e51b81526004016109eb90614619565b5050436000908152602081815260408083203284529091528082208054600160ff19918216811790925533845291909220805490911690911790555050565b600060175411610d585760405162461bcd60e51b81526004016109eb90614456565b610d75604051610d6790613e02565b6040518091039020336127b1565b610d7e57600080fd5b6000610d9c620f4240610b798460175461382890919063ffffffff16565b601754909150610db2908263ffffffff61373c16565b601755600954604051635a7ab59360e11b81526001600160a01b039091169063b4f56b2690610de79033908590600401613eea565b600060405180830381600087803b158015610e0157600080fd5b505af1158015610e15573d6000803e3d6000fd5b505050505050565b60196020526000908152604090205481565b604051610e3b90613e1d565b604051809103902081565b600080610e60620f4240610b79878763ffffffff61382816565b9050610e72818463ffffffff61373c16565b95945050505050565b60008080610e96620f4240610b798a8a63ffffffff61382816565b90506000610eb186610b7989620f424063ffffffff61382816565b90506000610eeb620f4240610b79610ecf8a8663ffffffff61382816565b610edf8a8c63ffffffff61382816565b9063ffffffff61373c16565b90506000818411610efd575082610f00565b50805b610f178a610b7983620f424063ffffffff61382816565b9b909a5098505050505050505050565b610f2f6137a8565b15610f4c5760405162461bcd60e51b81526004016109eb906145a8565b610f546137c7565b15610f715760405162461bcd60e51b81526004016109eb906145a8565b60208054336000908152601c9092526040909120544391610f98919063ffffffff61386216565b1115610fb65760405162461bcd60e51b81526004016109eb906141a2565b3360009081526018602052604081205481908190819015611003573360009081526018602052604081208054919055601b54909250610ffb908363ffffffff61373c16565b601b55600193505b336000908152601960205260409020541561104857503360009081526019602052604081208054919055601a54611040908263ffffffff61373c16565b601a55600192505b600184151514156110d95760095460405163a9059cbb60e01b81526001600160a01b039091169063a9059cbb906110859033908690600401613eea565b602060405180830381600087803b15801561109f57600080fd5b505af11580156110b3573d6000803e3d6000fd5b505050506040513d601f19601f820116820180604052508101906110d79190613c07565b505b60018315151415610cf75760025460405163a9059cbb60e01b81526001600160a01b039091169063a9059cbb906111169033908590600401613eea565b602060405180830381600087803b15801561113057600080fd5b505af1158015611144573d6000803e3d6000fd5b505050506040513d601f19601f820116820180604052508101906111689190613c07565b505050436000908152602081815260408083203284529091528082208054600160ff19918216811790925533845291909220805490911690911790555050565b6008546001600160a01b03163314806111cb57506004546001600160a01b031633145b6111e75760405162461bcd60e51b81526004016109eb906142c8565b600480546001600160a01b0319166001600160a01b0392909216919091179055565b60205481565b6008546001600160a01b031633148061123257506004546001600160a01b031633145b61124e5760405162461bcd60e51b81526004016109eb906142c8565b600d92909255600b55600c55565b604051610e3b90613e72565b6006546001600160a01b031681565b601a546002546040516370a0823160e01b81526000928392611303926001600160a01b03909116906370a08231906112b3903090600401613eb2565b60206040518083038186803b1580156112cb57600080fd5b505afa1580156112df573d6000803e3d6000fd5b505050506040513d601f19601f82011682018060405250810190610edf9190613d43565b90506000602260049054906101000a900460ff161515600115151461132f5761132a6136f0565b611333565b601e545b905061137f620f4240610b7983611373867f0000000000000000000000000000000000000000000000000000000000000000600a0a63ffffffff61382816565b9063ffffffff61382816565b925050505b90565b604051610e3b90613e9b565b6008546001600160a01b03163314806113b657506004546001600160a01b031633145b6113d25760405162461bcd60e51b81526004016109eb906142c8565b601d95909555601f93909355602091909155601355601455602155565b6005546001600160a01b031681565b6003546001600160a01b031681565b60115481565b600080600080600061143d620f4240610b798860000151896040015161382890919063ffffffff16565b9150611461620f4240610b798860200151896060015161382890919063ffffffff16565b905060006114986114828860800151620f424061373c90919063ffffffff16565b6080890151610b7990869063ffffffff61382816565b905060006114ba8860200151610b79620f42408561382890919063ffffffff16565b90506114cc848363ffffffff61386216565b818960400151965096509650505050505b9193909250565b60006114fd83610b7984620f424063ffffffff61382816565b90505b92915050565b60008060008060008061151887611d32565b925092509250600080600061152c8a611413565b9250925092508286111561154a57919750955093506114dd92505050565b5093965091945092506114dd915050565b60009081526001602052604090206002015490565b6002546001600160a01b031681565b60125481565b6007546001600160a01b031681565b604051610e3b90613e02565b600d5481565b6000828152600160205260409020600201546115c490610889613887565b6115e05760405162461bcd60e51b81526004016109eb90613fbe565b6115ea828261388b565b5050565b600f5481565b601a546002546040516370a0823160e01b81526000926116309290916001600160a01b03909116906370a08231906112b3903090600401613eb2565b905090565b61163d613887565b6001600160a01b0316816001600160a01b03161461166d5760405162461bcd60e51b81526004016109eb90614687565b6115ea82826138fa565b60186020526000908152604090205481565b604051610e3b90613e59565b60006116b382850a610b7985620f424086900a63ffffffff61382816565b949350505050565b7f000000000000000000000000000000000000000000000000000000000000000081565b6116ee604051610d6790613e37565b6116f757600080fd5b6022805462ff0000198116620100009182900460ff1615909102179055565b601f5481565b620f424081565b611732604051610d6790613e1d565b61173b57600080fd5b6022805463ff00000019811663010000009182900460ff1615909102179055565b600c5481565b80516000906117835760405162461bcd60e51b81526004016109eb90614237565b60006117a7620f4240610b798560200151866060015161382890919063ffffffff16565b83519091508111156117cb5760405162461bcd60e51b81526004016109eb9061400d565b60408301516000906116b390610b7984620f424063ffffffff61382816565b6008546001600160a01b031633148061180d57506004546001600160a01b031633145b6118295760405162461bcd60e51b81526004016109eb906142c8565b600580546001600160a01b0319166001600160a01b039390931692909217909155601555565b6118576137a8565b156118745760405162461bcd60e51b81526004016109eb906145a8565b61187c6137c7565b156118995760405162461bcd60e51b81526004016109eb906145a8565b60225460ff16156118bc5760405162461bcd60e51b81526004016109eb906144b4565b6118c46134b3565b15156001146118e55760405162461bcd60e51b81526004016109eb906145ee565b6118ed6131f0565b600a546040805163b5955e9d60e01b815290516000926001600160a01b03169163b5955e9d916004808301926020929190829003018186803b15801561193257600080fd5b505afa158015611946573d6000803e3d6000fd5b505050506040513d601f19601f8201168201806040525081019061196a9190613d43565b90506000600a60009054906101000a90046001600160a01b03166001600160a01b0316632eb9771b6040518163ffffffff1660e01b815260040160206040518083038186803b1580156119bc57600080fd5b505afa1580156119d0573d6000803e3d6000fd5b505050506040513d601f19601f820116820180604052508101906119f49190613d43565b9050620f424081108015611a085750600081115b611a245760405162461bcd60e51b81526004016109eb906140cb565b601d54611a3f86611a336115f4565b9063ffffffff61386216565b1115611a5d5760405162461bcd60e51b81526004016109eb906143b5565b7f0000000000000000000000000000000000000000000000000000000000000000600a0a8502611a8b613b69565b6040518060a00160405280858152602001611aa46136f0565b81526020018781526020018381526020018481525090506000806000611ac984611506565b925092509250611aee610b85620f4240610b796015548761382890919063ffffffff16565b601655611b13620f4240610b79611b06610bac612a21565b869063ffffffff61382816565b925082881115611b355760405162461bcd60e51b81526004016109eb9061450c565b88811115611b555760405162461bcd60e51b81526004016109eb9061441f565b6000611b8a837f0000000000000000000000000000000000000000000000000000000000000000600a0a63ffffffff6137e616565b600954604051635453bc5760e11b81529192506001600160a01b03169063a8a778ae90611bbd9033908690600401613eea565b600060405180830381600087803b158015611bd757600080fd5b505af1158015611beb573d6000803e3d6000fd5b50506002546040516323b872dd60e01b81526001600160a01b0390911692506323b872dd9150611c2390339030908690600401613ec6565b602060405180830381600087803b158015611c3d57600080fd5b505af1158015611c51573d6000803e3d6000fd5b505050506040513d601f19601f82011682018060405250810190611c759190613c07565b50600a54604051635a7ab59360e11b81526001600160a01b039091169063b4f56b2690611ca89033908890600401613eea565b600060405180830381600087803b158015611cc257600080fd5b505af1158015611cd6573d6000803e3d6000fd5b5050436000908152602081815260408083203284529091528082208054600160ff199182168117909255338452919092208054909116909117905550505050505050505050505050565b601b5481565b60105481565b601d5481565b6000806000806000611d5c620f4240610b798860000151896040015161382890919063ffffffff16565b9150611d80620f4240610b798860200151896060015161382890919063ffffffff16565b90506000611da682610edf8960800151610b79620f42408761382890919063ffffffff16565b8751909150600090611dc590610b7984620f424063ffffffff61382816565b9050611dd7838363ffffffff61386216565b606098909801519798909650945050505050565b604051610e3b90613e37565b60225462010000900460ff1681565b600080611e1f611e14612954565b601054601154611695565b600f540191505090565b60145481565b611e3e604051610d6790613e72565b611e4757600080fd5b602254640100000000900460ff16611e6357601e819055611e69565b6000601e555b506022805464ff000000001981166401000000009182900460ff1615909102179055565b601a5481565b611ea2604051610d6790613e9b565b611eab57600080fd5b6022805460ff19811660ff90911615179055565b6008546001600160a01b0316331480611ee257506004546001600160a01b031633145b611efe5760405162461bcd60e51b81526004016109eb906142c8565b601294909455600f92909255601055601155600e55565b60225460ff1681565b6022546301000000900460ff1681565b6004546001600160a01b031681565b611f456137a8565b15611f625760405162461bcd60e51b81526004016109eb906145a8565b611f6a6137c7565b15611f875760405162461bcd60e51b81526004016109eb906145a8565b602254610100900460ff1615611faf5760405162461bcd60e51b81526004016109eb9061420a565b611fb7613442565b1515600114611fd85760405162461bcd60e51b81526004016109eb906144df565b611fe06131f0565b600a5460408051632eb9771b60e01b815290516000926001600160a01b031691632eb9771b916004808301926020929190829003018186803b15801561202557600080fd5b505afa158015612039573d6000803e3d6000fd5b505050506040513d601f19601f8201168201806040525081019061205d9190613d43565b9050620f4240811080156120715750600081115b61208d5760405162461bcd60e51b81526004016109eb906140cb565b6120a9620f4240610b79600e548461382890919063ffffffff16565b905060006120cf620f4240610b796120c2610bac611e06565b889063ffffffff61382816565b905060006120fa6120ed620f4240610b79858763ffffffff61382816565b839063ffffffff61373c16565b9050600061219a600a60009054906101000a90046001600160a01b03166001600160a01b031663b5955e9d6040518163ffffffff1660e01b815260040160206040518083038186803b15801561214f57600080fd5b505afa158015612163573d6000803e3d6000fd5b505050506040513d601f19601f820116820180604052508101906121879190613d43565b610b7984620f424063ffffffff61382816565b905060006121d1847f0000000000000000000000000000000000000000000000000000000000000000600a0a63ffffffff6137e616565b905060006121ec620f4240610b79848963ffffffff61382816565b905060006121fb6121876136f0565b90506122056115f4565b8111156122245760405162461bcd60e51b81526004016109eb90614650565b808811156122445760405162461bcd60e51b81526004016109eb90614128565b838911156122645760405162461bcd60e51b81526004016109eb9061437e565b612283610b85620f4240610b796015548e61382890919063ffffffff16565b601655336000908152601960205260409020546122a6908263ffffffff61386216565b33600090815260196020526040902055601a546122c9908263ffffffff61386216565b601a55336000908152601860205260409020546122ec908563ffffffff61386216565b33600090815260186020526040902055601b5461230f908563ffffffff61386216565b601b55336000818152601c602052604090819020439055600a549051635453bc5760e11b81526001600160a01b039091169163a8a778ae9161235691908e90600401613eea565b600060405180830381600087803b15801561237057600080fd5b505af1158015612384573d6000803e3d6000fd5b5050600954604051635a7ab59360e11b81526001600160a01b03909116925063b4f56b2691506123ba9030908890600401613eea565b600060405180830381600087803b1580156123d457600080fd5b505af11580156123e8573d6000803e3d6000fd5b505050506123f4613442565b15156001146124155760405162461bcd60e51b81526004016109eb90614619565b5050436000908152602081815260408083203284529091528082208054600160ff19918216811790925533845291909220805490911690911790555050505050505050565b6124626137a8565b1561247f5760405162461bcd60e51b81526004016109eb906145a8565b6124876137c7565b156124a45760405162461bcd60e51b81526004016109eb906145a8565b60225460ff16156124c75760405162461bcd60e51b81526004016109eb906144b4565b6124cf6134b3565b15156001146124f05760405162461bcd60e51b81526004016109eb906145ee565b6124f86131f0565b600a805460408051632eb9771b60e01b815290517f000000000000000000000000000000000000000000000000000000000000000090930a850292620f4240926001600160a01b031691632eb9771b916004808301926020929190829003018186803b15801561256757600080fd5b505afa15801561257b573d6000803e3d6000fd5b505050506040513d601f19601f8201168201806040525081019061259f9190613d43565b10156125bd5760405162461bcd60e51b81526004016109eb9061405d565b601d546125cc84611a336115f4565b11156125ea5760405162461bcd60e51b81526004016109eb9061453c565b60006125fd6125f76136f0565b8361350a565b905061261e610b85620f4240610b796015548561382890919063ffffffff16565b601655612636620f4240610b79610bbc610bac612a21565b9050808311156126585760405162461bcd60e51b81526004016109eb9061450c565b6002546040516323b872dd60e01b81526001600160a01b03909116906323b872dd9061268c90339030908990600401613ec6565b602060405180830381600087803b1580156126a657600080fd5b505af11580156126ba573d6000803e3d6000fd5b505050506040513d601f19601f820116820180604052508101906126de9190613c07565b50600a54604051635a7ab59360e11b81526001600160a01b039091169063b4f56b26906127119033908590600401613eea565b600060405180830381600087803b15801561272b57600080fd5b505af115801561273f573d6000803e3d6000fd5b5050436000908152602081815260408083203284529091528082208054600160ff1991821681179092553384529190922080549091169091179055505050505050565b602254640100000000900460ff1681565b60008281526001602052604081206114fd908363ffffffff61396916565b60008281526001602052604081206114fd908363ffffffff61379316565b600081565b6000601654116127f65760405162461bcd60e51b81526004016109eb90614318565b612805604051610d6790613e02565b61280e57600080fd5b600061282c620f4240610b798460165461382890919063ffffffff16565b601654909150612842908263ffffffff61373c16565b601655600a5460408051632babf6e760e21b815290516000926001600160a01b03169163aeafdb9c916004808301926020929190829003018186803b15801561288a57600080fd5b505afa15801561289e573d6000803e3d6000fd5b505050506040513d601f19601f820116820180604052508101906128c29190613d43565b905060006128dd82610b7985620f424063ffffffff61382816565b600954604051635a7ab59360e11b81529192506001600160a01b03169063b4f56b26906129109033908590600401613eea565b600060405180830381600087803b15801561292a57600080fd5b505af115801561293e573d6000803e3d6000fd5b5050505050505050565b60215481565b60155481565b60008061295f6115f4565b90506000600a60009054906101000a90046001600160a01b03166001600160a01b03166278f4c76040518163ffffffff1660e01b815260040160206040518083038186803b1580156129b057600080fd5b505afa1580156129c4573d6000803e3d6000fd5b505050506040513d601f19601f820116820180604052508101906129e89190613d43565b905060008111612a0a5760405162461bcd60e51b81526004016109eb9061416b565b61137f81610b7984620f424063ffffffff61382816565b600080612a45620f4240610b79612a36612954565b600c549063ffffffff61382816565b600b540191505090565b601c6020526000908152604090205481565b612a696137a8565b15612a865760405162461bcd60e51b81526004016109eb906145a8565b612a8e6137c7565b15612aab5760405162461bcd60e51b81526004016109eb906145a8565b60225462010000900460ff1615612ad45760405162461bcd60e51b81526004016109eb90614571565b612adc6131f0565b600a80546040805163b5955e9d60e01b815290517f000000000000000000000000000000000000000000000000000000000000000090930a8502926000926001600160a01b03169163b5955e9d916004808301926020929190829003018186803b158015612b4957600080fd5b505afa158015612b5d573d6000803e3d6000fd5b505050506040513d601f19601f82011682018060405250810190612b819190613d43565b90506000612bd9602154600a60009054906101000a90046001600160a01b03166001600160a01b03166318160ddd6040518163ffffffff1660e01b815260040160206040518083038186803b1580156112cb57600080fd5b90506000600a60009054906101000a90046001600160a01b03166001600160a01b0316632eb9771b6040518163ffffffff1660e01b815260040160206040518083038186803b158015612c2b57600080fd5b505afa158015612c3f573d6000803e3d6000fd5b505050506040513d601f19601f82011682018060405250810190612c639190613d43565b90506000600a60009054906101000a90046001600160a01b03166001600160a01b031663d2d97b066040518163ffffffff1660e01b815260040160206040518083038186803b158015612cb557600080fd5b505afa158015612cc9573d6000803e3d6000fd5b505050506040513d601f19601f82011682018060405250810190612ced9190613d43565b9050600080612d0687612cfe6136f0565b858888610e7b565b90925090506000612d40837f0000000000000000000000000000000000000000000000000000000000000000600a0a63ffffffff6137e616565b90506000612d6988610b79611b06601454610edf601f54620f424061386290919063ffffffff16565b9050808a1115612d8b5760405162461bcd60e51b81526004016109eb9061450c565b612db9612daa620f4240610b796015548561382890919063ffffffff16565b6017549063ffffffff61386216565b6017556002546040516323b872dd60e01b81526001600160a01b03909116906323b872dd90612df090339030908790600401613ec6565b602060405180830381600087803b158015612e0a57600080fd5b505af1158015612e1e573d6000803e3d6000fd5b505050506040513d601f19601f82011682018060405250810190612e429190613c07565b50600954604051635a7ab59360e11b81526001600160a01b039091169063b4f56b2690611ca89033908590600401613eea565b612e7d6137a8565b15612e9a5760405162461bcd60e51b81526004016109eb906145a8565b612ea26137c7565b15612ebf5760405162461bcd60e51b81526004016109eb906145a8565b6022546301000000900460ff1615612ee95760405162461bcd60e51b81526004016109eb906146d6565b612ef16131f0565b600a546040805163b5955e9d60e01b815290516000926001600160a01b03169163b5955e9d916004808301926020929190829003018186803b158015612f3657600080fd5b505afa158015612f4a573d6000803e3d6000fd5b505050506040513d601f19601f82011682018060405250810190612f6e9190613d43565b9050612f78613b98565b6040518060800160405280612f8b613529565b8152602001838152602001612f9e6136f0565b81526020018581525090506000612fd6620f4240610b79612fcd601354620f424061373c90919063ffffffff16565b61137386611762565b9050600061300d827f0000000000000000000000000000000000000000000000000000000000000000600a0a63ffffffff6137e616565b90508085111561302f5760405162461bcd60e51b81526004016109eb9061450c565b61304e612daa620f4240610b796015548a61382890919063ffffffff16565b601755600954604051635453bc5760e11b81526001600160a01b039091169063a8a778ae906130839033908a90600401613eea565b600060405180830381600087803b15801561309d57600080fd5b505af11580156130b1573d6000803e3d6000fd5b505060025460405163a9059cbb60e01b81526001600160a01b03909116925063a9059cbb91506130e79033908590600401613eea565b602060405180830381600087803b15801561310157600080fd5b505af1158015613115573d6000803e3d6000fd5b505050506040513d601f19601f820116820180604052508101906131399190613c07565b5050436000908152602081815260408083203284529091528082208054600160ff19918216811790925533845291909220805490911690911790555050505050565b602254610100900460ff1681565b600e5481565b6008546001600160a01b03163314806131b257506004546001600160a01b031633145b6131ce5760405162461bcd60e51b81526004016109eb906142c8565b600880546001600160a01b0319166001600160a01b0392909216919091179055565b600a5460408051637387f41b60e01b815290516000926001600160a01b031691637387f41b91600480830192602092919082900301818787803b15801561323657600080fd5b505af115801561324a573d6000803e3d6000fd5b505050506040513d601f19601f8201168201806040525081019061326e9190613c8f565b90506000600a60009054906101000a90046001600160a01b03166001600160a01b031663e26e6ce26040518163ffffffff1660e01b8152600401602060405180830381600087803b1580156132c257600080fd5b505af11580156132d6573d6000803e3d6000fd5b505050506040513d601f19601f820116820180604052508101906132fa9190613c8f565b90506000826001600160a01b031663a2e620456040518163ffffffff1660e01b8152600401602060405180830381600087803b15801561333957600080fd5b505af115801561334d573d6000803e3d6000fd5b505050506040513d601f19601f820116820180604052508101906133719190613c07565b90506000826001600160a01b031663a2e620456040518163ffffffff1660e01b8152600401602060405180830381600087803b1580156133b057600080fd5b505af11580156133c4573d6000803e3d6000fd5b505050506040513d601f19601f820116820180604052508101906133e89190613c07565b905081806133f35750805b1561343c57336001600160a01b03167f29af9298d72181c407044912a3fd1289d6626c86eb5dda1d036424b013da797d8383604051613433929190613f0e565b60405180910390a25b50505050565b600060125461344f612954565b1015905090565b601e5481565b600081815260016020526040812061150090613975565b600b5481565b60008281526001602052604090206002015461349790610889613887565b61166d5760405162461bcd60e51b81526004016109eb90614278565b6000600d5461344f612954565b6134cf604051610d6790613e59565b6134d857600080fd5b6022805461ff001981166101009182900460ff1615909102179055565b6008546001600160a01b031681565b60165481565b60006114fd620f4240610b79848663ffffffff61382816565b60135481565b600080613580602154600a60009054906101000a90046001600160a01b03166001600160a01b03166318160ddd6040518163ffffffff1660e01b815260040160206040518083038186803b1580156112cb57600080fd5b90506000600a60009054906101000a90046001600160a01b03166001600160a01b031663d2d97b066040518163ffffffff1660e01b815260040160206040518083038186803b1580156135d257600080fd5b505afa1580156135e6573d6000803e3d6000fd5b505050506040513d601f19601f8201168201806040525081019061360a9190613d43565b90506000600a60009054906101000a90046001600160a01b03166001600160a01b0316632eb9771b6040518163ffffffff1660e01b815260040160206040518083038186803b15801561365c57600080fd5b505afa158015613670573d6000803e3d6000fd5b505050506040513d601f19601f820116820180604052508101906136949190613d43565b9050620f42408111156136a75750620f42405b60006136c0620f4240610b79868563ffffffff61382816565b9050808311156136e5576136da838263ffffffff61373c16565b945050505050611384565b600094505050505090565b602254600090640100000000900460ff161515600114156137145750601e54611384565b50620f4240611384565b60175481565b6022546501000000000090046001600160a01b031681565b60006114fd83836040518060400160405280601e81526020017f536166654d6174683a207375627472616374696f6e206f766572666c6f770000815250613980565b60006114fd836001600160a01b0384166139ac565b60006114fd836001600160a01b0384166139f6565b4360009081526020818152604080832032845290915290205460ff1690565b4360009081526020818152604080832033845290915290205460ff1690565b60006114fd83836040518060400160405280601a81526020017f536166654d6174683a206469766973696f6e206279207a65726f000000000000815250613a0e565b60008261383757506000611500565b8282028284828161384457fe5b04146114fd5760405162461bcd60e51b81526004016109eb9061433d565b6000828201838110156114fd5760405162461bcd60e51b81526004016109eb90614094565b3390565b60008281526001602052604090206138a9908263ffffffff61377e16565b156115ea576138b6613887565b6001600160a01b0316816001600160a01b0316837f2f8788117e7eff1d82e926ec794901d17c78024a50270940304540a733656f0d60405160405180910390a45050565b6000828152600160205260409020613918908263ffffffff613a4516565b156115ea57613925613887565b6001600160a01b0316816001600160a01b0316837ff6391f5c32d9c69d2a47ea670b442974b53935d1edc7fd64eb21e047a839171b60405160405180910390a45050565b60006114fd8383613a5a565b600061150082613a9f565b600081848411156139a45760405162461bcd60e51b81526004016109eb9190613f29565b505050900390565b60006139b883836139f6565b6139ee57508154600181810184556000848152602080822090930184905584548482528286019093526040902091909155611500565b506000611500565b60009081526001919091016020526040902054151590565b60008183613a2f5760405162461bcd60e51b81526004016109eb9190613f29565b506000838581613a3b57fe5b0495945050505050565b60006114fd836001600160a01b038416613aa3565b81546000908210613a7d5760405162461bcd60e51b81526004016109eb90613f7c565b826000018281548110613a8c57fe5b9060005260206000200154905092915050565b5490565b60008181526001830160205260408120548015613b5f5783546000198083019190810190600090879083908110613ad657fe5b9060005260206000200154905080876000018481548110613af357fe5b600091825260208083209091019290925582815260018981019092526040902090840190558654879080613b2357fe5b60019003818190600052602060002001600090559055866001016000878152602001908152602001600020600090556001945050505050611500565b6000915050611500565b6040518060a0016040528060008152602001600081526020016000815260200160008152602001600081525090565b6040518060800160405280600081526020016000815260200160008152602001600081525090565b600060208284031215613bd1578081fd5b81356114fd8161474c565b60008060408385031215613bee578081fd5b8235613bf98161474c565b946020939093013593505050565b600060208284031215613c18578081fd5b815180151581146114fd578182fd5b600060208284031215613c38578081fd5b5035919050565b60008060408385031215613c51578182fd5b823591506020830135613c638161474c565b809150509250929050565b60008060408385031215613c80578182fd5b50508035926020909101359150565b600060208284031215613ca0578081fd5b81516114fd8161474c565b600060808284031215613cbc578081fd5b613cc66080614725565b823581526020830135602082015260408301356040820152606083013560608201528091505092915050565b600060a08284031215613d03578081fd5b613d0d60a0614725565b82358152602083013560208201526040830135604082015260608301356060820152608083013560808201528091505092915050565b600060208284031215613d54578081fd5b5051919050565b600080600060608486031215613d6f578081fd5b505081359360208301359350604090920135919050565b600080600080600060a08688031215613d9d578081fd5b505083359560208501359550604085013594606081013594506080013592509050565b60008060008060008060c08789031215613dd8578384fd5b505084359660208601359650604086013595606081013595506080810135945060a0013592509050565b6e21a7a6a6aaa724aa2cafa920aa22a960891b8152600f0190565b6d212aaca120a1a5afa820aaa9a2a960911b8152600e0190565b752922a1a7a62620aa22a920a624ad22afa820aaa9a2a960511b815260160190565b6c2922a222a2a6afa820aaa9a2a960991b8152600d0190565b7f434f4c4c41544552414c5f50524943455f504155534552000000000000000000815260170190565b6a26a4a72a2fa820aaa9a2a960a91b8152600b0190565b6001600160a01b0391909116815260200190565b6001600160a01b039384168152919092166020820152604081019190915260600190565b6001600160a01b03929092168252602082015260400190565b901515815260200190565b91151582521515602082015260400190565b90815260200190565b6000602080835283518082850152825b81811015613f5557858101830151858201604001528201613f39565b81811115613f665783604083870101525b50601f01601f1916929092016040019392505050565b60208082526022908201527f456e756d657261626c655365743a20696e646578206f7574206f6620626f756e604082015261647360f01b606082015260800190565b6020808252602f908201527f416363657373436f6e74726f6c3a2073656e646572206d75737420626520616e60408201526e0818591b5a5b881d1bc819dc985b9d608a1b606082015260800190565b60208082526030908201527f596f752061726520747279696e6720746f20627579206261636b206d6f72652060408201526f7468616e20746865206578636573732160801b606082015260800190565b6020808252601d908201527f436f6c6c61746572616c20726174696f206d757374206265203e3d2031000000604082015260600190565b6020808252601b908201527f536166654d6174683a206164646974696f6e206f766572666c6f770000000000604082015260600190565b60208082526038908201527f436f6c6c61746572616c20726174696f206e6565647320746f2062652062657460408201527f7765656e202e30303030303120616e64202e3939393939390000000000000000606082015260800190565b60208082526023908201527f536c697070616765206c696d69742072656163686564205b636f6c6c61746572604082015262616c5d60e81b606082015260800190565b60208082526019908201527f7377617020636f6c6c61746572616c20697320656d7074793f00000000000000604082015260600190565b60208082526042908201527f4d757374207761697420666f7220726564656d7074696f6e5f64656c6179206260408201527f6c6f636b73206265666f726520636f6c6c656374696e6720726564656d70746960608201526137b760f11b608082015260a00190565b60208082526013908201527214995919595b5a5b99c81a5cc81c185d5cd959606a1b604082015260600190565b60208082526021908201527f4e6f2065786365737320636f6c6c61746572616c20746f20627579206261636b6040820152602160f81b606082015260800190565b60208082526030908201527f416363657373436f6e74726f6c3a2073656e646572206d75737420626520616e60408201526f2061646d696e20746f207265766f6b6560801b606082015260800190565b60208082526030908201527f596f7520617265206e6f7420746865206f776e6572206f722074686520676f7660408201526f65726e616e63652074696d656c6f636b60801b606082015260800190565b6020808252600b908201526a4e6f20555345207261746560a81b604082015260600190565b60208082526021908201527f536166654d6174683a206d756c7469706c69636174696f6e206f766572666c6f6040820152607760f81b606082015260800190565b6020808252601f908201527f536c697070616765206c696d69742072656163686564205b5368617265735d00604082015260600190565b60208082526044908201527f506f6f6c206365696c696e6720726561636865642c206e6f206d6f726520555360408201527f452063616e206265206d696e7465642077697468207468697320636f6c6c6174606082015263195c985b60e21b608082015260a00190565b6020808252601a908201527f4e6f7420656e6f7567682053686172657320696e707574746564000000000000604082015260600190565b6020808252600d908201526c4e6f205348415245207261746560981b604082015260600190565b6020808252601d908201527f436f6c6c61746572616c20726174696f206d757374206265203d3d2031000000604082015260600190565b602080825260119082015270135a5b9d1a5b99c81a5cc81c185d5cd959607a1b604082015260600190565b60208082526013908201527214995919595b5a5b99c81a5cc818db1bdcd959606a1b604082015260600190565b60208082526016908201527514db1a5c1c1859d9481b1a5b5a5d081c995858da195960521b604082015260600190565b6020808252818101527f5b506f6f6c277320436c6f7365645d3a204365696c696e672072656163686564604082015260600190565b60208082526019908201527f5265636f6c6c61746572616c697a652069732070617573656400000000000000604082015260600190565b60208082526026908201527f436f6e747261637447756172643a206f6e6520626c6f636b2c206f6e652066756040820152653731ba34b7b760d11b606082015260800190565b602080825260119082015270135a5b9d1a5b99c81a5cc818db1bdcd959607a1b604082015260600190565b60208082526019908201527f52656465656d20616d6f756e7420746f6f206c61726765202100000000000000604082015260600190565b6020808252601d908201527f4e6f7420656e6f75676820636f6c6c61746572616c20696e20706f6f6c000000604082015260600190565b6020808252602f908201527f416363657373436f6e74726f6c3a2063616e206f6e6c792072656e6f756e636560408201526e103937b632b9903337b91039b2b63360891b606082015260800190565b602080825260119082015270109d5e589858dac81a5cc81c185d5cd959607a1b604082015260600190565b918252602082015260400190565b9283526020830191909152604082015260600190565b60405181810167ffffffffffffffff8111828210171561474457600080fd5b604052919050565b6001600160a01b038116811461476157600080fd5b5056fea2646970667358221220e6e280e4b2e433f97f5457f79b68be1e97a4cf780157edcf2e2b236a14a1a40464736f6c634300060b0033",
			"opcodes": "PUSH1 0xA0 PUSH1 0x40 MSTORE PUSH3 0xF4240 PUSH1 0xE SSTORE PUSH12 0x204FCE5E3E25026110000000 PUSH1 0x1D SSTORE PUSH1 0x0 PUSH1 0x1E SSTORE PUSH2 0x1D4C PUSH1 0x1F SSTORE PUSH1 0x1 PUSH1 0x20 SSTORE PUSH1 0x22 DUP1 SLOAD PUSH5 0xFFFFFFFFFF NOT AND SWAP1 SSTORE CALLVALUE DUP1 ISZERO PUSH3 0x46 JUMPI PUSH1 0x0 DUP1 REVERT JUMPDEST POP PUSH1 0x40 MLOAD PUSH3 0x4F17 CODESIZE SUB DUP1 PUSH3 0x4F17 DUP4 CODECOPY DUP2 ADD PUSH1 0x40 DUP2 SWAP1 MSTORE PUSH3 0x69 SWAP2 PUSH3 0x529 JUMP JUMPDEST PUSH1 0xA DUP1 SLOAD PUSH1 0x1 PUSH1 0x1 PUSH1 0xA0 SHL SUB NOT SWAP1 DUP2 AND PUSH1 0x1 PUSH1 0x1 PUSH1 0xA0 SHL SUB DUP10 DUP2 AND SWAP2 DUP3 OR SWAP1 SWAP4 SSTORE PUSH1 0x9 DUP1 SLOAD DUP4 AND DUP10 DUP6 AND SWAP1 DUP2 OR SWAP1 SWAP2 SSTORE PUSH1 0x6 DUP1 SLOAD DUP5 AND SWAP1 SWAP3 OR SWAP1 SWAP2 SSTORE PUSH1 0x7 DUP1 SLOAD DUP4 AND SWAP1 SWAP2 OR SWAP1 SSTORE PUSH1 0x3 DUP1 SLOAD DUP3 AND DUP8 DUP5 AND SWAP1 DUP2 OR SWAP1 SWAP2 SSTORE PUSH1 0x8 DUP1 SLOAD DUP4 AND DUP7 DUP6 AND OR SWAP1 SSTORE PUSH1 0x4 DUP1 SLOAD DUP4 AND DUP8 DUP6 AND OR DUP2 SSTORE PUSH1 0x5 DUP1 SLOAD DUP5 AND DUP7 DUP7 AND OR SWAP1 SSTORE PUSH1 0x2 DUP1 SLOAD SWAP1 SWAP4 AND SWAP1 SWAP2 OR SWAP2 DUP3 SWAP1 SSTORE PUSH1 0x40 DUP1 MLOAD PUSH4 0x313CE567 PUSH1 0xE0 SHL DUP2 MSTORE SWAP1 MLOAD DUP11 SWAP5 DUP11 SWAP5 DUP11 SWAP5 DUP11 SWAP5 DUP11 SWAP5 DUP11 SWAP5 PUSH3 0x18C SWAP5 AND SWAP3 PUSH4 0x313CE567 SWAP3 DUP1 DUP3 ADD SWAP3 PUSH1 0x20 SWAP3 SWAP1 SWAP2 DUP3 SWAP1 SUB ADD DUP2 DUP7 DUP1 EXTCODESIZE ISZERO DUP1 ISZERO PUSH3 0x138 JUMPI PUSH1 0x0 DUP1 REVERT JUMPDEST POP GAS STATICCALL ISZERO DUP1 ISZERO PUSH3 0x14D JUMPI RETURNDATASIZE PUSH1 0x0 DUP1 RETURNDATACOPY RETURNDATASIZE PUSH1 0x0 REVERT JUMPDEST POP POP POP POP PUSH1 0x40 MLOAD RETURNDATASIZE PUSH1 0x1F NOT PUSH1 0x1F DUP3 ADD AND DUP3 ADD DUP1 PUSH1 0x40 MSTORE POP DUP2 ADD SWAP1 PUSH3 0x173 SWAP2 SWAP1 PUSH3 0x5AF JUMP JUMPDEST PUSH1 0xFF AND PUSH1 0x12 PUSH3 0x2B7 PUSH1 0x20 SHL PUSH3 0x373C OR SWAP1 SWAP2 SWAP1 PUSH1 0x20 SHR JUMP JUMPDEST PUSH1 0x80 MSTORE PUSH3 0x1B7 PUSH1 0x0 PUSH3 0x1A8 PUSH1 0x1 PUSH1 0x1 PUSH1 0xE0 SHL SUB PUSH3 0x30A AND JUMP JUMPDEST PUSH1 0x1 PUSH1 0x1 PUSH1 0xE0 SHL SUB PUSH3 0x30E AND JUMP JUMPDEST PUSH3 0x1ED PUSH1 0x40 MLOAD PUSH3 0x1C9 SWAP1 PUSH3 0x679 JUMP JUMPDEST PUSH1 0x40 MLOAD SWAP1 DUP2 SWAP1 SUB SWAP1 KECCAK256 PUSH1 0x8 SLOAD PUSH1 0x1 PUSH1 0x1 PUSH1 0xA0 SHL SUB AND PUSH1 0x1 PUSH1 0x1 PUSH1 0xE0 SHL SUB PUSH3 0x327 AND JUMP JUMPDEST PUSH3 0x1FF PUSH1 0x40 MLOAD PUSH3 0x1C9 SWAP1 PUSH3 0x637 JUMP JUMPDEST PUSH3 0x211 PUSH1 0x40 MLOAD PUSH3 0x1C9 SWAP1 PUSH3 0x60E JUMP JUMPDEST PUSH3 0x223 PUSH1 0x40 MLOAD PUSH3 0x1C9 SWAP1 PUSH3 0x5F4 JUMP JUMPDEST PUSH3 0x235 PUSH1 0x40 MLOAD PUSH3 0x1C9 SWAP1 PUSH3 0x650 JUMP JUMPDEST PUSH3 0x260 PUSH1 0x40 MLOAD PUSH3 0x247 SWAP1 PUSH3 0x5D9 JUMP JUMPDEST PUSH1 0x40 MLOAD SWAP1 DUP2 SWAP1 SUB SWAP1 KECCAK256 DUP3 PUSH1 0x1 PUSH1 0x1 PUSH1 0xE0 SHL SUB PUSH3 0x327 AND JUMP JUMPDEST POP POP POP POP POP POP PUSH3 0x27E PUSH1 0x0 DUP1 SHL PUSH3 0x1A8 PUSH3 0x30A PUSH1 0x20 SHL PUSH1 0x20 SHR JUMP JUMPDEST POP POP PUSH1 0x22 DUP1 SLOAD PUSH1 0x1 PUSH1 0x1 PUSH1 0xA0 SHL SUB SWAP1 SWAP4 AND PUSH6 0x10000000000 MUL PUSH1 0x1 PUSH1 0x28 SHL PUSH1 0x1 PUSH1 0xC8 SHL SUB NOT SWAP1 SWAP4 AND SWAP3 SWAP1 SWAP3 OR SWAP1 SWAP2 SSTORE POP PUSH3 0x735 SWAP2 POP POP JUMP JUMPDEST PUSH1 0x0 PUSH3 0x301 DUP4 DUP4 PUSH1 0x40 MLOAD DUP1 PUSH1 0x40 ADD PUSH1 0x40 MSTORE DUP1 PUSH1 0x1E DUP2 MSTORE PUSH1 0x20 ADD PUSH32 0x536166654D6174683A207375627472616374696F6E206F766572666C6F770000 DUP2 MSTORE POP PUSH3 0x388 PUSH1 0x20 SHL PUSH1 0x20 SHR JUMP JUMPDEST SWAP1 POP JUMPDEST SWAP3 SWAP2 POP POP JUMP JUMPDEST CALLER SWAP1 JUMP JUMPDEST PUSH3 0x323 DUP3 DUP3 PUSH1 0x1 PUSH1 0x1 PUSH1 0xE0 SHL SUB PUSH3 0x3B7 AND JUMP JUMPDEST POP POP JUMP JUMPDEST PUSH1 0x0 DUP3 DUP2 MSTORE PUSH1 0x1 PUSH1 0x20 MSTORE PUSH1 0x40 SWAP1 KECCAK256 PUSH1 0x2 ADD SLOAD PUSH3 0x360 SWAP1 PUSH3 0x351 PUSH1 0x1 PUSH1 0x1 PUSH1 0xE0 SHL SUB PUSH3 0x30A AND JUMP JUMPDEST PUSH1 0x1 PUSH1 0x1 PUSH1 0xE0 SHL SUB PUSH3 0x43B AND JUMP JUMPDEST PUSH3 0x30E JUMPI PUSH1 0x40 MLOAD PUSH3 0x461BCD PUSH1 0xE5 SHL DUP2 MSTORE PUSH1 0x4 ADD PUSH3 0x37F SWAP1 PUSH3 0x6E6 JUMP JUMPDEST PUSH1 0x40 MLOAD DUP1 SWAP2 SUB SWAP1 REVERT JUMPDEST PUSH1 0x0 DUP2 DUP5 DUP5 GT ISZERO PUSH3 0x3AF JUMPI PUSH1 0x40 MLOAD PUSH3 0x461BCD PUSH1 0xE5 SHL DUP2 MSTORE PUSH1 0x4 ADD PUSH3 0x37F SWAP2 SWAP1 PUSH3 0x690 JUMP JUMPDEST POP POP POP SWAP1 SUB SWAP1 JUMP JUMPDEST PUSH1 0x0 DUP3 DUP2 MSTORE PUSH1 0x1 PUSH1 0x20 SWAP1 DUP2 MSTORE PUSH1 0x40 SWAP1 SWAP2 KECCAK256 PUSH3 0x3DE SWAP2 DUP4 SWAP1 PUSH3 0x377E PUSH3 0x461 DUP3 SHL OR SWAP1 SHR JUMP JUMPDEST ISZERO PUSH3 0x323 JUMPI PUSH3 0x3F7 PUSH1 0x1 PUSH1 0x1 PUSH1 0xE0 SHL SUB PUSH3 0x30A AND JUMP JUMPDEST PUSH1 0x1 PUSH1 0x1 PUSH1 0xA0 SHL SUB AND DUP2 PUSH1 0x1 PUSH1 0x1 PUSH1 0xA0 SHL SUB AND DUP4 PUSH32 0x2F8788117E7EFF1D82E926EC794901D17C78024A50270940304540A733656F0D PUSH1 0x40 MLOAD PUSH1 0x40 MLOAD DUP1 SWAP2 SUB SWAP1 LOG4 POP POP JUMP JUMPDEST PUSH1 0x0 DUP3 DUP2 MSTORE PUSH1 0x1 PUSH1 0x20 SWAP1 DUP2 MSTORE PUSH1 0x40 DUP3 KECCAK256 PUSH3 0x301 SWAP2 DUP5 SWAP1 PUSH3 0x3793 PUSH3 0x481 DUP3 SHL OR SWAP1 SHR JUMP JUMPDEST PUSH1 0x0 PUSH3 0x301 DUP4 PUSH1 0x1 PUSH1 0x1 PUSH1 0xA0 SHL SUB DUP5 AND PUSH1 0x1 PUSH1 0x1 PUSH1 0xE0 SHL SUB PUSH3 0x4A1 AND JUMP JUMPDEST PUSH1 0x0 PUSH3 0x301 DUP4 PUSH1 0x1 PUSH1 0x1 PUSH1 0xA0 SHL SUB DUP5 AND PUSH1 0x1 PUSH1 0x1 PUSH1 0xE0 SHL SUB PUSH3 0x4F9 AND JUMP JUMPDEST PUSH1 0x0 PUSH3 0x4B8 DUP4 DUP4 PUSH1 0x1 PUSH1 0x1 PUSH1 0xE0 SHL SUB PUSH3 0x4F9 AND JUMP JUMPDEST PUSH3 0x4F0 JUMPI POP DUP2 SLOAD PUSH1 0x1 DUP2 DUP2 ADD DUP5 SSTORE PUSH1 0x0 DUP5 DUP2 MSTORE PUSH1 0x20 DUP1 DUP3 KECCAK256 SWAP1 SWAP4 ADD DUP5 SWAP1 SSTORE DUP5 SLOAD DUP5 DUP3 MSTORE DUP3 DUP7 ADD SWAP1 SWAP4 MSTORE PUSH1 0x40 SWAP1 KECCAK256 SWAP2 SWAP1 SWAP2 SSTORE PUSH3 0x304 JUMP JUMPDEST POP PUSH1 0x0 PUSH3 0x304 JUMP JUMPDEST PUSH1 0x0 SWAP1 DUP2 MSTORE PUSH1 0x1 SWAP2 SWAP1 SWAP2 ADD PUSH1 0x20 MSTORE PUSH1 0x40 SWAP1 KECCAK256 SLOAD ISZERO ISZERO SWAP1 JUMP JUMPDEST DUP1 MLOAD PUSH1 0x1 PUSH1 0x1 PUSH1 0xA0 SHL SUB DUP2 AND DUP2 EQ PUSH3 0x304 JUMPI PUSH1 0x0 DUP1 REVERT JUMPDEST PUSH1 0x0 DUP1 PUSH1 0x0 DUP1 PUSH1 0x0 DUP1 PUSH1 0xC0 DUP8 DUP10 SUB SLT ISZERO PUSH3 0x542 JUMPI DUP2 DUP3 REVERT JUMPDEST PUSH3 0x54E DUP9 DUP9 PUSH3 0x511 JUMP JUMPDEST SWAP6 POP PUSH3 0x55F DUP9 PUSH1 0x20 DUP10 ADD PUSH3 0x511 JUMP JUMPDEST SWAP5 POP PUSH3 0x570 DUP9 PUSH1 0x40 DUP10 ADD PUSH3 0x511 JUMP JUMPDEST SWAP4 POP PUSH3 0x581 DUP9 PUSH1 0x60 DUP10 ADD PUSH3 0x511 JUMP JUMPDEST SWAP3 POP PUSH3 0x592 DUP9 PUSH1 0x80 DUP10 ADD PUSH3 0x511 JUMP JUMPDEST SWAP2 POP PUSH3 0x5A3 DUP9 PUSH1 0xA0 DUP10 ADD PUSH3 0x511 JUMP JUMPDEST SWAP1 POP SWAP3 SWAP6 POP SWAP3 SWAP6 POP SWAP3 SWAP6 JUMP JUMPDEST PUSH1 0x0 PUSH1 0x20 DUP3 DUP5 SUB SLT ISZERO PUSH3 0x5C1 JUMPI DUP1 DUP2 REVERT JUMPDEST DUP2 MLOAD PUSH1 0xFF DUP2 AND DUP2 EQ PUSH3 0x5D2 JUMPI DUP2 DUP3 REVERT JUMPDEST SWAP4 SWAP3 POP POP POP JUMP JUMPDEST PUSH15 0x21A7A6A6AAA724AA2CAFA920AA22A9 PUSH1 0x89 SHL DUP2 MSTORE PUSH1 0xF ADD SWAP1 JUMP JUMPDEST PUSH14 0x212AACA120A1A5AFA820AAA9A2A9 PUSH1 0x91 SHL DUP2 MSTORE PUSH1 0xE ADD SWAP1 JUMP JUMPDEST PUSH32 0x5245434F4C4C41544552414C495A455F50415553455200000000000000000000 DUP2 MSTORE PUSH1 0x16 ADD SWAP1 JUMP JUMPDEST PUSH13 0x2922A222A2A6AFA820AAA9A2A9 PUSH1 0x99 SHL DUP2 MSTORE PUSH1 0xD ADD SWAP1 JUMP JUMPDEST PUSH32 0x434F4C4C41544552414C5F50524943455F504155534552000000000000000000 DUP2 MSTORE PUSH1 0x17 ADD SWAP1 JUMP JUMPDEST PUSH11 0x26A4A72A2FA820AAA9A2A9 PUSH1 0xA9 SHL DUP2 MSTORE PUSH1 0xB ADD SWAP1 JUMP JUMPDEST PUSH1 0x0 PUSH1 0x20 DUP1 DUP4 MSTORE DUP4 MLOAD DUP1 DUP3 DUP6 ADD MSTORE DUP3 JUMPDEST DUP2 DUP2 LT ISZERO PUSH3 0x6BE JUMPI DUP6 DUP2 ADD DUP4 ADD MLOAD DUP6 DUP3 ADD PUSH1 0x40 ADD MSTORE DUP3 ADD PUSH3 0x6A0 JUMP JUMPDEST DUP2 DUP2 GT ISZERO PUSH3 0x6D0 JUMPI DUP4 PUSH1 0x40 DUP4 DUP8 ADD ADD MSTORE JUMPDEST POP PUSH1 0x1F ADD PUSH1 0x1F NOT AND SWAP3 SWAP1 SWAP3 ADD PUSH1 0x40 ADD SWAP4 SWAP3 POP POP POP JUMP JUMPDEST PUSH1 0x20 DUP1 DUP3 MSTORE PUSH1 0x2F SWAP1 DUP3 ADD MSTORE PUSH32 0x416363657373436F6E74726F6C3A2073656E646572206D75737420626520616E PUSH1 0x40 DUP3 ADD MSTORE PUSH15 0x818591B5A5B881D1BC819DC985B9D PUSH1 0x8A SHL PUSH1 0x60 DUP3 ADD MSTORE PUSH1 0x80 ADD SWAP1 JUMP JUMPDEST PUSH1 0x80 MLOAD PUSH2 0x479A PUSH3 0x77D PUSH1 0x0 CODECOPY DUP1 PUSH2 0xB16 MSTORE DUP1 PUSH2 0x1346 MSTORE DUP1 PUSH2 0x16BD MSTORE DUP1 PUSH2 0x1A5F MSTORE DUP1 PUSH2 0x1B5D MSTORE DUP1 PUSH2 0x21A4 MSTORE DUP1 PUSH2 0x250E MSTORE DUP1 PUSH2 0x2AF2 MSTORE DUP1 PUSH2 0x2D13 MSTORE DUP1 PUSH2 0x2FE0 MSTORE POP PUSH2 0x479A PUSH1 0x0 RETURN INVALID PUSH1 0x80 PUSH1 0x40 MSTORE CALLVALUE DUP1 ISZERO PUSH2 0x10 JUMPI PUSH1 0x0 DUP1 REVERT JUMPDEST POP PUSH1 0x4 CALLDATASIZE LT PUSH2 0x524 JUMPI PUSH1 0x0 CALLDATALOAD PUSH1 0xE0 SHR DUP1 PUSH4 0x6AD3531F GT PUSH2 0x2AF JUMPI DUP1 PUSH4 0xABAE2C4C GT PUSH2 0x172 JUMPI DUP1 PUSH4 0xD547741F GT PUSH2 0xD9 JUMPI DUP1 PUSH4 0xE66A7FDA GT PUSH2 0x92 JUMPI DUP1 PUSH4 0xE66A7FDA EQ PUSH2 0x98B JUMPI DUP1 PUSH4 0xECE38E2D EQ PUSH2 0x99E JUMPI DUP1 PUSH4 0xF61ADAB2 EQ PUSH2 0x9A6 JUMPI DUP1 PUSH4 0xF7683BBC EQ PUSH2 0x9AE JUMPI DUP1 PUSH4 0xFA2FEBE2 EQ PUSH2 0x9B6 JUMPI DUP1 PUSH4 0xFA4DFA3A EQ PUSH2 0x9BE JUMPI PUSH2 0x524 JUMP JUMPDEST DUP1 PUSH4 0xD547741F EQ PUSH2 0x958 JUMPI DUP1 PUSH4 0xD5EECAE9 EQ PUSH2 0x96B JUMPI DUP1 PUSH4 0xDAA50485 EQ PUSH2 0x973 JUMPI DUP1 PUSH4 0xDC6663C7 EQ PUSH2 0x97B JUMPI DUP1 PUSH4 0xDC9B60F3 EQ PUSH2 0x983 JUMPI DUP1 PUSH4 0xDD89FE0A EQ PUSH2 0x743 JUMPI PUSH2 0x524 JUMP JUMPDEST DUP1 PUSH4 0xC0BBD884 GT PUSH2 0x12B JUMPI DUP1 PUSH4 0xC0BBD884 EQ PUSH2 0x925 JUMPI DUP1 PUSH4 0xC31587B8 EQ PUSH2 0x92D JUMPI DUP1 PUSH4 0xC74EC56A EQ PUSH2 0x935 JUMPI DUP1 PUSH4 0xCA15C873 EQ PUSH2 0x93D JUMPI DUP1 PUSH4 0xD07AC67E EQ PUSH2 0x743 JUMPI DUP1 PUSH4 0xD30016CB EQ PUSH2 0x950 JUMPI PUSH2 0x524 JUMP JUMPDEST DUP1 PUSH4 0xABAE2C4C EQ PUSH2 0x8C9 JUMPI DUP1 PUSH4 0xABB5BB1E EQ PUSH2 0x8DC JUMPI DUP1 PUSH4 0xAEC25CE7 EQ PUSH2 0x8EF JUMPI DUP1 PUSH4 0xB235D468 EQ PUSH2 0x902 JUMPI DUP1 PUSH4 0xB929E2DE EQ PUSH2 0x90A JUMPI DUP1 PUSH4 0xBDACB303 EQ PUSH2 0x912 JUMPI PUSH2 0x524 JUMP JUMPDEST DUP1 PUSH4 0x8AC75D6A GT PUSH2 0x216 JUMPI DUP1 PUSH4 0xA2248A8F GT PUSH2 0x1CF JUMPI DUP1 PUSH4 0xA2248A8F EQ PUSH2 0x896 JUMPI DUP1 PUSH4 0xA49C9166 EQ PUSH2 0x8A9 JUMPI DUP1 PUSH4 0xA57381EA EQ PUSH2 0x8B1 JUMPI DUP1 PUSH4 0xA7466AFD EQ PUSH2 0x8B9 JUMPI DUP1 PUSH4 0xAAF5EB68 EQ PUSH2 0x743 JUMPI DUP1 PUSH4 0xAB80926D EQ PUSH2 0x8C1 JUMPI PUSH2 0x524 JUMP JUMPDEST DUP1 PUSH4 0x8AC75D6A EQ PUSH2 0x84D JUMPI DUP1 PUSH4 0x8D2AC7A4 EQ PUSH2 0x860 JUMPI DUP1 PUSH4 0x9010D07C EQ PUSH2 0x868 JUMPI DUP1 PUSH4 0x91D14854 EQ PUSH2 0x87B JUMPI DUP1 PUSH4 0x95082D25 EQ PUSH2 0x743 JUMPI DUP1 PUSH4 0xA217FDDF EQ PUSH2 0x88E JUMPI PUSH2 0x524 JUMP JUMPDEST DUP1 PUSH4 0x7D55094D GT PUSH2 0x268 JUMPI DUP1 PUSH4 0x7D55094D EQ PUSH2 0x807 JUMPI DUP1 PUSH4 0x7DED8EA0 EQ PUSH2 0x80F JUMPI DUP1 PUSH4 0x7E4831D3 EQ PUSH2 0x822 JUMPI DUP1 PUSH4 0x7F877F85 EQ PUSH2 0x82A JUMPI DUP1 PUSH4 0x80EDEF8E EQ PUSH2 0x832 JUMPI DUP1 PUSH4 0x86994BC0 EQ PUSH2 0x83A JUMPI PUSH2 0x524 JUMP JUMPDEST DUP1 PUSH4 0x6AD3531F EQ PUSH2 0x7BF JUMPI DUP1 PUSH4 0x6D2C5615 EQ PUSH2 0x7C7 JUMPI DUP1 PUSH4 0x6DFA7E2B EQ PUSH2 0x7DC JUMPI DUP1 PUSH4 0x736B2D61 EQ PUSH2 0x7E4 JUMPI DUP1 PUSH4 0x7AD1F61B EQ PUSH2 0x7EC JUMPI DUP1 PUSH4 0x7B0461E9 EQ PUSH2 0x7FF JUMPI PUSH2 0x524 JUMP JUMPDEST DUP1 PUSH4 0x26FC803F GT PUSH2 0x3F7 JUMPI DUP1 PUSH4 0x42D15AEC GT PUSH2 0x35E JUMPI DUP1 PUSH4 0x5BF2930F GT PUSH2 0x317 JUMPI DUP1 PUSH4 0x5BF2930F EQ PUSH2 0x76E JUMPI DUP1 PUSH4 0x5FC2477E EQ PUSH2 0x781 JUMPI DUP1 PUSH4 0x6090CD50 EQ PUSH2 0x794 JUMPI DUP1 PUSH4 0x6481CAC6 EQ PUSH2 0x79C JUMPI DUP1 PUSH4 0x6526A12A EQ PUSH2 0x7A4 JUMPI DUP1 PUSH4 0x6A66BF83 EQ PUSH2 0x7AC JUMPI PUSH2 0x524 JUMP JUMPDEST DUP1 PUSH4 0x42D15AEC EQ PUSH2 0x733 JUMPI DUP1 PUSH4 0x4C634934 EQ PUSH2 0x73B JUMPI DUP1 PUSH4 0x4EE3274E EQ PUSH2 0x743 JUMPI DUP1 PUSH4 0x50C9ECD9 EQ PUSH2 0x74B JUMPI DUP1 PUSH4 0x51161B2F EQ PUSH2 0x753 JUMPI DUP1 PUSH4 0x5134D99C EQ PUSH2 0x75B JUMPI PUSH2 0x524 JUMP JUMPDEST DUP1 PUSH4 0x315DEEAA GT PUSH2 0x3B0 JUMPI DUP1 PUSH4 0x315DEEAA EQ PUSH2 0x6E2 JUMPI DUP1 PUSH4 0x36568ABE EQ PUSH2 0x6EA JUMPI DUP1 PUSH4 0x38423A09 EQ PUSH2 0x6FD JUMPI DUP1 PUSH4 0x3A26A91B EQ PUSH2 0x710 JUMPI DUP1 PUSH4 0x3B837521 EQ PUSH2 0x718 JUMPI DUP1 PUSH4 0x3ED4E55C EQ PUSH2 0x72B JUMPI PUSH2 0x524 JUMP JUMPDEST DUP1 PUSH4 0x26FC803F EQ PUSH2 0x6A7 JUMPI DUP1 PUSH4 0x2780130D EQ PUSH2 0x6AF JUMPI DUP1 PUSH4 0x29323FB1 EQ PUSH2 0x6B7 JUMPI DUP1 PUSH4 0x29BE843A EQ PUSH2 0x6BF JUMPI DUP1 PUSH4 0x2F2FF15D EQ PUSH2 0x6C7 JUMPI DUP1 PUSH4 0x2FB5E86D EQ PUSH2 0x6DA JUMPI PUSH2 0x524 JUMP JUMPDEST DUP1 PUSH4 0x168313B3 GT PUSH2 0x49B JUMPI DUP1 PUSH4 0x1FB0C41D GT PUSH2 0x454 JUMPI DUP1 PUSH4 0x1FB0C41D EQ PUSH2 0x63C JUMPI DUP1 PUSH4 0x202EA199 EQ PUSH2 0x644 JUMPI DUP1 PUSH4 0x20E6DA17 EQ PUSH2 0x666 JUMPI DUP1 PUSH4 0x2223F149 EQ PUSH2 0x679 JUMPI DUP1 PUSH4 0x248A9CA3 EQ PUSH2 0x68C JUMPI DUP1 PUSH4 0x2621DB2F EQ PUSH2 0x69F JUMPI PUSH2 0x524 JUMP JUMPDEST DUP1 PUSH4 0x168313B3 EQ PUSH2 0x5F4 JUMPI DUP1 PUSH4 0x17284C94 EQ PUSH2 0x609 JUMPI DUP1 PUSH4 0x172A7B06 EQ PUSH2 0x611 JUMPI DUP1 PUSH4 0x17EAE98C EQ PUSH2 0x619 JUMPI DUP1 PUSH4 0x1A286AD7 EQ PUSH2 0x62C JUMPI DUP1 PUSH4 0x1EAA0E17 EQ PUSH2 0x634 JUMPI PUSH2 0x524 JUMP JUMPDEST DUP1 PUSH4 0x106E1A39 GT PUSH2 0x4ED JUMPI DUP1 PUSH4 0x106E1A39 EQ PUSH2 0x595 JUMPI DUP1 PUSH4 0x12ACE5A2 EQ PUSH2 0x5B6 JUMPI DUP1 PUSH4 0x13AF4035 EQ PUSH2 0x5BE JUMPI DUP1 PUSH4 0x15128425 EQ PUSH2 0x5D1 JUMPI DUP1 PUSH4 0x15F05352 EQ PUSH2 0x5D9 JUMPI DUP1 PUSH4 0x1636E804 EQ PUSH2 0x5EC JUMPI PUSH2 0x524 JUMP JUMPDEST DUP1 PUSH3 0x972DC6 EQ PUSH2 0x529 JUMPI DUP1 PUSH4 0x6ED0A1D EQ PUSH2 0x53E JUMPI DUP1 PUSH4 0x8A7493D EQ PUSH2 0x551 JUMPI DUP1 PUSH4 0xD904DDD EQ PUSH2 0x57A JUMPI DUP1 PUSH4 0xFF24EC1 EQ PUSH2 0x582 JUMPI JUMPDEST PUSH1 0x0 DUP1 REVERT JUMPDEST PUSH2 0x53C PUSH2 0x537 CALLDATASIZE PUSH1 0x4 PUSH2 0x3C6E JUMP JUMPDEST PUSH2 0x9C6 JUMP JUMPDEST STOP JUMPDEST PUSH2 0x53C PUSH2 0x54C CALLDATASIZE PUSH1 0x4 PUSH2 0x3C27 JUMP JUMPDEST PUSH2 0xD36 JUMP JUMPDEST PUSH2 0x564 PUSH2 0x55F CALLDATASIZE PUSH1 0x4 PUSH2 0x3BC0 JUMP JUMPDEST PUSH2 0xE1D JUMP JUMPDEST PUSH1 0x40 MLOAD PUSH2 0x571 SWAP2 SWAP1 PUSH2 0x3F20 JUMP JUMPDEST PUSH1 0x40 MLOAD DUP1 SWAP2 SUB SWAP1 RETURN JUMPDEST PUSH2 0x564 PUSH2 0xE2F JUMP JUMPDEST PUSH2 0x564 PUSH2 0x590 CALLDATASIZE PUSH1 0x4 PUSH2 0x3D5B JUMP JUMPDEST PUSH2 0xE46 JUMP JUMPDEST PUSH2 0x5A8 PUSH2 0x5A3 CALLDATASIZE PUSH1 0x4 PUSH2 0x3D86 JUMP JUMPDEST PUSH2 0xE7B JUMP JUMPDEST PUSH1 0x40 MLOAD PUSH2 0x571 SWAP3 SWAP2 SWAP1 PUSH2 0x4701 JUMP JUMPDEST PUSH2 0x53C PUSH2 0xF27 JUMP JUMPDEST PUSH2 0x53C PUSH2 0x5CC CALLDATASIZE PUSH1 0x4 PUSH2 0x3BC0 JUMP JUMPDEST PUSH2 0x11A8 JUMP JUMPDEST PUSH2 0x564 PUSH2 0x1209 JUMP JUMPDEST PUSH2 0x53C PUSH2 0x5E7 CALLDATASIZE PUSH1 0x4 PUSH2 0x3D5B JUMP JUMPDEST PUSH2 0x120F JUMP JUMPDEST PUSH2 0x564 PUSH2 0x125C JUMP JUMPDEST PUSH2 0x5FC PUSH2 0x1268 JUMP JUMPDEST PUSH1 0x40 MLOAD PUSH2 0x571 SWAP2 SWAP1 PUSH2 0x3EB2 JUMP JUMPDEST PUSH2 0x564 PUSH2 0x1277 JUMP JUMPDEST PUSH2 0x564 PUSH2 0x1387 JUMP JUMPDEST PUSH2 0x53C PUSH2 0x627 CALLDATASIZE PUSH1 0x4 PUSH2 0x3DC0 JUMP JUMPDEST PUSH2 0x1393 JUMP JUMPDEST PUSH2 0x5FC PUSH2 0x13EF JUMP JUMPDEST PUSH2 0x5FC PUSH2 0x13FE JUMP JUMPDEST PUSH2 0x564 PUSH2 0x140D JUMP JUMPDEST PUSH2 0x657 PUSH2 0x652 CALLDATASIZE PUSH1 0x4 PUSH2 0x3CF2 JUMP JUMPDEST PUSH2 0x1413 JUMP JUMPDEST PUSH1 0x40 MLOAD PUSH2 0x571 SWAP4 SWAP3 SWAP2 SWAP1 PUSH2 0x470F JUMP JUMPDEST PUSH2 0x564 PUSH2 0x674 CALLDATASIZE PUSH1 0x4 PUSH2 0x3C6E JUMP JUMPDEST PUSH2 0x14E4 JUMP JUMPDEST PUSH2 0x657 PUSH2 0x687 CALLDATASIZE PUSH1 0x4 PUSH2 0x3CF2 JUMP JUMPDEST PUSH2 0x1506 JUMP JUMPDEST PUSH2 0x564 PUSH2 0x69A CALLDATASIZE PUSH1 0x4 PUSH2 0x3C27 JUMP JUMPDEST PUSH2 0x155B JUMP JUMPDEST PUSH2 0x5FC PUSH2 0x1570 JUMP JUMPDEST PUSH2 0x564 PUSH2 0x157F JUMP JUMPDEST PUSH2 0x5FC PUSH2 0x1585 JUMP JUMPDEST PUSH2 0x564 PUSH2 0x1594 JUMP JUMPDEST PUSH2 0x564 PUSH2 0x15A0 JUMP JUMPDEST PUSH2 0x53C PUSH2 0x6D5 CALLDATASIZE PUSH1 0x4 PUSH2 0x3C3F JUMP JUMPDEST PUSH2 0x15A6 JUMP JUMPDEST PUSH2 0x564 PUSH2 0x15EE JUMP JUMPDEST PUSH2 0x564 PUSH2 0x15F4 JUMP JUMPDEST PUSH2 0x53C PUSH2 0x6F8 CALLDATASIZE PUSH1 0x4 PUSH2 0x3C3F JUMP JUMPDEST PUSH2 0x1635 JUMP JUMPDEST PUSH2 0x564 PUSH2 0x70B CALLDATASIZE PUSH1 0x4 PUSH2 0x3BC0 JUMP JUMPDEST PUSH2 0x1677 JUMP JUMPDEST PUSH2 0x564 PUSH2 0x1689 JUMP JUMPDEST PUSH2 0x564 PUSH2 0x726 CALLDATASIZE PUSH1 0x4 PUSH2 0x3D5B JUMP JUMPDEST PUSH2 0x1695 JUMP JUMPDEST PUSH2 0x564 PUSH2 0x16BB JUMP JUMPDEST PUSH2 0x53C PUSH2 0x16DF JUMP JUMPDEST PUSH2 0x564 PUSH2 0x1716 JUMP JUMPDEST PUSH2 0x564 PUSH2 0x171C JUMP JUMPDEST PUSH2 0x53C PUSH2 0x1723 JUMP JUMPDEST PUSH2 0x564 PUSH2 0x175C JUMP JUMPDEST PUSH2 0x564 PUSH2 0x769 CALLDATASIZE PUSH1 0x4 PUSH2 0x3CAB JUMP JUMPDEST PUSH2 0x1762 JUMP JUMPDEST PUSH2 0x53C PUSH2 0x77C CALLDATASIZE PUSH1 0x4 PUSH2 0x3BDC JUMP JUMPDEST PUSH2 0x17EA JUMP JUMPDEST PUSH2 0x53C PUSH2 0x78F CALLDATASIZE PUSH1 0x4 PUSH2 0x3D5B JUMP JUMPDEST PUSH2 0x184F JUMP JUMPDEST PUSH2 0x564 PUSH2 0x1D20 JUMP JUMPDEST PUSH2 0x564 PUSH2 0x1D26 JUMP JUMPDEST PUSH2 0x564 PUSH2 0x1D2C JUMP JUMPDEST PUSH2 0x657 PUSH2 0x7BA CALLDATASIZE PUSH1 0x4 PUSH2 0x3CF2 JUMP JUMPDEST PUSH2 0x1D32 JUMP JUMPDEST PUSH2 0x564 PUSH2 0x1DEB JUMP JUMPDEST PUSH2 0x7CF PUSH2 0x1DF7 JUMP JUMPDEST PUSH1 0x40 MLOAD PUSH2 0x571 SWAP2 SWAP1 PUSH2 0x3F03 JUMP JUMPDEST PUSH2 0x564 PUSH2 0x1E06 JUMP JUMPDEST PUSH2 0x564 PUSH2 0x1E29 JUMP JUMPDEST PUSH2 0x53C PUSH2 0x7FA CALLDATASIZE PUSH1 0x4 PUSH2 0x3C27 JUMP JUMPDEST PUSH2 0x1E2F JUMP JUMPDEST PUSH2 0x564 PUSH2 0x1E8D JUMP JUMPDEST PUSH2 0x53C PUSH2 0x1E93 JUMP JUMPDEST PUSH2 0x53C PUSH2 0x81D CALLDATASIZE PUSH1 0x4 PUSH2 0x3D86 JUMP JUMPDEST PUSH2 0x1EBF JUMP JUMPDEST PUSH2 0x7CF PUSH2 0x1F15 JUMP JUMPDEST PUSH2 0x7CF PUSH2 0x1F1E JUMP JUMPDEST PUSH2 0x5FC PUSH2 0x1F2E JUMP JUMPDEST PUSH2 0x53C PUSH2 0x848 CALLDATASIZE PUSH1 0x4 PUSH2 0x3D5B JUMP JUMPDEST PUSH2 0x1F3D JUMP JUMPDEST PUSH2 0x53C PUSH2 0x85B CALLDATASIZE PUSH1 0x4 PUSH2 0x3C6E JUMP JUMPDEST PUSH2 0x245A JUMP JUMPDEST PUSH2 0x7CF PUSH2 0x2782 JUMP JUMPDEST PUSH2 0x5FC PUSH2 0x876 CALLDATASIZE PUSH1 0x4 PUSH2 0x3C6E JUMP JUMPDEST PUSH2 0x2793 JUMP JUMPDEST PUSH2 0x7CF PUSH2 0x889 CALLDATASIZE PUSH1 0x4 PUSH2 0x3C3F JUMP JUMPDEST PUSH2 0x27B1 JUMP JUMPDEST PUSH2 0x564 PUSH2 0x27CF JUMP JUMPDEST PUSH2 0x53C PUSH2 0x8A4 CALLDATASIZE PUSH1 0x4 PUSH2 0x3C27 JUMP JUMPDEST PUSH2 0x27D4 JUMP JUMPDEST PUSH2 0x564 PUSH2 0x2948 JUMP JUMPDEST PUSH2 0x564 PUSH2 0x294E JUMP JUMPDEST PUSH2 0x564 PUSH2 0x2954 JUMP JUMPDEST PUSH2 0x564 PUSH2 0x2A21 JUMP JUMPDEST PUSH2 0x564 PUSH2 0x8D7 CALLDATASIZE PUSH1 0x4 PUSH2 0x3BC0 JUMP JUMPDEST PUSH2 0x2A4F JUMP JUMPDEST PUSH2 0x53C PUSH2 0x8EA CALLDATASIZE PUSH1 0x4 PUSH2 0x3C6E JUMP JUMPDEST PUSH2 0x2A61 JUMP JUMPDEST PUSH2 0x53C PUSH2 0x8FD CALLDATASIZE PUSH1 0x4 PUSH2 0x3C6E JUMP JUMPDEST PUSH2 0x2E75 JUMP JUMPDEST PUSH2 0x7CF PUSH2 0x317B JUMP JUMPDEST PUSH2 0x564 PUSH2 0x3189 JUMP JUMPDEST PUSH2 0x53C PUSH2 0x920 CALLDATASIZE PUSH1 0x4 PUSH2 0x3BC0 JUMP JUMPDEST PUSH2 0x318F JUMP JUMPDEST PUSH2 0x53C PUSH2 0x31F0 JUMP JUMPDEST PUSH2 0x7CF PUSH2 0x3442 JUMP JUMPDEST PUSH2 0x564 PUSH2 0x3456 JUMP JUMPDEST PUSH2 0x564 PUSH2 0x94B CALLDATASIZE PUSH1 0x4 PUSH2 0x3C27 JUMP JUMPDEST PUSH2 0x345C JUMP JUMPDEST PUSH2 0x564 PUSH2 0x3473 JUMP JUMPDEST PUSH2 0x53C PUSH2 0x966 CALLDATASIZE PUSH1 0x4 PUSH2 0x3C3F JUMP JUMPDEST PUSH2 0x3479 JUMP JUMPDEST PUSH2 0x7CF PUSH2 0x34B3 JUMP JUMPDEST PUSH2 0x53C PUSH2 0x34C0 JUMP JUMPDEST PUSH2 0x5FC PUSH2 0x34F5 JUMP JUMPDEST PUSH2 0x564 PUSH2 0x3504 JUMP JUMPDEST PUSH2 0x564 PUSH2 0x999 CALLDATASIZE PUSH1 0x4 PUSH2 0x3C6E JUMP JUMPDEST PUSH2 0x350A JUMP JUMPDEST PUSH2 0x564 PUSH2 0x3523 JUMP JUMPDEST PUSH2 0x564 PUSH2 0x3529 JUMP JUMPDEST PUSH2 0x564 PUSH2 0x36F0 JUMP JUMPDEST PUSH2 0x564 PUSH2 0x371E JUMP JUMPDEST PUSH2 0x5FC PUSH2 0x3724 JUMP JUMPDEST PUSH2 0x9CE PUSH2 0x37A8 JUMP JUMPDEST ISZERO PUSH2 0x9F4 JUMPI PUSH1 0x40 MLOAD PUSH3 0x461BCD PUSH1 0xE5 SHL DUP2 MSTORE PUSH1 0x4 ADD PUSH2 0x9EB SWAP1 PUSH2 0x45A8 JUMP JUMPDEST PUSH1 0x40 MLOAD DUP1 SWAP2 SUB SWAP1 REVERT JUMPDEST PUSH2 0x9FC PUSH2 0x37C7 JUMP JUMPDEST ISZERO PUSH2 0xA19 JUMPI PUSH1 0x40 MLOAD PUSH3 0x461BCD PUSH1 0xE5 SHL DUP2 MSTORE PUSH1 0x4 ADD PUSH2 0x9EB SWAP1 PUSH2 0x45A8 JUMP JUMPDEST PUSH1 0x22 SLOAD PUSH2 0x100 SWAP1 DIV PUSH1 0xFF AND ISZERO PUSH2 0xA41 JUMPI PUSH1 0x40 MLOAD PUSH3 0x461BCD PUSH1 0xE5 SHL DUP2 MSTORE PUSH1 0x4 ADD PUSH2 0x9EB SWAP1 PUSH2 0x420A JUMP JUMPDEST PUSH2 0xA49 PUSH2 0x3442 JUMP JUMPDEST ISZERO ISZERO PUSH1 0x1 EQ PUSH2 0xA6A JUMPI PUSH1 0x40 MLOAD PUSH3 0x461BCD PUSH1 0xE5 SHL DUP2 MSTORE PUSH1 0x4 ADD PUSH2 0x9EB SWAP1 PUSH2 0x44DF JUMP JUMPDEST PUSH2 0xA72 PUSH2 0x31F0 JUMP JUMPDEST PUSH1 0xA SLOAD PUSH1 0x40 DUP1 MLOAD PUSH4 0x2EB9771B PUSH1 0xE0 SHL DUP2 MSTORE SWAP1 MLOAD PUSH3 0xF4240 SWAP3 PUSH1 0x1 PUSH1 0x1 PUSH1 0xA0 SHL SUB AND SWAP2 PUSH4 0x2EB9771B SWAP2 PUSH1 0x4 DUP1 DUP4 ADD SWAP3 PUSH1 0x20 SWAP3 SWAP2 SWAP1 DUP3 SWAP1 SUB ADD DUP2 DUP7 DUP1 EXTCODESIZE ISZERO DUP1 ISZERO PUSH2 0xAB9 JUMPI PUSH1 0x0 DUP1 REVERT JUMPDEST POP GAS STATICCALL ISZERO DUP1 ISZERO PUSH2 0xACD JUMPI RETURNDATASIZE PUSH1 0x0 DUP1 RETURNDATACOPY RETURNDATASIZE PUSH1 0x0 REVERT JUMPDEST POP POP POP POP PUSH1 0x40 MLOAD RETURNDATASIZE PUSH1 0x1F NOT PUSH1 0x1F DUP3 ADD AND DUP3 ADD DUP1 PUSH1 0x40 MSTORE POP DUP2 ADD SWAP1 PUSH2 0xAF1 SWAP2 SWAP1 PUSH2 0x3D43 JUMP JUMPDEST EQ PUSH2 0xB0E JUMPI PUSH1 0x40 MLOAD PUSH3 0x461BCD PUSH1 0xE5 SHL DUP2 MSTORE PUSH1 0x4 ADD PUSH2 0x9EB SWAP1 PUSH2 0x447D JUMP JUMPDEST PUSH1 0x0 PUSH2 0xB43 DUP4 PUSH32 0x0 PUSH1 0xA EXP PUSH4 0xFFFFFFFF PUSH2 0x37E6 AND JUMP JUMPDEST SWAP1 POP PUSH1 0x0 PUSH2 0xB58 PUSH2 0xB52 PUSH2 0x36F0 JUMP JUMPDEST DUP4 PUSH2 0x14E4 JUMP JUMPDEST SWAP1 POP PUSH2 0xB94 PUSH2 0xB85 PUSH3 0xF4240 PUSH2 0xB79 PUSH1 0x15 SLOAD DUP9 PUSH2 0x3828 SWAP1 SWAP2 SWAP1 PUSH4 0xFFFFFFFF AND JUMP JUMPDEST SWAP1 PUSH4 0xFFFFFFFF PUSH2 0x37E6 AND JUMP JUMPDEST PUSH1 0x16 SLOAD SWAP1 PUSH4 0xFFFFFFFF PUSH2 0x3862 AND JUMP JUMPDEST PUSH1 0x16 SSTORE PUSH2 0xBC9 PUSH3 0xF4240 PUSH2 0xB79 PUSH2 0xBBC PUSH2 0xBAC PUSH2 0x1E06 JUMP JUMPDEST PUSH3 0xF4240 SWAP1 PUSH4 0xFFFFFFFF PUSH2 0x373C AND JUMP JUMPDEST DUP5 SWAP1 PUSH4 0xFFFFFFFF PUSH2 0x3828 AND JUMP JUMPDEST SWAP1 POP PUSH2 0xBD3 PUSH2 0x15F4 JUMP JUMPDEST DUP2 GT ISZERO PUSH2 0xBF2 JUMPI PUSH1 0x40 MLOAD PUSH3 0x461BCD PUSH1 0xE5 SHL DUP2 MSTORE PUSH1 0x4 ADD PUSH2 0x9EB SWAP1 PUSH2 0x4650 JUMP JUMPDEST DUP1 DUP4 GT ISZERO PUSH2 0xC12 JUMPI PUSH1 0x40 MLOAD PUSH3 0x461BCD PUSH1 0xE5 SHL DUP2 MSTORE PUSH1 0x4 ADD PUSH2 0x9EB SWAP1 PUSH2 0x450C JUMP JUMPDEST CALLER PUSH1 0x0 SWAP1 DUP2 MSTORE PUSH1 0x19 PUSH1 0x20 MSTORE PUSH1 0x40 SWAP1 KECCAK256 SLOAD PUSH2 0xC32 SWAP1 DUP3 PUSH4 0xFFFFFFFF PUSH2 0x3862 AND JUMP JUMPDEST CALLER PUSH1 0x0 SWAP1 DUP2 MSTORE PUSH1 0x19 PUSH1 0x20 MSTORE PUSH1 0x40 SWAP1 KECCAK256 SSTORE PUSH1 0x1A SLOAD PUSH2 0xC55 SWAP1 DUP3 PUSH4 0xFFFFFFFF PUSH2 0x3862 AND JUMP JUMPDEST PUSH1 0x1A SSTORE CALLER PUSH1 0x0 DUP2 DUP2 MSTORE PUSH1 0x1C PUSH1 0x20 MSTORE PUSH1 0x40 SWAP1 DUP2 SWAP1 KECCAK256 NUMBER SWAP1 SSTORE PUSH1 0xA SLOAD SWAP1 MLOAD PUSH4 0x5453BC57 PUSH1 0xE1 SHL DUP2 MSTORE PUSH1 0x1 PUSH1 0x1 PUSH1 0xA0 SHL SUB SWAP1 SWAP2 AND SWAP2 PUSH4 0xA8A778AE SWAP2 PUSH2 0xC9C SWAP2 SWAP1 DUP9 SWAP1 PUSH1 0x4 ADD PUSH2 0x3EEA JUMP JUMPDEST PUSH1 0x0 PUSH1 0x40 MLOAD DUP1 DUP4 SUB DUP2 PUSH1 0x0 DUP8 DUP1 EXTCODESIZE ISZERO DUP1 ISZERO PUSH2 0xCB6 JUMPI PUSH1 0x0 DUP1 REVERT JUMPDEST POP GAS CALL ISZERO DUP1 ISZERO PUSH2 0xCCA JUMPI RETURNDATASIZE PUSH1 0x0 DUP1 RETURNDATACOPY RETURNDATASIZE PUSH1 0x0 REVERT JUMPDEST POP POP POP POP PUSH2 0xCD6 PUSH2 0x3442 JUMP JUMPDEST ISZERO ISZERO PUSH1 0x1 EQ PUSH2 0xCF7 JUMPI PUSH1 0x40 MLOAD PUSH3 0x461BCD PUSH1 0xE5 SHL DUP2 MSTORE PUSH1 0x4 ADD PUSH2 0x9EB SWAP1 PUSH2 0x4619 JUMP JUMPDEST POP POP NUMBER PUSH1 0x0 SWAP1 DUP2 MSTORE PUSH1 0x20 DUP2 DUP2 MSTORE PUSH1 0x40 DUP1 DUP4 KECCAK256 ORIGIN DUP5 MSTORE SWAP1 SWAP2 MSTORE DUP1 DUP3 KECCAK256 DUP1 SLOAD PUSH1 0x1 PUSH1 0xFF NOT SWAP2 DUP3 AND DUP2 OR SWAP1 SWAP3 SSTORE CALLER DUP5 MSTORE SWAP2 SWAP1 SWAP3 KECCAK256 DUP1 SLOAD SWAP1 SWAP2 AND SWAP1 SWAP2 OR SWAP1 SSTORE POP POP JUMP JUMPDEST PUSH1 0x0 PUSH1 0x17 SLOAD GT PUSH2 0xD58 JUMPI PUSH1 0x40 MLOAD PUSH3 0x461BCD PUSH1 0xE5 SHL DUP2 MSTORE PUSH1 0x4 ADD PUSH2 0x9EB SWAP1 PUSH2 0x4456 JUMP JUMPDEST PUSH2 0xD75 PUSH1 0x40 MLOAD PUSH2 0xD67 SWAP1 PUSH2 0x3E02 JUMP JUMPDEST PUSH1 0x40 MLOAD DUP1 SWAP2 SUB SWAP1 KECCAK256 CALLER PUSH2 0x27B1 JUMP JUMPDEST PUSH2 0xD7E JUMPI PUSH1 0x0 DUP1 REVERT JUMPDEST PUSH1 0x0 PUSH2 0xD9C PUSH3 0xF4240 PUSH2 0xB79 DUP5 PUSH1 0x17 SLOAD PUSH2 0x3828 SWAP1 SWAP2 SWAP1 PUSH4 0xFFFFFFFF AND JUMP JUMPDEST PUSH1 0x17 SLOAD SWAP1 SWAP2 POP PUSH2 0xDB2 SWAP1 DUP3 PUSH4 0xFFFFFFFF PUSH2 0x373C AND JUMP JUMPDEST PUSH1 0x17 SSTORE PUSH1 0x9 SLOAD PUSH1 0x40 MLOAD PUSH4 0x5A7AB593 PUSH1 0xE1 SHL DUP2 MSTORE PUSH1 0x1 PUSH1 0x1 PUSH1 0xA0 SHL SUB SWAP1 SWAP2 AND SWAP1 PUSH4 0xB4F56B26 SWAP1 PUSH2 0xDE7 SWAP1 CALLER SWAP1 DUP6 SWAP1 PUSH1 0x4 ADD PUSH2 0x3EEA JUMP JUMPDEST PUSH1 0x0 PUSH1 0x40 MLOAD DUP1 DUP4 SUB DUP2 PUSH1 0x0 DUP8 DUP1 EXTCODESIZE ISZERO DUP1 ISZERO PUSH2 0xE01 JUMPI PUSH1 0x0 DUP1 REVERT JUMPDEST POP GAS CALL ISZERO DUP1 ISZERO PUSH2 0xE15 JUMPI RETURNDATASIZE PUSH1 0x0 DUP1 RETURNDATACOPY RETURNDATASIZE PUSH1 0x0 REVERT JUMPDEST POP POP POP POP POP POP JUMP JUMPDEST PUSH1 0x19 PUSH1 0x20 MSTORE PUSH1 0x0 SWAP1 DUP2 MSTORE PUSH1 0x40 SWAP1 KECCAK256 SLOAD DUP2 JUMP JUMPDEST PUSH1 0x40 MLOAD PUSH2 0xE3B SWAP1 PUSH2 0x3E1D JUMP JUMPDEST PUSH1 0x40 MLOAD DUP1 SWAP2 SUB SWAP1 KECCAK256 DUP2 JUMP JUMPDEST PUSH1 0x0 DUP1 PUSH2 0xE60 PUSH3 0xF4240 PUSH2 0xB79 DUP8 DUP8 PUSH4 0xFFFFFFFF PUSH2 0x3828 AND JUMP JUMPDEST SWAP1 POP PUSH2 0xE72 DUP2 DUP5 PUSH4 0xFFFFFFFF PUSH2 0x373C AND JUMP JUMPDEST SWAP6 SWAP5 POP POP POP POP POP JUMP JUMPDEST PUSH1 0x0 DUP1 DUP1 PUSH2 0xE96 PUSH3 0xF4240 PUSH2 0xB79 DUP11 DUP11 PUSH4 0xFFFFFFFF PUSH2 0x3828 AND JUMP JUMPDEST SWAP1 POP PUSH1 0x0 PUSH2 0xEB1 DUP7 PUSH2 0xB79 DUP10 PUSH3 0xF4240 PUSH4 0xFFFFFFFF PUSH2 0x3828 AND JUMP JUMPDEST SWAP1 POP PUSH1 0x0 PUSH2 0xEEB PUSH3 0xF4240 PUSH2 0xB79 PUSH2 0xECF DUP11 DUP7 PUSH4 0xFFFFFFFF PUSH2 0x3828 AND JUMP JUMPDEST PUSH2 0xEDF DUP11 DUP13 PUSH4 0xFFFFFFFF PUSH2 0x3828 AND JUMP JUMPDEST SWAP1 PUSH4 0xFFFFFFFF PUSH2 0x373C AND JUMP JUMPDEST SWAP1 POP PUSH1 0x0 DUP2 DUP5 GT PUSH2 0xEFD JUMPI POP DUP3 PUSH2 0xF00 JUMP JUMPDEST POP DUP1 JUMPDEST PUSH2 0xF17 DUP11 PUSH2 0xB79 DUP4 PUSH3 0xF4240 PUSH4 0xFFFFFFFF PUSH2 0x3828 AND JUMP JUMPDEST SWAP12 SWAP1 SWAP11 POP SWAP9 POP POP POP POP POP POP POP POP POP JUMP JUMPDEST PUSH2 0xF2F PUSH2 0x37A8 JUMP JUMPDEST ISZERO PUSH2 0xF4C JUMPI PUSH1 0x40 MLOAD PUSH3 0x461BCD PUSH1 0xE5 SHL DUP2 MSTORE PUSH1 0x4 ADD PUSH2 0x9EB SWAP1 PUSH2 0x45A8 JUMP JUMPDEST PUSH2 0xF54 PUSH2 0x37C7 JUMP JUMPDEST ISZERO PUSH2 0xF71 JUMPI PUSH1 0x40 MLOAD PUSH3 0x461BCD PUSH1 0xE5 SHL DUP2 MSTORE PUSH1 0x4 ADD PUSH2 0x9EB SWAP1 PUSH2 0x45A8 JUMP JUMPDEST PUSH1 0x20 DUP1 SLOAD CALLER PUSH1 0x0 SWAP1 DUP2 MSTORE PUSH1 0x1C SWAP1 SWAP3 MSTORE PUSH1 0x40 SWAP1 SWAP2 KECCAK256 SLOAD NUMBER SWAP2 PUSH2 0xF98 SWAP2 SWAP1 PUSH4 0xFFFFFFFF PUSH2 0x3862 AND JUMP JUMPDEST GT ISZERO PUSH2 0xFB6 JUMPI PUSH1 0x40 MLOAD PUSH3 0x461BCD PUSH1 0xE5 SHL DUP2 MSTORE PUSH1 0x4 ADD PUSH2 0x9EB SWAP1 PUSH2 0x41A2 JUMP JUMPDEST CALLER PUSH1 0x0 SWAP1 DUP2 MSTORE PUSH1 0x18 PUSH1 0x20 MSTORE PUSH1 0x40 DUP2 KECCAK256 SLOAD DUP2 SWAP1 DUP2 SWAP1 DUP2 SWAP1 ISZERO PUSH2 0x1003 JUMPI CALLER PUSH1 0x0 SWAP1 DUP2 MSTORE PUSH1 0x18 PUSH1 0x20 MSTORE PUSH1 0x40 DUP2 KECCAK256 DUP1 SLOAD SWAP2 SWAP1 SSTORE PUSH1 0x1B SLOAD SWAP1 SWAP3 POP PUSH2 0xFFB SWAP1 DUP4 PUSH4 0xFFFFFFFF PUSH2 0x373C AND JUMP JUMPDEST PUSH1 0x1B SSTORE PUSH1 0x1 SWAP4 POP JUMPDEST CALLER PUSH1 0x0 SWAP1 DUP2 MSTORE PUSH1 0x19 PUSH1 0x20 MSTORE PUSH1 0x40 SWAP1 KECCAK256 SLOAD ISZERO PUSH2 0x1048 JUMPI POP CALLER PUSH1 0x0 SWAP1 DUP2 MSTORE PUSH1 0x19 PUSH1 0x20 MSTORE PUSH1 0x40 DUP2 KECCAK256 DUP1 SLOAD SWAP2 SWAP1 SSTORE PUSH1 0x1A SLOAD PUSH2 0x1040 SWAP1 DUP3 PUSH4 0xFFFFFFFF PUSH2 0x373C AND JUMP JUMPDEST PUSH1 0x1A SSTORE PUSH1 0x1 SWAP3 POP JUMPDEST PUSH1 0x1 DUP5 ISZERO ISZERO EQ ISZERO PUSH2 0x10D9 JUMPI PUSH1 0x9 SLOAD PUSH1 0x40 MLOAD PUSH4 0xA9059CBB PUSH1 0xE0 SHL DUP2 MSTORE PUSH1 0x1 PUSH1 0x1 PUSH1 0xA0 SHL SUB SWAP1 SWAP2 AND SWAP1 PUSH4 0xA9059CBB SWAP1 PUSH2 0x1085 SWAP1 CALLER SWAP1 DUP7 SWAP1 PUSH1 0x4 ADD PUSH2 0x3EEA JUMP JUMPDEST PUSH1 0x20 PUSH1 0x40 MLOAD DUP1 DUP4 SUB DUP2 PUSH1 0x0 DUP8 DUP1 EXTCODESIZE ISZERO DUP1 ISZERO PUSH2 0x109F JUMPI PUSH1 0x0 DUP1 REVERT JUMPDEST POP GAS CALL ISZERO DUP1 ISZERO PUSH2 0x10B3 JUMPI RETURNDATASIZE PUSH1 0x0 DUP1 RETURNDATACOPY RETURNDATASIZE PUSH1 0x0 REVERT JUMPDEST POP POP POP POP PUSH1 0x40 MLOAD RETURNDATASIZE PUSH1 0x1F NOT PUSH1 0x1F DUP3 ADD AND DUP3 ADD DUP1 PUSH1 0x40 MSTORE POP DUP2 ADD SWAP1 PUSH2 0x10D7 SWAP2 SWAP1 PUSH2 0x3C07 JUMP JUMPDEST POP JUMPDEST PUSH1 0x1 DUP4 ISZERO ISZERO EQ ISZERO PUSH2 0xCF7 JUMPI PUSH1 0x2 SLOAD PUSH1 0x40 MLOAD PUSH4 0xA9059CBB PUSH1 0xE0 SHL DUP2 MSTORE PUSH1 0x1 PUSH1 0x1 PUSH1 0xA0 SHL SUB SWAP1 SWAP2 AND SWAP1 PUSH4 0xA9059CBB SWAP1 PUSH2 0x1116 SWAP1 CALLER SWAP1 DUP6 SWAP1 PUSH1 0x4 ADD PUSH2 0x3EEA JUMP JUMPDEST PUSH1 0x20 PUSH1 0x40 MLOAD DUP1 DUP4 SUB DUP2 PUSH1 0x0 DUP8 DUP1 EXTCODESIZE ISZERO DUP1 ISZERO PUSH2 0x1130 JUMPI PUSH1 0x0 DUP1 REVERT JUMPDEST POP GAS CALL ISZERO DUP1 ISZERO PUSH2 0x1144 JUMPI RETURNDATASIZE PUSH1 0x0 DUP1 RETURNDATACOPY RETURNDATASIZE PUSH1 0x0 REVERT JUMPDEST POP POP POP POP PUSH1 0x40 MLOAD RETURNDATASIZE PUSH1 0x1F NOT PUSH1 0x1F DUP3 ADD AND DUP3 ADD DUP1 PUSH1 0x40 MSTORE POP DUP2 ADD SWAP1 PUSH2 0x1168 SWAP2 SWAP1 PUSH2 0x3C07 JUMP JUMPDEST POP POP POP NUMBER PUSH1 0x0 SWAP1 DUP2 MSTORE PUSH1 0x20 DUP2 DUP2 MSTORE PUSH1 0x40 DUP1 DUP4 KECCAK256 ORIGIN DUP5 MSTORE SWAP1 SWAP2 MSTORE DUP1 DUP3 KECCAK256 DUP1 SLOAD PUSH1 0x1 PUSH1 0xFF NOT SWAP2 DUP3 AND DUP2 OR SWAP1 SWAP3 SSTORE CALLER DUP5 MSTORE SWAP2 SWAP1 SWAP3 KECCAK256 DUP1 SLOAD SWAP1 SWAP2 AND SWAP1 SWAP2 OR SWAP1 SSTORE POP POP JUMP JUMPDEST PUSH1 0x8 SLOAD PUSH1 0x1 PUSH1 0x1 PUSH1 0xA0 SHL SUB AND CALLER EQ DUP1 PUSH2 0x11CB JUMPI POP PUSH1 0x4 SLOAD PUSH1 0x1 PUSH1 0x1 PUSH1 0xA0 SHL SUB AND CALLER EQ JUMPDEST PUSH2 0x11E7 JUMPI PUSH1 0x40 MLOAD PUSH3 0x461BCD PUSH1 0xE5 SHL DUP2 MSTORE PUSH1 0x4 ADD PUSH2 0x9EB SWAP1 PUSH2 0x42C8 JUMP JUMPDEST PUSH1 0x4 DUP1 SLOAD PUSH1 0x1 PUSH1 0x1 PUSH1 0xA0 SHL SUB NOT AND PUSH1 0x1 PUSH1 0x1 PUSH1 0xA0 SHL SUB SWAP3 SWAP1 SWAP3 AND SWAP2 SWAP1 SWAP2 OR SWAP1 SSTORE JUMP JUMPDEST PUSH1 0x20 SLOAD DUP2 JUMP JUMPDEST PUSH1 0x8 SLOAD PUSH1 0x1 PUSH1 0x1 PUSH1 0xA0 SHL SUB AND CALLER EQ DUP1 PUSH2 0x1232 JUMPI POP PUSH1 0x4 SLOAD PUSH1 0x1 PUSH1 0x1 PUSH1 0xA0 SHL SUB AND CALLER EQ JUMPDEST PUSH2 0x124E JUMPI PUSH1 0x40 MLOAD PUSH3 0x461BCD PUSH1 0xE5 SHL DUP2 MSTORE PUSH1 0x4 ADD PUSH2 0x9EB SWAP1 PUSH2 0x42C8 JUMP JUMPDEST PUSH1 0xD SWAP3 SWAP1 SWAP3 SSTORE PUSH1 0xB SSTORE PUSH1 0xC SSTORE JUMP JUMPDEST PUSH1 0x40 MLOAD PUSH2 0xE3B SWAP1 PUSH2 0x3E72 JUMP JUMPDEST PUSH1 0x6 SLOAD PUSH1 0x1 PUSH1 0x1 PUSH1 0xA0 SHL SUB AND DUP2 JUMP JUMPDEST PUSH1 0x1A SLOAD PUSH1 0x2 SLOAD PUSH1 0x40 MLOAD PUSH4 0x70A08231 PUSH1 0xE0 SHL DUP2 MSTORE PUSH1 0x0 SWAP3 DUP4 SWAP3 PUSH2 0x1303 SWAP3 PUSH1 0x1 PUSH1 0x1 PUSH1 0xA0 SHL SUB SWAP1 SWAP2 AND SWAP1 PUSH4 0x70A08231 SWAP1 PUSH2 0x12B3 SWAP1 ADDRESS SWAP1 PUSH1 0x4 ADD PUSH2 0x3EB2 JUMP JUMPDEST PUSH1 0x20 PUSH1 0x40 MLOAD DUP1 DUP4 SUB DUP2 DUP7 DUP1 EXTCODESIZE ISZERO DUP1 ISZERO PUSH2 0x12CB JUMPI PUSH1 0x0 DUP1 REVERT JUMPDEST POP GAS STATICCALL ISZERO DUP1 ISZERO PUSH2 0x12DF JUMPI RETURNDATASIZE PUSH1 0x0 DUP1 RETURNDATACOPY RETURNDATASIZE PUSH1 0x0 REVERT JUMPDEST POP POP POP POP PUSH1 0x40 MLOAD RETURNDATASIZE PUSH1 0x1F NOT PUSH1 0x1F DUP3 ADD AND DUP3 ADD DUP1 PUSH1 0x40 MSTORE POP DUP2 ADD SWAP1 PUSH2 0xEDF SWAP2 SWAP1 PUSH2 0x3D43 JUMP JUMPDEST SWAP1 POP PUSH1 0x0 PUSH1 0x22 PUSH1 0x4 SWAP1 SLOAD SWAP1 PUSH2 0x100 EXP SWAP1 DIV PUSH1 0xFF AND ISZERO ISZERO PUSH1 0x1 ISZERO ISZERO EQ PUSH2 0x132F JUMPI PUSH2 0x132A PUSH2 0x36F0 JUMP JUMPDEST PUSH2 0x1333 JUMP JUMPDEST PUSH1 0x1E SLOAD JUMPDEST SWAP1 POP PUSH2 0x137F PUSH3 0xF4240 PUSH2 0xB79 DUP4 PUSH2 0x1373 DUP7 PUSH32 0x0 PUSH1 0xA EXP PUSH4 0xFFFFFFFF PUSH2 0x3828 AND JUMP JUMPDEST SWAP1 PUSH4 0xFFFFFFFF PUSH2 0x3828 AND JUMP JUMPDEST SWAP3 POP POP POP JUMPDEST SWAP1 JUMP JUMPDEST PUSH1 0x40 MLOAD PUSH2 0xE3B SWAP1 PUSH2 0x3E9B JUMP JUMPDEST PUSH1 0x8 SLOAD PUSH1 0x1 PUSH1 0x1 PUSH1 0xA0 SHL SUB AND CALLER EQ DUP1 PUSH2 0x13B6 JUMPI POP PUSH1 0x4 SLOAD PUSH1 0x1 PUSH1 0x1 PUSH1 0xA0 SHL SUB AND CALLER EQ JUMPDEST PUSH2 0x13D2 JUMPI PUSH1 0x40 MLOAD PUSH3 0x461BCD PUSH1 0xE5 SHL DUP2 MSTORE PUSH1 0x4 ADD PUSH2 0x9EB SWAP1 PUSH2 0x42C8 JUMP JUMPDEST PUSH1 0x1D SWAP6 SWAP1 SWAP6 SSTORE PUSH1 0x1F SWAP4 SWAP1 SWAP4 SSTORE PUSH1 0x20 SWAP2 SWAP1 SWAP2 SSTORE PUSH1 0x13 SSTORE PUSH1 0x14 SSTORE PUSH1 0x21 SSTORE JUMP JUMPDEST PUSH1 0x5 SLOAD PUSH1 0x1 PUSH1 0x1 PUSH1 0xA0 SHL SUB AND DUP2 JUMP JUMPDEST PUSH1 0x3 SLOAD PUSH1 0x1 PUSH1 0x1 PUSH1 0xA0 SHL SUB AND DUP2 JUMP JUMPDEST PUSH1 0x11 SLOAD DUP2 JUMP JUMPDEST PUSH1 0x0 DUP1 PUSH1 0x0 DUP1 PUSH1 0x0 PUSH2 0x143D PUSH3 0xF4240 PUSH2 0xB79 DUP9 PUSH1 0x0 ADD MLOAD DUP10 PUSH1 0x40 ADD MLOAD PUSH2 0x3828 SWAP1 SWAP2 SWAP1 PUSH4 0xFFFFFFFF AND JUMP JUMPDEST SWAP2 POP PUSH2 0x1461 PUSH3 0xF4240 PUSH2 0xB79 DUP9 PUSH1 0x20 ADD MLOAD DUP10 PUSH1 0x60 ADD MLOAD PUSH2 0x3828 SWAP1 SWAP2 SWAP1 PUSH4 0xFFFFFFFF AND JUMP JUMPDEST SWAP1 POP PUSH1 0x0 PUSH2 0x1498 PUSH2 0x1482 DUP9 PUSH1 0x80 ADD MLOAD PUSH3 0xF4240 PUSH2 0x373C SWAP1 SWAP2 SWAP1 PUSH4 0xFFFFFFFF AND JUMP JUMPDEST PUSH1 0x80 DUP10 ADD MLOAD PUSH2 0xB79 SWAP1 DUP7 SWAP1 PUSH4 0xFFFFFFFF PUSH2 0x3828 AND JUMP JUMPDEST SWAP1 POP PUSH1 0x0 PUSH2 0x14BA DUP9 PUSH1 0x20 ADD MLOAD PUSH2 0xB79 PUSH3 0xF4240 DUP6 PUSH2 0x3828 SWAP1 SWAP2 SWAP1 PUSH4 0xFFFFFFFF AND JUMP JUMPDEST SWAP1 POP PUSH2 0x14CC DUP5 DUP4 PUSH4 0xFFFFFFFF PUSH2 0x3862 AND JUMP JUMPDEST DUP2 DUP10 PUSH1 0x40 ADD MLOAD SWAP7 POP SWAP7 POP SWAP7 POP POP POP POP POP JUMPDEST SWAP2 SWAP4 SWAP1 SWAP3 POP JUMP JUMPDEST PUSH1 0x0 PUSH2 0x14FD DUP4 PUSH2 0xB79 DUP5 PUSH3 0xF4240 PUSH4 0xFFFFFFFF PUSH2 0x3828 AND JUMP JUMPDEST SWAP1 POP JUMPDEST SWAP3 SWAP2 POP POP JUMP JUMPDEST PUSH1 0x0 DUP1 PUSH1 0x0 DUP1 PUSH1 0x0 DUP1 PUSH2 0x1518 DUP8 PUSH2 0x1D32 JUMP JUMPDEST SWAP3 POP SWAP3 POP SWAP3 POP PUSH1 0x0 DUP1 PUSH1 0x0 PUSH2 0x152C DUP11 PUSH2 0x1413 JUMP JUMPDEST SWAP3 POP SWAP3 POP SWAP3 POP DUP3 DUP7 GT ISZERO PUSH2 0x154A JUMPI SWAP2 SWAP8 POP SWAP6 POP SWAP4 POP PUSH2 0x14DD SWAP3 POP POP POP JUMP JUMPDEST POP SWAP4 SWAP7 POP SWAP2 SWAP5 POP SWAP3 POP PUSH2 0x14DD SWAP2 POP POP JUMP JUMPDEST PUSH1 0x0 SWAP1 DUP2 MSTORE PUSH1 0x1 PUSH1 0x20 MSTORE PUSH1 0x40 SWAP1 KECCAK256 PUSH1 0x2 ADD SLOAD SWAP1 JUMP JUMPDEST PUSH1 0x2 SLOAD PUSH1 0x1 PUSH1 0x1 PUSH1 0xA0 SHL SUB AND DUP2 JUMP JUMPDEST PUSH1 0x12 SLOAD DUP2 JUMP JUMPDEST PUSH1 0x7 SLOAD PUSH1 0x1 PUSH1 0x1 PUSH1 0xA0 SHL SUB AND DUP2 JUMP JUMPDEST PUSH1 0x40 MLOAD PUSH2 0xE3B SWAP1 PUSH2 0x3E02 JUMP JUMPDEST PUSH1 0xD SLOAD DUP2 JUMP JUMPDEST PUSH1 0x0 DUP3 DUP2 MSTORE PUSH1 0x1 PUSH1 0x20 MSTORE PUSH1 0x40 SWAP1 KECCAK256 PUSH1 0x2 ADD SLOAD PUSH2 0x15C4 SWAP1 PUSH2 0x889 PUSH2 0x3887 JUMP JUMPDEST PUSH2 0x15E0 JUMPI PUSH1 0x40 MLOAD PUSH3 0x461BCD PUSH1 0xE5 SHL DUP2 MSTORE PUSH1 0x4 ADD PUSH2 0x9EB SWAP1 PUSH2 0x3FBE JUMP JUMPDEST PUSH2 0x15EA DUP3 DUP3 PUSH2 0x388B JUMP JUMPDEST POP POP JUMP JUMPDEST PUSH1 0xF SLOAD DUP2 JUMP JUMPDEST PUSH1 0x1A SLOAD PUSH1 0x2 SLOAD PUSH1 0x40 MLOAD PUSH4 0x70A08231 PUSH1 0xE0 SHL DUP2 MSTORE PUSH1 0x0 SWAP3 PUSH2 0x1630 SWAP3 SWAP1 SWAP2 PUSH1 0x1 PUSH1 0x1 PUSH1 0xA0 SHL SUB SWAP1 SWAP2 AND SWAP1 PUSH4 0x70A08231 SWAP1 PUSH2 0x12B3 SWAP1 ADDRESS SWAP1 PUSH1 0x4 ADD PUSH2 0x3EB2 JUMP JUMPDEST SWAP1 POP SWAP1 JUMP JUMPDEST PUSH2 0x163D PUSH2 0x3887 JUMP JUMPDEST PUSH1 0x1 PUSH1 0x1 PUSH1 0xA0 SHL SUB AND DUP2 PUSH1 0x1 PUSH1 0x1 PUSH1 0xA0 SHL SUB AND EQ PUSH2 0x166D JUMPI PUSH1 0x40 MLOAD PUSH3 0x461BCD PUSH1 0xE5 SHL DUP2 MSTORE PUSH1 0x4 ADD PUSH2 0x9EB SWAP1 PUSH2 0x4687 JUMP JUMPDEST PUSH2 0x15EA DUP3 DUP3 PUSH2 0x38FA JUMP JUMPDEST PUSH1 0x18 PUSH1 0x20 MSTORE PUSH1 0x0 SWAP1 DUP2 MSTORE PUSH1 0x40 SWAP1 KECCAK256 SLOAD DUP2 JUMP JUMPDEST PUSH1 0x40 MLOAD PUSH2 0xE3B SWAP1 PUSH2 0x3E59 JUMP JUMPDEST PUSH1 0x0 PUSH2 0x16B3 DUP3 DUP6 EXP PUSH2 0xB79 DUP6 PUSH3 0xF4240 DUP7 SWAP1 EXP PUSH4 0xFFFFFFFF PUSH2 0x3828 AND JUMP JUMPDEST SWAP5 SWAP4 POP POP POP POP JUMP JUMPDEST PUSH32 0x0 DUP2 JUMP JUMPDEST PUSH2 0x16EE PUSH1 0x40 MLOAD PUSH2 0xD67 SWAP1 PUSH2 0x3E37 JUMP JUMPDEST PUSH2 0x16F7 JUMPI PUSH1 0x0 DUP1 REVERT JUMPDEST PUSH1 0x22 DUP1 SLOAD PUSH3 0xFF0000 NOT DUP2 AND PUSH3 0x10000 SWAP2 DUP3 SWAP1 DIV PUSH1 0xFF AND ISZERO SWAP1 SWAP2 MUL OR SWAP1 SSTORE JUMP JUMPDEST PUSH1 0x1F SLOAD DUP2 JUMP JUMPDEST PUSH3 0xF4240 DUP2 JUMP JUMPDEST PUSH2 0x1732 PUSH1 0x40 MLOAD PUSH2 0xD67 SWAP1 PUSH2 0x3E1D JUMP JUMPDEST PUSH2 0x173B JUMPI PUSH1 0x0 DUP1 REVERT JUMPDEST PUSH1 0x22 DUP1 SLOAD PUSH4 0xFF000000 NOT DUP2 AND PUSH4 0x1000000 SWAP2 DUP3 SWAP1 DIV PUSH1 0xFF AND ISZERO SWAP1 SWAP2 MUL OR SWAP1 SSTORE JUMP JUMPDEST PUSH1 0xC SLOAD DUP2 JUMP JUMPDEST DUP1 MLOAD PUSH1 0x0 SWAP1 PUSH2 0x1783 JUMPI PUSH1 0x40 MLOAD PUSH3 0x461BCD PUSH1 0xE5 SHL DUP2 MSTORE PUSH1 0x4 ADD PUSH2 0x9EB SWAP1 PUSH2 0x4237 JUMP JUMPDEST PUSH1 0x0 PUSH2 0x17A7 PUSH3 0xF4240 PUSH2 0xB79 DUP6 PUSH1 0x20 ADD MLOAD DUP7 PUSH1 0x60 ADD MLOAD PUSH2 0x3828 SWAP1 SWAP2 SWAP1 PUSH4 0xFFFFFFFF AND JUMP JUMPDEST DUP4 MLOAD SWAP1 SWAP2 POP DUP2 GT ISZERO PUSH2 0x17CB JUMPI PUSH1 0x40 MLOAD PUSH3 0x461BCD PUSH1 0xE5 SHL DUP2 MSTORE PUSH1 0x4 ADD PUSH2 0x9EB SWAP1 PUSH2 0x400D JUMP JUMPDEST PUSH1 0x40 DUP4 ADD MLOAD PUSH1 0x0 SWAP1 PUSH2 0x16B3 SWAP1 PUSH2 0xB79 DUP5 PUSH3 0xF4240 PUSH4 0xFFFFFFFF PUSH2 0x3828 AND JUMP JUMPDEST PUSH1 0x8 SLOAD PUSH1 0x1 PUSH1 0x1 PUSH1 0xA0 SHL SUB AND CALLER EQ DUP1 PUSH2 0x180D JUMPI POP PUSH1 0x4 SLOAD PUSH1 0x1 PUSH1 0x1 PUSH1 0xA0 SHL SUB AND CALLER EQ JUMPDEST PUSH2 0x1829 JUMPI PUSH1 0x40 MLOAD PUSH3 0x461BCD PUSH1 0xE5 SHL DUP2 MSTORE PUSH1 0x4 ADD PUSH2 0x9EB SWAP1 PUSH2 0x42C8 JUMP JUMPDEST PUSH1 0x5 DUP1 SLOAD PUSH1 0x1 PUSH1 0x1 PUSH1 0xA0 SHL SUB NOT AND PUSH1 0x1 PUSH1 0x1 PUSH1 0xA0 SHL SUB SWAP4 SWAP1 SWAP4 AND SWAP3 SWAP1 SWAP3 OR SWAP1 SWAP2 SSTORE PUSH1 0x15 SSTORE JUMP JUMPDEST PUSH2 0x1857 PUSH2 0x37A8 JUMP JUMPDEST ISZERO PUSH2 0x1874 JUMPI PUSH1 0x40 MLOAD PUSH3 0x461BCD PUSH1 0xE5 SHL DUP2 MSTORE PUSH1 0x4 ADD PUSH2 0x9EB SWAP1 PUSH2 0x45A8 JUMP JUMPDEST PUSH2 0x187C PUSH2 0x37C7 JUMP JUMPDEST ISZERO PUSH2 0x1899 JUMPI PUSH1 0x40 MLOAD PUSH3 0x461BCD PUSH1 0xE5 SHL DUP2 MSTORE PUSH1 0x4 ADD PUSH2 0x9EB SWAP1 PUSH2 0x45A8 JUMP JUMPDEST PUSH1 0x22 SLOAD PUSH1 0xFF AND ISZERO PUSH2 0x18BC JUMPI PUSH1 0x40 MLOAD PUSH3 0x461BCD PUSH1 0xE5 SHL DUP2 MSTORE PUSH1 0x4 ADD PUSH2 0x9EB SWAP1 PUSH2 0x44B4 JUMP JUMPDEST PUSH2 0x18C4 PUSH2 0x34B3 JUMP JUMPDEST ISZERO ISZERO PUSH1 0x1 EQ PUSH2 0x18E5 JUMPI PUSH1 0x40 MLOAD PUSH3 0x461BCD PUSH1 0xE5 SHL DUP2 MSTORE PUSH1 0x4 ADD PUSH2 0x9EB SWAP1 PUSH2 0x45EE JUMP JUMPDEST PUSH2 0x18ED PUSH2 0x31F0 JUMP JUMPDEST PUSH1 0xA SLOAD PUSH1 0x40 DUP1 MLOAD PUSH4 0xB5955E9D PUSH1 0xE0 SHL DUP2 MSTORE SWAP1 MLOAD PUSH1 0x0 SWAP3 PUSH1 0x1 PUSH1 0x1 PUSH1 0xA0 SHL SUB AND SWAP2 PUSH4 0xB5955E9D SWAP2 PUSH1 0x4 DUP1 DUP4 ADD SWAP3 PUSH1 0x20 SWAP3 SWAP2 SWAP1 DUP3 SWAP1 SUB ADD DUP2 DUP7 DUP1 EXTCODESIZE ISZERO DUP1 ISZERO PUSH2 0x1932 JUMPI PUSH1 0x0 DUP1 REVERT JUMPDEST POP GAS STATICCALL ISZERO DUP1 ISZERO PUSH2 0x1946 JUMPI RETURNDATASIZE PUSH1 0x0 DUP1 RETURNDATACOPY RETURNDATASIZE PUSH1 0x0 REVERT JUMPDEST POP POP POP POP PUSH1 0x40 MLOAD RETURNDATASIZE PUSH1 0x1F NOT PUSH1 0x1F DUP3 ADD AND DUP3 ADD DUP1 PUSH1 0x40 MSTORE POP DUP2 ADD SWAP1 PUSH2 0x196A SWAP2 SWAP1 PUSH2 0x3D43 JUMP JUMPDEST SWAP1 POP PUSH1 0x0 PUSH1 0xA PUSH1 0x0 SWAP1 SLOAD SWAP1 PUSH2 0x100 EXP SWAP1 DIV PUSH1 0x1 PUSH1 0x1 PUSH1 0xA0 SHL SUB AND PUSH1 0x1 PUSH1 0x1 PUSH1 0xA0 SHL SUB AND PUSH4 0x2EB9771B PUSH1 0x40 MLOAD DUP2 PUSH4 0xFFFFFFFF AND PUSH1 0xE0 SHL DUP2 MSTORE PUSH1 0x4 ADD PUSH1 0x20 PUSH1 0x40 MLOAD DUP1 DUP4 SUB DUP2 DUP7 DUP1 EXTCODESIZE ISZERO DUP1 ISZERO PUSH2 0x19BC JUMPI PUSH1 0x0 DUP1 REVERT JUMPDEST POP GAS STATICCALL ISZERO DUP1 ISZERO PUSH2 0x19D0 JUMPI RETURNDATASIZE PUSH1 0x0 DUP1 RETURNDATACOPY RETURNDATASIZE PUSH1 0x0 REVERT JUMPDEST POP POP POP POP PUSH1 0x40 MLOAD RETURNDATASIZE PUSH1 0x1F NOT PUSH1 0x1F DUP3 ADD AND DUP3 ADD DUP1 PUSH1 0x40 MSTORE POP DUP2 ADD SWAP1 PUSH2 0x19F4 SWAP2 SWAP1 PUSH2 0x3D43 JUMP JUMPDEST SWAP1 POP PUSH3 0xF4240 DUP2 LT DUP1 ISZERO PUSH2 0x1A08 JUMPI POP PUSH1 0x0 DUP2 GT JUMPDEST PUSH2 0x1A24 JUMPI PUSH1 0x40 MLOAD PUSH3 0x461BCD PUSH1 0xE5 SHL DUP2 MSTORE PUSH1 0x4 ADD PUSH2 0x9EB SWAP1 PUSH2 0x40CB JUMP JUMPDEST PUSH1 0x1D SLOAD PUSH2 0x1A3F DUP7 PUSH2 0x1A33 PUSH2 0x15F4 JUMP JUMPDEST SWAP1 PUSH4 0xFFFFFFFF PUSH2 0x3862 AND JUMP JUMPDEST GT ISZERO PUSH2 0x1A5D JUMPI PUSH1 0x40 MLOAD PUSH3 0x461BCD PUSH1 0xE5 SHL DUP2 MSTORE PUSH1 0x4 ADD PUSH2 0x9EB SWAP1 PUSH2 0x43B5 JUMP JUMPDEST PUSH32 0x0 PUSH1 0xA EXP DUP6 MUL PUSH2 0x1A8B PUSH2 0x3B69 JUMP JUMPDEST PUSH1 0x40 MLOAD DUP1 PUSH1 0xA0 ADD PUSH1 0x40 MSTORE DUP1 DUP6 DUP2 MSTORE PUSH1 0x20 ADD PUSH2 0x1AA4 PUSH2 0x36F0 JUMP JUMPDEST DUP2 MSTORE PUSH1 0x20 ADD DUP8 DUP2 MSTORE PUSH1 0x20 ADD DUP4 DUP2 MSTORE PUSH1 0x20 ADD DUP5 DUP2 MSTORE POP SWAP1 POP PUSH1 0x0 DUP1 PUSH1 0x0 PUSH2 0x1AC9 DUP5 PUSH2 0x1506 JUMP JUMPDEST SWAP3 POP SWAP3 POP SWAP3 POP PUSH2 0x1AEE PUSH2 0xB85 PUSH3 0xF4240 PUSH2 0xB79 PUSH1 0x15 SLOAD DUP8 PUSH2 0x3828 SWAP1 SWAP2 SWAP1 PUSH4 0xFFFFFFFF AND JUMP JUMPDEST PUSH1 0x16 SSTORE PUSH2 0x1B13 PUSH3 0xF4240 PUSH2 0xB79 PUSH2 0x1B06 PUSH2 0xBAC PUSH2 0x2A21 JUMP JUMPDEST DUP7 SWAP1 PUSH4 0xFFFFFFFF PUSH2 0x3828 AND JUMP JUMPDEST SWAP3 POP DUP3 DUP9 GT ISZERO PUSH2 0x1B35 JUMPI PUSH1 0x40 MLOAD PUSH3 0x461BCD PUSH1 0xE5 SHL DUP2 MSTORE PUSH1 0x4 ADD PUSH2 0x9EB SWAP1 PUSH2 0x450C JUMP JUMPDEST DUP9 DUP2 GT ISZERO PUSH2 0x1B55 JUMPI PUSH1 0x40 MLOAD PUSH3 0x461BCD PUSH1 0xE5 SHL DUP2 MSTORE PUSH1 0x4 ADD PUSH2 0x9EB SWAP1 PUSH2 0x441F JUMP JUMPDEST PUSH1 0x0 PUSH2 0x1B8A DUP4 PUSH32 0x0 PUSH1 0xA EXP PUSH4 0xFFFFFFFF PUSH2 0x37E6 AND JUMP JUMPDEST PUSH1 0x9 SLOAD PUSH1 0x40 MLOAD PUSH4 0x5453BC57 PUSH1 0xE1 SHL DUP2 MSTORE SWAP2 SWAP3 POP PUSH1 0x1 PUSH1 0x1 PUSH1 0xA0 SHL SUB AND SWAP1 PUSH4 0xA8A778AE SWAP1 PUSH2 0x1BBD SWAP1 CALLER SWAP1 DUP7 SWAP1 PUSH1 0x4 ADD PUSH2 0x3EEA JUMP JUMPDEST PUSH1 0x0 PUSH1 0x40 MLOAD DUP1 DUP4 SUB DUP2 PUSH1 0x0 DUP8 DUP1 EXTCODESIZE ISZERO DUP1 ISZERO PUSH2 0x1BD7 JUMPI PUSH1 0x0 DUP1 REVERT JUMPDEST POP GAS CALL ISZERO DUP1 ISZERO PUSH2 0x1BEB JUMPI RETURNDATASIZE PUSH1 0x0 DUP1 RETURNDATACOPY RETURNDATASIZE PUSH1 0x0 REVERT JUMPDEST POP POP PUSH1 0x2 SLOAD PUSH1 0x40 MLOAD PUSH4 0x23B872DD PUSH1 0xE0 SHL DUP2 MSTORE PUSH1 0x1 PUSH1 0x1 PUSH1 0xA0 SHL SUB SWAP1 SWAP2 AND SWAP3 POP PUSH4 0x23B872DD SWAP2 POP PUSH2 0x1C23 SWAP1 CALLER SWAP1 ADDRESS SWAP1 DUP7 SWAP1 PUSH1 0x4 ADD PUSH2 0x3EC6 JUMP JUMPDEST PUSH1 0x20 PUSH1 0x40 MLOAD DUP1 DUP4 SUB DUP2 PUSH1 0x0 DUP8 DUP1 EXTCODESIZE ISZERO DUP1 ISZERO PUSH2 0x1C3D JUMPI PUSH1 0x0 DUP1 REVERT JUMPDEST POP GAS CALL ISZERO DUP1 ISZERO PUSH2 0x1C51 JUMPI RETURNDATASIZE PUSH1 0x0 DUP1 RETURNDATACOPY RETURNDATASIZE PUSH1 0x0 REVERT JUMPDEST POP POP POP POP PUSH1 0x40 MLOAD RETURNDATASIZE PUSH1 0x1F NOT PUSH1 0x1F DUP3 ADD AND DUP3 ADD DUP1 PUSH1 0x40 MSTORE POP DUP2 ADD SWAP1 PUSH2 0x1C75 SWAP2 SWAP1 PUSH2 0x3C07 JUMP JUMPDEST POP PUSH1 0xA SLOAD PUSH1 0x40 MLOAD PUSH4 0x5A7AB593 PUSH1 0xE1 SHL DUP2 MSTORE PUSH1 0x1 PUSH1 0x1 PUSH1 0xA0 SHL SUB SWAP1 SWAP2 AND SWAP1 PUSH4 0xB4F56B26 SWAP1 PUSH2 0x1CA8 SWAP1 CALLER SWAP1 DUP9 SWAP1 PUSH1 0x4 ADD PUSH2 0x3EEA JUMP JUMPDEST PUSH1 0x0 PUSH1 0x40 MLOAD DUP1 DUP4 SUB DUP2 PUSH1 0x0 DUP8 DUP1 EXTCODESIZE ISZERO DUP1 ISZERO PUSH2 0x1CC2 JUMPI PUSH1 0x0 DUP1 REVERT JUMPDEST POP GAS CALL ISZERO DUP1 ISZERO PUSH2 0x1CD6 JUMPI RETURNDATASIZE PUSH1 0x0 DUP1 RETURNDATACOPY RETURNDATASIZE PUSH1 0x0 REVERT JUMPDEST POP POP NUMBER PUSH1 0x0 SWAP1 DUP2 MSTORE PUSH1 0x20 DUP2 DUP2 MSTORE PUSH1 0x40 DUP1 DUP4 KECCAK256 ORIGIN DUP5 MSTORE SWAP1 SWAP2 MSTORE DUP1 DUP3 KECCAK256 DUP1 SLOAD PUSH1 0x1 PUSH1 0xFF NOT SWAP2 DUP3 AND DUP2 OR SWAP1 SWAP3 SSTORE CALLER DUP5 MSTORE SWAP2 SWAP1 SWAP3 KECCAK256 DUP1 SLOAD SWAP1 SWAP2 AND SWAP1 SWAP2 OR SWAP1 SSTORE POP POP POP POP POP POP POP POP POP POP POP POP POP JUMP JUMPDEST PUSH1 0x1B SLOAD DUP2 JUMP JUMPDEST PUSH1 0x10 SLOAD DUP2 JUMP JUMPDEST PUSH1 0x1D SLOAD DUP2 JUMP JUMPDEST PUSH1 0x0 DUP1 PUSH1 0x0 DUP1 PUSH1 0x0 PUSH2 0x1D5C PUSH3 0xF4240 PUSH2 0xB79 DUP9 PUSH1 0x0 ADD MLOAD DUP10 PUSH1 0x40 ADD MLOAD PUSH2 0x3828 SWAP1 SWAP2 SWAP1 PUSH4 0xFFFFFFFF AND JUMP JUMPDEST SWAP2 POP PUSH2 0x1D80 PUSH3 0xF4240 PUSH2 0xB79 DUP9 PUSH1 0x20 ADD MLOAD DUP10 PUSH1 0x60 ADD MLOAD PUSH2 0x3828 SWAP1 SWAP2 SWAP1 PUSH4 0xFFFFFFFF AND JUMP JUMPDEST SWAP1 POP PUSH1 0x0 PUSH2 0x1DA6 DUP3 PUSH2 0xEDF DUP10 PUSH1 0x80 ADD MLOAD PUSH2 0xB79 PUSH3 0xF4240 DUP8 PUSH2 0x3828 SWAP1 SWAP2 SWAP1 PUSH4 0xFFFFFFFF AND JUMP JUMPDEST DUP8 MLOAD SWAP1 SWAP2 POP PUSH1 0x0 SWAP1 PUSH2 0x1DC5 SWAP1 PUSH2 0xB79 DUP5 PUSH3 0xF4240 PUSH4 0xFFFFFFFF PUSH2 0x3828 AND JUMP JUMPDEST SWAP1 POP PUSH2 0x1DD7 DUP4 DUP4 PUSH4 0xFFFFFFFF PUSH2 0x3862 AND JUMP JUMPDEST PUSH1 0x60 SWAP9 SWAP1 SWAP9 ADD MLOAD SWAP8 SWAP9 SWAP1 SWAP7 POP SWAP5 POP POP POP POP POP JUMP JUMPDEST PUSH1 0x40 MLOAD PUSH2 0xE3B SWAP1 PUSH2 0x3E37 JUMP JUMPDEST PUSH1 0x22 SLOAD PUSH3 0x10000 SWAP1 DIV PUSH1 0xFF AND DUP2 JUMP JUMPDEST PUSH1 0x0 DUP1 PUSH2 0x1E1F PUSH2 0x1E14 PUSH2 0x2954 JUMP JUMPDEST PUSH1 0x10 SLOAD PUSH1 0x11 SLOAD PUSH2 0x1695 JUMP JUMPDEST PUSH1 0xF SLOAD ADD SWAP2 POP POP SWAP1 JUMP JUMPDEST PUSH1 0x14 SLOAD DUP2 JUMP JUMPDEST PUSH2 0x1E3E PUSH1 0x40 MLOAD PUSH2 0xD67 SWAP1 PUSH2 0x3E72 JUMP JUMPDEST PUSH2 0x1E47 JUMPI PUSH1 0x0 DUP1 REVERT JUMPDEST PUSH1 0x22 SLOAD PUSH5 0x100000000 SWAP1 DIV PUSH1 0xFF AND PUSH2 0x1E63 JUMPI PUSH1 0x1E DUP2 SWAP1 SSTORE PUSH2 0x1E69 JUMP JUMPDEST PUSH1 0x0 PUSH1 0x1E SSTORE JUMPDEST POP PUSH1 0x22 DUP1 SLOAD PUSH5 0xFF00000000 NOT DUP2 AND PUSH5 0x100000000 SWAP2 DUP3 SWAP1 DIV PUSH1 0xFF AND ISZERO SWAP1 SWAP2 MUL OR SWAP1 SSTORE JUMP JUMPDEST PUSH1 0x1A SLOAD DUP2 JUMP JUMPDEST PUSH2 0x1EA2 PUSH1 0x40 MLOAD PUSH2 0xD67 SWAP1 PUSH2 0x3E9B JUMP JUMPDEST PUSH2 0x1EAB JUMPI PUSH1 0x0 DUP1 REVERT JUMPDEST PUSH1 0x22 DUP1 SLOAD PUSH1 0xFF NOT DUP2 AND PUSH1 0xFF SWAP1 SWAP2 AND ISZERO OR SWAP1 SSTORE JUMP JUMPDEST PUSH1 0x8 SLOAD PUSH1 0x1 PUSH1 0x1 PUSH1 0xA0 SHL SUB AND CALLER EQ DUP1 PUSH2 0x1EE2 JUMPI POP PUSH1 0x4 SLOAD PUSH1 0x1 PUSH1 0x1 PUSH1 0xA0 SHL SUB AND CALLER EQ JUMPDEST PUSH2 0x1EFE JUMPI PUSH1 0x40 MLOAD PUSH3 0x461BCD PUSH1 0xE5 SHL DUP2 MSTORE PUSH1 0x4 ADD PUSH2 0x9EB SWAP1 PUSH2 0x42C8 JUMP JUMPDEST PUSH1 0x12 SWAP5 SWAP1 SWAP5 SSTORE PUSH1 0xF SWAP3 SWAP1 SWAP3 SSTORE PUSH1 0x10 SSTORE PUSH1 0x11 SSTORE PUSH1 0xE SSTORE JUMP JUMPDEST PUSH1 0x22 SLOAD PUSH1 0xFF AND DUP2 JUMP JUMPDEST PUSH1 0x22 SLOAD PUSH4 0x1000000 SWAP1 DIV PUSH1 0xFF AND DUP2 JUMP JUMPDEST PUSH1 0x4 SLOAD PUSH1 0x1 PUSH1 0x1 PUSH1 0xA0 SHL SUB AND DUP2 JUMP JUMPDEST PUSH2 0x1F45 PUSH2 0x37A8 JUMP JUMPDEST ISZERO PUSH2 0x1F62 JUMPI PUSH1 0x40 MLOAD PUSH3 0x461BCD PUSH1 0xE5 SHL DUP2 MSTORE PUSH1 0x4 ADD PUSH2 0x9EB SWAP1 PUSH2 0x45A8 JUMP JUMPDEST PUSH2 0x1F6A PUSH2 0x37C7 JUMP JUMPDEST ISZERO PUSH2 0x1F87 JUMPI PUSH1 0x40 MLOAD PUSH3 0x461BCD PUSH1 0xE5 SHL DUP2 MSTORE PUSH1 0x4 ADD PUSH2 0x9EB SWAP1 PUSH2 0x45A8 JUMP JUMPDEST PUSH1 0x22 SLOAD PUSH2 0x100 SWAP1 DIV PUSH1 0xFF AND ISZERO PUSH2 0x1FAF JUMPI PUSH1 0x40 MLOAD PUSH3 0x461BCD PUSH1 0xE5 SHL DUP2 MSTORE PUSH1 0x4 ADD PUSH2 0x9EB SWAP1 PUSH2 0x420A JUMP JUMPDEST PUSH2 0x1FB7 PUSH2 0x3442 JUMP JUMPDEST ISZERO ISZERO PUSH1 0x1 EQ PUSH2 0x1FD8 JUMPI PUSH1 0x40 MLOAD PUSH3 0x461BCD PUSH1 0xE5 SHL DUP2 MSTORE PUSH1 0x4 ADD PUSH2 0x9EB SWAP1 PUSH2 0x44DF JUMP JUMPDEST PUSH2 0x1FE0 PUSH2 0x31F0 JUMP JUMPDEST PUSH1 0xA SLOAD PUSH1 0x40 DUP1 MLOAD PUSH4 0x2EB9771B PUSH1 0xE0 SHL DUP2 MSTORE SWAP1 MLOAD PUSH1 0x0 SWAP3 PUSH1 0x1 PUSH1 0x1 PUSH1 0xA0 SHL SUB AND SWAP2 PUSH4 0x2EB9771B SWAP2 PUSH1 0x4 DUP1 DUP4 ADD SWAP3 PUSH1 0x20 SWAP3 SWAP2 SWAP1 DUP3 SWAP1 SUB ADD DUP2 DUP7 DUP1 EXTCODESIZE ISZERO DUP1 ISZERO PUSH2 0x2025 JUMPI PUSH1 0x0 DUP1 REVERT JUMPDEST POP GAS STATICCALL ISZERO DUP1 ISZERO PUSH2 0x2039 JUMPI RETURNDATASIZE PUSH1 0x0 DUP1 RETURNDATACOPY RETURNDATASIZE PUSH1 0x0 REVERT JUMPDEST POP POP POP POP PUSH1 0x40 MLOAD RETURNDATASIZE PUSH1 0x1F NOT PUSH1 0x1F DUP3 ADD AND DUP3 ADD DUP1 PUSH1 0x40 MSTORE POP DUP2 ADD SWAP1 PUSH2 0x205D SWAP2 SWAP1 PUSH2 0x3D43 JUMP JUMPDEST SWAP1 POP PUSH3 0xF4240 DUP2 LT DUP1 ISZERO PUSH2 0x2071 JUMPI POP PUSH1 0x0 DUP2 GT JUMPDEST PUSH2 0x208D JUMPI PUSH1 0x40 MLOAD PUSH3 0x461BCD PUSH1 0xE5 SHL DUP2 MSTORE PUSH1 0x4 ADD PUSH2 0x9EB SWAP1 PUSH2 0x40CB JUMP JUMPDEST PUSH2 0x20A9 PUSH3 0xF4240 PUSH2 0xB79 PUSH1 0xE SLOAD DUP5 PUSH2 0x3828 SWAP1 SWAP2 SWAP1 PUSH4 0xFFFFFFFF AND JUMP JUMPDEST SWAP1 POP PUSH1 0x0 PUSH2 0x20CF PUSH3 0xF4240 PUSH2 0xB79 PUSH2 0x20C2 PUSH2 0xBAC PUSH2 0x1E06 JUMP JUMPDEST DUP9 SWAP1 PUSH4 0xFFFFFFFF PUSH2 0x3828 AND JUMP JUMPDEST SWAP1 POP PUSH1 0x0 PUSH2 0x20FA PUSH2 0x20ED PUSH3 0xF4240 PUSH2 0xB79 DUP6 DUP8 PUSH4 0xFFFFFFFF PUSH2 0x3828 AND JUMP JUMPDEST DUP4 SWAP1 PUSH4 0xFFFFFFFF PUSH2 0x373C AND JUMP JUMPDEST SWAP1 POP PUSH1 0x0 PUSH2 0x219A PUSH1 0xA PUSH1 0x0 SWAP1 SLOAD SWAP1 PUSH2 0x100 EXP SWAP1 DIV PUSH1 0x1 PUSH1 0x1 PUSH1 0xA0 SHL SUB AND PUSH1 0x1 PUSH1 0x1 PUSH1 0xA0 SHL SUB AND PUSH4 0xB5955E9D PUSH1 0x40 MLOAD DUP2 PUSH4 0xFFFFFFFF AND PUSH1 0xE0 SHL DUP2 MSTORE PUSH1 0x4 ADD PUSH1 0x20 PUSH1 0x40 MLOAD DUP1 DUP4 SUB DUP2 DUP7 DUP1 EXTCODESIZE ISZERO DUP1 ISZERO PUSH2 0x214F JUMPI PUSH1 0x0 DUP1 REVERT JUMPDEST POP GAS STATICCALL ISZERO DUP1 ISZERO PUSH2 0x2163 JUMPI RETURNDATASIZE PUSH1 0x0 DUP1 RETURNDATACOPY RETURNDATASIZE PUSH1 0x0 REVERT JUMPDEST POP POP POP POP PUSH1 0x40 MLOAD RETURNDATASIZE PUSH1 0x1F NOT PUSH1 0x1F DUP3 ADD AND DUP3 ADD DUP1 PUSH1 0x40 MSTORE POP DUP2 ADD SWAP1 PUSH2 0x2187 SWAP2 SWAP1 PUSH2 0x3D43 JUMP JUMPDEST PUSH2 0xB79 DUP5 PUSH3 0xF4240 PUSH4 0xFFFFFFFF PUSH2 0x3828 AND JUMP JUMPDEST SWAP1 POP PUSH1 0x0 PUSH2 0x21D1 DUP5 PUSH32 0x0 PUSH1 0xA EXP PUSH4 0xFFFFFFFF PUSH2 0x37E6 AND JUMP JUMPDEST SWAP1 POP PUSH1 0x0 PUSH2 0x21EC PUSH3 0xF4240 PUSH2 0xB79 DUP5 DUP10 PUSH4 0xFFFFFFFF PUSH2 0x3828 AND JUMP JUMPDEST SWAP1 POP PUSH1 0x0 PUSH2 0x21FB PUSH2 0x2187 PUSH2 0x36F0 JUMP JUMPDEST SWAP1 POP PUSH2 0x2205 PUSH2 0x15F4 JUMP JUMPDEST DUP2 GT ISZERO PUSH2 0x2224 JUMPI PUSH1 0x40 MLOAD PUSH3 0x461BCD PUSH1 0xE5 SHL DUP2 MSTORE PUSH1 0x4 ADD PUSH2 0x9EB SWAP1 PUSH2 0x4650 JUMP JUMPDEST DUP1 DUP9 GT ISZERO PUSH2 0x2244 JUMPI PUSH1 0x40 MLOAD PUSH3 0x461BCD PUSH1 0xE5 SHL DUP2 MSTORE PUSH1 0x4 ADD PUSH2 0x9EB SWAP1 PUSH2 0x4128 JUMP JUMPDEST DUP4 DUP10 GT ISZERO PUSH2 0x2264 JUMPI PUSH1 0x40 MLOAD PUSH3 0x461BCD PUSH1 0xE5 SHL DUP2 MSTORE PUSH1 0x4 ADD PUSH2 0x9EB SWAP1 PUSH2 0x437E JUMP JUMPDEST PUSH2 0x2283 PUSH2 0xB85 PUSH3 0xF4240 PUSH2 0xB79 PUSH1 0x15 SLOAD DUP15 PUSH2 0x3828 SWAP1 SWAP2 SWAP1 PUSH4 0xFFFFFFFF AND JUMP JUMPDEST PUSH1 0x16 SSTORE CALLER PUSH1 0x0 SWAP1 DUP2 MSTORE PUSH1 0x19 PUSH1 0x20 MSTORE PUSH1 0x40 SWAP1 KECCAK256 SLOAD PUSH2 0x22A6 SWAP1 DUP3 PUSH4 0xFFFFFFFF PUSH2 0x3862 AND JUMP JUMPDEST CALLER PUSH1 0x0 SWAP1 DUP2 MSTORE PUSH1 0x19 PUSH1 0x20 MSTORE PUSH1 0x40 SWAP1 KECCAK256 SSTORE PUSH1 0x1A SLOAD PUSH2 0x22C9 SWAP1 DUP3 PUSH4 0xFFFFFFFF PUSH2 0x3862 AND JUMP JUMPDEST PUSH1 0x1A SSTORE CALLER PUSH1 0x0 SWAP1 DUP2 MSTORE PUSH1 0x18 PUSH1 0x20 MSTORE PUSH1 0x40 SWAP1 KECCAK256 SLOAD PUSH2 0x22EC SWAP1 DUP6 PUSH4 0xFFFFFFFF PUSH2 0x3862 AND JUMP JUMPDEST CALLER PUSH1 0x0 SWAP1 DUP2 MSTORE PUSH1 0x18 PUSH1 0x20 MSTORE PUSH1 0x40 SWAP1 KECCAK256 SSTORE PUSH1 0x1B SLOAD PUSH2 0x230F SWAP1 DUP6 PUSH4 0xFFFFFFFF PUSH2 0x3862 AND JUMP JUMPDEST PUSH1 0x1B SSTORE CALLER PUSH1 0x0 DUP2 DUP2 MSTORE PUSH1 0x1C PUSH1 0x20 MSTORE PUSH1 0x40 SWAP1 DUP2 SWAP1 KECCAK256 NUMBER SWAP1 SSTORE PUSH1 0xA SLOAD SWAP1 MLOAD PUSH4 0x5453BC57 PUSH1 0xE1 SHL DUP2 MSTORE PUSH1 0x1 PUSH1 0x1 PUSH1 0xA0 SHL SUB SWAP1 SWAP2 AND SWAP2 PUSH4 0xA8A778AE SWAP2 PUSH2 0x2356 SWAP2 SWAP1 DUP15 SWAP1 PUSH1 0x4 ADD PUSH2 0x3EEA JUMP JUMPDEST PUSH1 0x0 PUSH1 0x40 MLOAD DUP1 DUP4 SUB DUP2 PUSH1 0x0 DUP8 DUP1 EXTCODESIZE ISZERO DUP1 ISZERO PUSH2 0x2370 JUMPI PUSH1 0x0 DUP1 REVERT JUMPDEST POP GAS CALL ISZERO DUP1 ISZERO PUSH2 0x2384 JUMPI RETURNDATASIZE PUSH1 0x0 DUP1 RETURNDATACOPY RETURNDATASIZE PUSH1 0x0 REVERT JUMPDEST POP POP PUSH1 0x9 SLOAD PUSH1 0x40 MLOAD PUSH4 0x5A7AB593 PUSH1 0xE1 SHL DUP2 MSTORE PUSH1 0x1 PUSH1 0x1 PUSH1 0xA0 SHL SUB SWAP1 SWAP2 AND SWAP3 POP PUSH4 0xB4F56B26 SWAP2 POP PUSH2 0x23BA SWAP1 ADDRESS SWAP1 DUP9 SWAP1 PUSH1 0x4 ADD PUSH2 0x3EEA JUMP JUMPDEST PUSH1 0x0 PUSH1 0x40 MLOAD DUP1 DUP4 SUB DUP2 PUSH1 0x0 DUP8 DUP1 EXTCODESIZE ISZERO DUP1 ISZERO PUSH2 0x23D4 JUMPI PUSH1 0x0 DUP1 REVERT JUMPDEST POP GAS CALL ISZERO DUP1 ISZERO PUSH2 0x23E8 JUMPI RETURNDATASIZE PUSH1 0x0 DUP1 RETURNDATACOPY RETURNDATASIZE PUSH1 0x0 REVERT JUMPDEST POP POP POP POP PUSH2 0x23F4 PUSH2 0x3442 JUMP JUMPDEST ISZERO ISZERO PUSH1 0x1 EQ PUSH2 0x2415 JUMPI PUSH1 0x40 MLOAD PUSH3 0x461BCD PUSH1 0xE5 SHL DUP2 MSTORE PUSH1 0x4 ADD PUSH2 0x9EB SWAP1 PUSH2 0x4619 JUMP JUMPDEST POP POP NUMBER PUSH1 0x0 SWAP1 DUP2 MSTORE PUSH1 0x20 DUP2 DUP2 MSTORE PUSH1 0x40 DUP1 DUP4 KECCAK256 ORIGIN DUP5 MSTORE SWAP1 SWAP2 MSTORE DUP1 DUP3 KECCAK256 DUP1 SLOAD PUSH1 0x1 PUSH1 0xFF NOT SWAP2 DUP3 AND DUP2 OR SWAP1 SWAP3 SSTORE CALLER DUP5 MSTORE SWAP2 SWAP1 SWAP3 KECCAK256 DUP1 SLOAD SWAP1 SWAP2 AND SWAP1 SWAP2 OR SWAP1 SSTORE POP POP POP POP POP POP POP POP JUMP JUMPDEST PUSH2 0x2462 PUSH2 0x37A8 JUMP JUMPDEST ISZERO PUSH2 0x247F JUMPI PUSH1 0x40 MLOAD PUSH3 0x461BCD PUSH1 0xE5 SHL DUP2 MSTORE PUSH1 0x4 ADD PUSH2 0x9EB SWAP1 PUSH2 0x45A8 JUMP JUMPDEST PUSH2 0x2487 PUSH2 0x37C7 JUMP JUMPDEST ISZERO PUSH2 0x24A4 JUMPI PUSH1 0x40 MLOAD PUSH3 0x461BCD PUSH1 0xE5 SHL DUP2 MSTORE PUSH1 0x4 ADD PUSH2 0x9EB SWAP1 PUSH2 0x45A8 JUMP JUMPDEST PUSH1 0x22 SLOAD PUSH1 0xFF AND ISZERO PUSH2 0x24C7 JUMPI PUSH1 0x40 MLOAD PUSH3 0x461BCD PUSH1 0xE5 SHL DUP2 MSTORE PUSH1 0x4 ADD PUSH2 0x9EB SWAP1 PUSH2 0x44B4 JUMP JUMPDEST PUSH2 0x24CF PUSH2 0x34B3 JUMP JUMPDEST ISZERO ISZERO PUSH1 0x1 EQ PUSH2 0x24F0 JUMPI PUSH1 0x40 MLOAD PUSH3 0x461BCD PUSH1 0xE5 SHL DUP2 MSTORE PUSH1 0x4 ADD PUSH2 0x9EB SWAP1 PUSH2 0x45EE JUMP JUMPDEST PUSH2 0x24F8 PUSH2 0x31F0 JUMP JUMPDEST PUSH1 0xA DUP1 SLOAD PUSH1 0x40 DUP1 MLOAD PUSH4 0x2EB9771B PUSH1 0xE0 SHL DUP2 MSTORE SWAP1 MLOAD PUSH32 0x0 SWAP1 SWAP4 EXP DUP6 MUL SWAP3 PUSH3 0xF4240 SWAP3 PUSH1 0x1 PUSH1 0x1 PUSH1 0xA0 SHL SUB AND SWAP2 PUSH4 0x2EB9771B SWAP2 PUSH1 0x4 DUP1 DUP4 ADD SWAP3 PUSH1 0x20 SWAP3 SWAP2 SWAP1 DUP3 SWAP1 SUB ADD DUP2 DUP7 DUP1 EXTCODESIZE ISZERO DUP1 ISZERO PUSH2 0x2567 JUMPI PUSH1 0x0 DUP1 REVERT JUMPDEST POP GAS STATICCALL ISZERO DUP1 ISZERO PUSH2 0x257B JUMPI RETURNDATASIZE PUSH1 0x0 DUP1 RETURNDATACOPY RETURNDATASIZE PUSH1 0x0 REVERT JUMPDEST POP POP POP POP PUSH1 0x40 MLOAD RETURNDATASIZE PUSH1 0x1F NOT PUSH1 0x1F DUP3 ADD AND DUP3 ADD DUP1 PUSH1 0x40 MSTORE POP DUP2 ADD SWAP1 PUSH2 0x259F SWAP2 SWAP1 PUSH2 0x3D43 JUMP JUMPDEST LT ISZERO PUSH2 0x25BD JUMPI PUSH1 0x40 MLOAD PUSH3 0x461BCD PUSH1 0xE5 SHL DUP2 MSTORE PUSH1 0x4 ADD PUSH2 0x9EB SWAP1 PUSH2 0x405D JUMP JUMPDEST PUSH1 0x1D SLOAD PUSH2 0x25CC DUP5 PUSH2 0x1A33 PUSH2 0x15F4 JUMP JUMPDEST GT ISZERO PUSH2 0x25EA JUMPI PUSH1 0x40 MLOAD PUSH3 0x461BCD PUSH1 0xE5 SHL DUP2 MSTORE PUSH1 0x4 ADD PUSH2 0x9EB SWAP1 PUSH2 0x453C JUMP JUMPDEST PUSH1 0x0 PUSH2 0x25FD PUSH2 0x25F7 PUSH2 0x36F0 JUMP JUMPDEST DUP4 PUSH2 0x350A JUMP JUMPDEST SWAP1 POP PUSH2 0x261E PUSH2 0xB85 PUSH3 0xF4240 PUSH2 0xB79 PUSH1 0x15 SLOAD DUP6 PUSH2 0x3828 SWAP1 SWAP2 SWAP1 PUSH4 0xFFFFFFFF AND JUMP JUMPDEST PUSH1 0x16 SSTORE PUSH2 0x2636 PUSH3 0xF4240 PUSH2 0xB79 PUSH2 0xBBC PUSH2 0xBAC PUSH2 0x2A21 JUMP JUMPDEST SWAP1 POP DUP1 DUP4 GT ISZERO PUSH2 0x2658 JUMPI PUSH1 0x40 MLOAD PUSH3 0x461BCD PUSH1 0xE5 SHL DUP2 MSTORE PUSH1 0x4 ADD PUSH2 0x9EB SWAP1 PUSH2 0x450C JUMP JUMPDEST PUSH1 0x2 SLOAD PUSH1 0x40 MLOAD PUSH4 0x23B872DD PUSH1 0xE0 SHL DUP2 MSTORE PUSH1 0x1 PUSH1 0x1 PUSH1 0xA0 SHL SUB SWAP1 SWAP2 AND SWAP1 PUSH4 0x23B872DD SWAP1 PUSH2 0x268C SWAP1 CALLER SWAP1 ADDRESS SWAP1 DUP10 SWAP1 PUSH1 0x4 ADD PUSH2 0x3EC6 JUMP JUMPDEST PUSH1 0x20 PUSH1 0x40 MLOAD DUP1 DUP4 SUB DUP2 PUSH1 0x0 DUP8 DUP1 EXTCODESIZE ISZERO DUP1 ISZERO PUSH2 0x26A6 JUMPI PUSH1 0x0 DUP1 REVERT JUMPDEST POP GAS CALL ISZERO DUP1 ISZERO PUSH2 0x26BA JUMPI RETURNDATASIZE PUSH1 0x0 DUP1 RETURNDATACOPY RETURNDATASIZE PUSH1 0x0 REVERT JUMPDEST POP POP POP POP PUSH1 0x40 MLOAD RETURNDATASIZE PUSH1 0x1F NOT PUSH1 0x1F DUP3 ADD AND DUP3 ADD DUP1 PUSH1 0x40 MSTORE POP DUP2 ADD SWAP1 PUSH2 0x26DE SWAP2 SWAP1 PUSH2 0x3C07 JUMP JUMPDEST POP PUSH1 0xA SLOAD PUSH1 0x40 MLOAD PUSH4 0x5A7AB593 PUSH1 0xE1 SHL DUP2 MSTORE PUSH1 0x1 PUSH1 0x1 PUSH1 0xA0 SHL SUB SWAP1 SWAP2 AND SWAP1 PUSH4 0xB4F56B26 SWAP1 PUSH2 0x2711 SWAP1 CALLER SWAP1 DUP6 SWAP1 PUSH1 0x4 ADD PUSH2 0x3EEA JUMP JUMPDEST PUSH1 0x0 PUSH1 0x40 MLOAD DUP1 DUP4 SUB DUP2 PUSH1 0x0 DUP8 DUP1 EXTCODESIZE ISZERO DUP1 ISZERO PUSH2 0x272B JUMPI PUSH1 0x0 DUP1 REVERT JUMPDEST POP GAS CALL ISZERO DUP1 ISZERO PUSH2 0x273F JUMPI RETURNDATASIZE PUSH1 0x0 DUP1 RETURNDATACOPY RETURNDATASIZE PUSH1 0x0 REVERT JUMPDEST POP POP NUMBER PUSH1 0x0 SWAP1 DUP2 MSTORE PUSH1 0x20 DUP2 DUP2 MSTORE PUSH1 0x40 DUP1 DUP4 KECCAK256 ORIGIN DUP5 MSTORE SWAP1 SWAP2 MSTORE DUP1 DUP3 KECCAK256 DUP1 SLOAD PUSH1 0x1 PUSH1 0xFF NOT SWAP2 DUP3 AND DUP2 OR SWAP1 SWAP3 SSTORE CALLER DUP5 MSTORE SWAP2 SWAP1 SWAP3 KECCAK256 DUP1 SLOAD SWAP1 SWAP2 AND SWAP1 SWAP2 OR SWAP1 SSTORE POP POP POP POP POP POP JUMP JUMPDEST PUSH1 0x22 SLOAD PUSH5 0x100000000 SWAP1 DIV PUSH1 0xFF AND DUP2 JUMP JUMPDEST PUSH1 0x0 DUP3 DUP2 MSTORE PUSH1 0x1 PUSH1 0x20 MSTORE PUSH1 0x40 DUP2 KECCAK256 PUSH2 0x14FD SWAP1 DUP4 PUSH4 0xFFFFFFFF PUSH2 0x3969 AND JUMP JUMPDEST PUSH1 0x0 DUP3 DUP2 MSTORE PUSH1 0x1 PUSH1 0x20 MSTORE PUSH1 0x40 DUP2 KECCAK256 PUSH2 0x14FD SWAP1 DUP4 PUSH4 0xFFFFFFFF PUSH2 0x3793 AND JUMP JUMPDEST PUSH1 0x0 DUP2 JUMP JUMPDEST PUSH1 0x0 PUSH1 0x16 SLOAD GT PUSH2 0x27F6 JUMPI PUSH1 0x40 MLOAD PUSH3 0x461BCD PUSH1 0xE5 SHL DUP2 MSTORE PUSH1 0x4 ADD PUSH2 0x9EB SWAP1 PUSH2 0x4318 JUMP JUMPDEST PUSH2 0x2805 PUSH1 0x40 MLOAD PUSH2 0xD67 SWAP1 PUSH2 0x3E02 JUMP JUMPDEST PUSH2 0x280E JUMPI PUSH1 0x0 DUP1 REVERT JUMPDEST PUSH1 0x0 PUSH2 0x282C PUSH3 0xF4240 PUSH2 0xB79 DUP5 PUSH1 0x16 SLOAD PUSH2 0x3828 SWAP1 SWAP2 SWAP1 PUSH4 0xFFFFFFFF AND JUMP JUMPDEST PUSH1 0x16 SLOAD SWAP1 SWAP2 POP PUSH2 0x2842 SWAP1 DUP3 PUSH4 0xFFFFFFFF PUSH2 0x373C AND JUMP JUMPDEST PUSH1 0x16 SSTORE PUSH1 0xA SLOAD PUSH1 0x40 DUP1 MLOAD PUSH4 0x2BABF6E7 PUSH1 0xE2 SHL DUP2 MSTORE SWAP1 MLOAD PUSH1 0x0 SWAP3 PUSH1 0x1 PUSH1 0x1 PUSH1 0xA0 SHL SUB AND SWAP2 PUSH4 0xAEAFDB9C SWAP2 PUSH1 0x4 DUP1 DUP4 ADD SWAP3 PUSH1 0x20 SWAP3 SWAP2 SWAP1 DUP3 SWAP1 SUB ADD DUP2 DUP7 DUP1 EXTCODESIZE ISZERO DUP1 ISZERO PUSH2 0x288A JUMPI PUSH1 0x0 DUP1 REVERT JUMPDEST POP GAS STATICCALL ISZERO DUP1 ISZERO PUSH2 0x289E JUMPI RETURNDATASIZE PUSH1 0x0 DUP1 RETURNDATACOPY RETURNDATASIZE PUSH1 0x0 REVERT JUMPDEST POP POP POP POP PUSH1 0x40 MLOAD RETURNDATASIZE PUSH1 0x1F NOT PUSH1 0x1F DUP3 ADD AND DUP3 ADD DUP1 PUSH1 0x40 MSTORE POP DUP2 ADD SWAP1 PUSH2 0x28C2 SWAP2 SWAP1 PUSH2 0x3D43 JUMP JUMPDEST SWAP1 POP PUSH1 0x0 PUSH2 0x28DD DUP3 PUSH2 0xB79 DUP6 PUSH3 0xF4240 PUSH4 0xFFFFFFFF PUSH2 0x3828 AND JUMP JUMPDEST PUSH1 0x9 SLOAD PUSH1 0x40 MLOAD PUSH4 0x5A7AB593 PUSH1 0xE1 SHL DUP2 MSTORE SWAP2 SWAP3 POP PUSH1 0x1 PUSH1 0x1 PUSH1 0xA0 SHL SUB AND SWAP1 PUSH4 0xB4F56B26 SWAP1 PUSH2 0x2910 SWAP1 CALLER SWAP1 DUP6 SWAP1 PUSH1 0x4 ADD PUSH2 0x3EEA JUMP JUMPDEST PUSH1 0x0 PUSH1 0x40 MLOAD DUP1 DUP4 SUB DUP2 PUSH1 0x0 DUP8 DUP1 EXTCODESIZE ISZERO DUP1 ISZERO PUSH2 0x292A JUMPI PUSH1 0x0 DUP1 REVERT JUMPDEST POP GAS CALL ISZERO DUP1 ISZERO PUSH2 0x293E JUMPI RETURNDATASIZE PUSH1 0x0 DUP1 RETURNDATACOPY RETURNDATASIZE PUSH1 0x0 REVERT JUMPDEST POP POP POP POP POP POP POP POP JUMP JUMPDEST PUSH1 0x21 SLOAD DUP2 JUMP JUMPDEST PUSH1 0x15 SLOAD DUP2 JUMP JUMPDEST PUSH1 0x0 DUP1 PUSH2 0x295F PUSH2 0x15F4 JUMP JUMPDEST SWAP1 POP PUSH1 0x0 PUSH1 0xA PUSH1 0x0 SWAP1 SLOAD SWAP1 PUSH2 0x100 EXP SWAP1 DIV PUSH1 0x1 PUSH1 0x1 PUSH1 0xA0 SHL SUB AND PUSH1 0x1 PUSH1 0x1 PUSH1 0xA0 SHL SUB AND PUSH3 0x78F4C7 PUSH1 0x40 MLOAD DUP2 PUSH4 0xFFFFFFFF AND PUSH1 0xE0 SHL DUP2 MSTORE PUSH1 0x4 ADD PUSH1 0x20 PUSH1 0x40 MLOAD DUP1 DUP4 SUB DUP2 DUP7 DUP1 EXTCODESIZE ISZERO DUP1 ISZERO PUSH2 0x29B0 JUMPI PUSH1 0x0 DUP1 REVERT JUMPDEST POP GAS STATICCALL ISZERO DUP1 ISZERO PUSH2 0x29C4 JUMPI RETURNDATASIZE PUSH1 0x0 DUP1 RETURNDATACOPY RETURNDATASIZE PUSH1 0x0 REVERT JUMPDEST POP POP POP POP PUSH1 0x40 MLOAD RETURNDATASIZE PUSH1 0x1F NOT PUSH1 0x1F DUP3 ADD AND DUP3 ADD DUP1 PUSH1 0x40 MSTORE POP DUP2 ADD SWAP1 PUSH2 0x29E8 SWAP2 SWAP1 PUSH2 0x3D43 JUMP JUMPDEST SWAP1 POP PUSH1 0x0 DUP2 GT PUSH2 0x2A0A JUMPI PUSH1 0x40 MLOAD PUSH3 0x461BCD PUSH1 0xE5 SHL DUP2 MSTORE PUSH1 0x4 ADD PUSH2 0x9EB SWAP1 PUSH2 0x416B JUMP JUMPDEST PUSH2 0x137F DUP2 PUSH2 0xB79 DUP5 PUSH3 0xF4240 PUSH4 0xFFFFFFFF PUSH2 0x3828 AND JUMP JUMPDEST PUSH1 0x0 DUP1 PUSH2 0x2A45 PUSH3 0xF4240 PUSH2 0xB79 PUSH2 0x2A36 PUSH2 0x2954 JUMP JUMPDEST PUSH1 0xC SLOAD SWAP1 PUSH4 0xFFFFFFFF PUSH2 0x3828 AND JUMP JUMPDEST PUSH1 0xB SLOAD ADD SWAP2 POP POP SWAP1 JUMP JUMPDEST PUSH1 0x1C PUSH1 0x20 MSTORE PUSH1 0x0 SWAP1 DUP2 MSTORE PUSH1 0x40 SWAP1 KECCAK256 SLOAD DUP2 JUMP JUMPDEST PUSH2 0x2A69 PUSH2 0x37A8 JUMP JUMPDEST ISZERO PUSH2 0x2A86 JUMPI PUSH1 0x40 MLOAD PUSH3 0x461BCD PUSH1 0xE5 SHL DUP2 MSTORE PUSH1 0x4 ADD PUSH2 0x9EB SWAP1 PUSH2 0x45A8 JUMP JUMPDEST PUSH2 0x2A8E PUSH2 0x37C7 JUMP JUMPDEST ISZERO PUSH2 0x2AAB JUMPI PUSH1 0x40 MLOAD PUSH3 0x461BCD PUSH1 0xE5 SHL DUP2 MSTORE PUSH1 0x4 ADD PUSH2 0x9EB SWAP1 PUSH2 0x45A8 JUMP JUMPDEST PUSH1 0x22 SLOAD PUSH3 0x10000 SWAP1 DIV PUSH1 0xFF AND ISZERO PUSH2 0x2AD4 JUMPI PUSH1 0x40 MLOAD PUSH3 0x461BCD PUSH1 0xE5 SHL DUP2 MSTORE PUSH1 0x4 ADD PUSH2 0x9EB SWAP1 PUSH2 0x4571 JUMP JUMPDEST PUSH2 0x2ADC PUSH2 0x31F0 JUMP JUMPDEST PUSH1 0xA DUP1 SLOAD PUSH1 0x40 DUP1 MLOAD PUSH4 0xB5955E9D PUSH1 0xE0 SHL DUP2 MSTORE SWAP1 MLOAD PUSH32 0x0 SWAP1 SWAP4 EXP DUP6 MUL SWAP3 PUSH1 0x0 SWAP3 PUSH1 0x1 PUSH1 0x1 PUSH1 0xA0 SHL SUB AND SWAP2 PUSH4 0xB5955E9D SWAP2 PUSH1 0x4 DUP1 DUP4 ADD SWAP3 PUSH1 0x20 SWAP3 SWAP2 SWAP1 DUP3 SWAP1 SUB ADD DUP2 DUP7 DUP1 EXTCODESIZE ISZERO DUP1 ISZERO PUSH2 0x2B49 JUMPI PUSH1 0x0 DUP1 REVERT JUMPDEST POP GAS STATICCALL ISZERO DUP1 ISZERO PUSH2 0x2B5D JUMPI RETURNDATASIZE PUSH1 0x0 DUP1 RETURNDATACOPY RETURNDATASIZE PUSH1 0x0 REVERT JUMPDEST POP POP POP POP PUSH1 0x40 MLOAD RETURNDATASIZE PUSH1 0x1F NOT PUSH1 0x1F DUP3 ADD AND DUP3 ADD DUP1 PUSH1 0x40 MSTORE POP DUP2 ADD SWAP1 PUSH2 0x2B81 SWAP2 SWAP1 PUSH2 0x3D43 JUMP JUMPDEST SWAP1 POP PUSH1 0x0 PUSH2 0x2BD9 PUSH1 0x21 SLOAD PUSH1 0xA PUSH1 0x0 SWAP1 SLOAD SWAP1 PUSH2 0x100 EXP SWAP1 DIV PUSH1 0x1 PUSH1 0x1 PUSH1 0xA0 SHL SUB AND PUSH1 0x1 PUSH1 0x1 PUSH1 0xA0 SHL SUB AND PUSH4 0x18160DDD PUSH1 0x40 MLOAD DUP2 PUSH4 0xFFFFFFFF AND PUSH1 0xE0 SHL DUP2 MSTORE PUSH1 0x4 ADD PUSH1 0x20 PUSH1 0x40 MLOAD DUP1 DUP4 SUB DUP2 DUP7 DUP1 EXTCODESIZE ISZERO DUP1 ISZERO PUSH2 0x12CB JUMPI PUSH1 0x0 DUP1 REVERT JUMPDEST SWAP1 POP PUSH1 0x0 PUSH1 0xA PUSH1 0x0 SWAP1 SLOAD SWAP1 PUSH2 0x100 EXP SWAP1 DIV PUSH1 0x1 PUSH1 0x1 PUSH1 0xA0 SHL SUB AND PUSH1 0x1 PUSH1 0x1 PUSH1 0xA0 SHL SUB AND PUSH4 0x2EB9771B PUSH1 0x40 MLOAD DUP2 PUSH4 0xFFFFFFFF AND PUSH1 0xE0 SHL DUP2 MSTORE PUSH1 0x4 ADD PUSH1 0x20 PUSH1 0x40 MLOAD DUP1 DUP4 SUB DUP2 DUP7 DUP1 EXTCODESIZE ISZERO DUP1 ISZERO PUSH2 0x2C2B JUMPI PUSH1 0x0 DUP1 REVERT JUMPDEST POP GAS STATICCALL ISZERO DUP1 ISZERO PUSH2 0x2C3F JUMPI RETURNDATASIZE PUSH1 0x0 DUP1 RETURNDATACOPY RETURNDATASIZE PUSH1 0x0 REVERT JUMPDEST POP POP POP POP PUSH1 0x40 MLOAD RETURNDATASIZE PUSH1 0x1F NOT PUSH1 0x1F DUP3 ADD AND DUP3 ADD DUP1 PUSH1 0x40 MSTORE POP DUP2 ADD SWAP1 PUSH2 0x2C63 SWAP2 SWAP1 PUSH2 0x3D43 JUMP JUMPDEST SWAP1 POP PUSH1 0x0 PUSH1 0xA PUSH1 0x0 SWAP1 SLOAD SWAP1 PUSH2 0x100 EXP SWAP1 DIV PUSH1 0x1 PUSH1 0x1 PUSH1 0xA0 SHL SUB AND PUSH1 0x1 PUSH1 0x1 PUSH1 0xA0 SHL SUB AND PUSH4 0xD2D97B06 PUSH1 0x40 MLOAD DUP2 PUSH4 0xFFFFFFFF AND PUSH1 0xE0 SHL DUP2 MSTORE PUSH1 0x4 ADD PUSH1 0x20 PUSH1 0x40 MLOAD DUP1 DUP4 SUB DUP2 DUP7 DUP1 EXTCODESIZE ISZERO DUP1 ISZERO PUSH2 0x2CB5 JUMPI PUSH1 0x0 DUP1 REVERT JUMPDEST POP GAS STATICCALL ISZERO DUP1 ISZERO PUSH2 0x2CC9 JUMPI RETURNDATASIZE PUSH1 0x0 DUP1 RETURNDATACOPY RETURNDATASIZE PUSH1 0x0 REVERT JUMPDEST POP POP POP POP PUSH1 0x40 MLOAD RETURNDATASIZE PUSH1 0x1F NOT PUSH1 0x1F DUP3 ADD AND DUP3 ADD DUP1 PUSH1 0x40 MSTORE POP DUP2 ADD SWAP1 PUSH2 0x2CED SWAP2 SWAP1 PUSH2 0x3D43 JUMP JUMPDEST SWAP1 POP PUSH1 0x0 DUP1 PUSH2 0x2D06 DUP8 PUSH2 0x2CFE PUSH2 0x36F0 JUMP JUMPDEST DUP6 DUP9 DUP9 PUSH2 0xE7B JUMP JUMPDEST SWAP1 SWAP3 POP SWAP1 POP PUSH1 0x0 PUSH2 0x2D40 DUP4 PUSH32 0x0 PUSH1 0xA EXP PUSH4 0xFFFFFFFF PUSH2 0x37E6 AND JUMP JUMPDEST SWAP1 POP PUSH1 0x0 PUSH2 0x2D69 DUP9 PUSH2 0xB79 PUSH2 0x1B06 PUSH1 0x14 SLOAD PUSH2 0xEDF PUSH1 0x1F SLOAD PUSH3 0xF4240 PUSH2 0x3862 SWAP1 SWAP2 SWAP1 PUSH4 0xFFFFFFFF AND JUMP JUMPDEST SWAP1 POP DUP1 DUP11 GT ISZERO PUSH2 0x2D8B JUMPI PUSH1 0x40 MLOAD PUSH3 0x461BCD PUSH1 0xE5 SHL DUP2 MSTORE PUSH1 0x4 ADD PUSH2 0x9EB SWAP1 PUSH2 0x450C JUMP JUMPDEST PUSH2 0x2DB9 PUSH2 0x2DAA PUSH3 0xF4240 PUSH2 0xB79 PUSH1 0x15 SLOAD DUP6 PUSH2 0x3828 SWAP1 SWAP2 SWAP1 PUSH4 0xFFFFFFFF AND JUMP JUMPDEST PUSH1 0x17 SLOAD SWAP1 PUSH4 0xFFFFFFFF PUSH2 0x3862 AND JUMP JUMPDEST PUSH1 0x17 SSTORE PUSH1 0x2 SLOAD PUSH1 0x40 MLOAD PUSH4 0x23B872DD PUSH1 0xE0 SHL DUP2 MSTORE PUSH1 0x1 PUSH1 0x1 PUSH1 0xA0 SHL SUB SWAP1 SWAP2 AND SWAP1 PUSH4 0x23B872DD SWAP1 PUSH2 0x2DF0 SWAP1 CALLER SWAP1 ADDRESS SWAP1 DUP8 SWAP1 PUSH1 0x4 ADD PUSH2 0x3EC6 JUMP JUMPDEST PUSH1 0x20 PUSH1 0x40 MLOAD DUP1 DUP4 SUB DUP2 PUSH1 0x0 DUP8 DUP1 EXTCODESIZE ISZERO DUP1 ISZERO PUSH2 0x2E0A JUMPI PUSH1 0x0 DUP1 REVERT JUMPDEST POP GAS CALL ISZERO DUP1 ISZERO PUSH2 0x2E1E JUMPI RETURNDATASIZE PUSH1 0x0 DUP1 RETURNDATACOPY RETURNDATASIZE PUSH1 0x0 REVERT JUMPDEST POP POP POP POP PUSH1 0x40 MLOAD RETURNDATASIZE PUSH1 0x1F NOT PUSH1 0x1F DUP3 ADD AND DUP3 ADD DUP1 PUSH1 0x40 MSTORE POP DUP2 ADD SWAP1 PUSH2 0x2E42 SWAP2 SWAP1 PUSH2 0x3C07 JUMP JUMPDEST POP PUSH1 0x9 SLOAD PUSH1 0x40 MLOAD PUSH4 0x5A7AB593 PUSH1 0xE1 SHL DUP2 MSTORE PUSH1 0x1 PUSH1 0x1 PUSH1 0xA0 SHL SUB SWAP1 SWAP2 AND SWAP1 PUSH4 0xB4F56B26 SWAP1 PUSH2 0x1CA8 SWAP1 CALLER SWAP1 DUP6 SWAP1 PUSH1 0x4 ADD PUSH2 0x3EEA JUMP JUMPDEST PUSH2 0x2E7D PUSH2 0x37A8 JUMP JUMPDEST ISZERO PUSH2 0x2E9A JUMPI PUSH1 0x40 MLOAD PUSH3 0x461BCD PUSH1 0xE5 SHL DUP2 MSTORE PUSH1 0x4 ADD PUSH2 0x9EB SWAP1 PUSH2 0x45A8 JUMP JUMPDEST PUSH2 0x2EA2 PUSH2 0x37C7 JUMP JUMPDEST ISZERO PUSH2 0x2EBF JUMPI PUSH1 0x40 MLOAD PUSH3 0x461BCD PUSH1 0xE5 SHL DUP2 MSTORE PUSH1 0x4 ADD PUSH2 0x9EB SWAP1 PUSH2 0x45A8 JUMP JUMPDEST PUSH1 0x22 SLOAD PUSH4 0x1000000 SWAP1 DIV PUSH1 0xFF AND ISZERO PUSH2 0x2EE9 JUMPI PUSH1 0x40 MLOAD PUSH3 0x461BCD PUSH1 0xE5 SHL DUP2 MSTORE PUSH1 0x4 ADD PUSH2 0x9EB SWAP1 PUSH2 0x46D6 JUMP JUMPDEST PUSH2 0x2EF1 PUSH2 0x31F0 JUMP JUMPDEST PUSH1 0xA SLOAD PUSH1 0x40 DUP1 MLOAD PUSH4 0xB5955E9D PUSH1 0xE0 SHL DUP2 MSTORE SWAP1 MLOAD PUSH1 0x0 SWAP3 PUSH1 0x1 PUSH1 0x1 PUSH1 0xA0 SHL SUB AND SWAP2 PUSH4 0xB5955E9D SWAP2 PUSH1 0x4 DUP1 DUP4 ADD SWAP3 PUSH1 0x20 SWAP3 SWAP2 SWAP1 DUP3 SWAP1 SUB ADD DUP2 DUP7 DUP1 EXTCODESIZE ISZERO DUP1 ISZERO PUSH2 0x2F36 JUMPI PUSH1 0x0 DUP1 REVERT JUMPDEST POP GAS STATICCALL ISZERO DUP1 ISZERO PUSH2 0x2F4A JUMPI RETURNDATASIZE PUSH1 0x0 DUP1 RETURNDATACOPY RETURNDATASIZE PUSH1 0x0 REVERT JUMPDEST POP POP POP POP PUSH1 0x40 MLOAD RETURNDATASIZE PUSH1 0x1F NOT PUSH1 0x1F DUP3 ADD AND DUP3 ADD DUP1 PUSH1 0x40 MSTORE POP DUP2 ADD SWAP1 PUSH2 0x2F6E SWAP2 SWAP1 PUSH2 0x3D43 JUMP JUMPDEST SWAP1 POP PUSH2 0x2F78 PUSH2 0x3B98 JUMP JUMPDEST PUSH1 0x40 MLOAD DUP1 PUSH1 0x80 ADD PUSH1 0x40 MSTORE DUP1 PUSH2 0x2F8B PUSH2 0x3529 JUMP JUMPDEST DUP2 MSTORE PUSH1 0x20 ADD DUP4 DUP2 MSTORE PUSH1 0x20 ADD PUSH2 0x2F9E PUSH2 0x36F0 JUMP JUMPDEST DUP2 MSTORE PUSH1 0x20 ADD DUP6 DUP2 MSTORE POP SWAP1 POP PUSH1 0x0 PUSH2 0x2FD6 PUSH3 0xF4240 PUSH2 0xB79 PUSH2 0x2FCD PUSH1 0x13 SLOAD PUSH3 0xF4240 PUSH2 0x373C SWAP1 SWAP2 SWAP1 PUSH4 0xFFFFFFFF AND JUMP JUMPDEST PUSH2 0x1373 DUP7 PUSH2 0x1762 JUMP JUMPDEST SWAP1 POP PUSH1 0x0 PUSH2 0x300D DUP3 PUSH32 0x0 PUSH1 0xA EXP PUSH4 0xFFFFFFFF PUSH2 0x37E6 AND JUMP JUMPDEST SWAP1 POP DUP1 DUP6 GT ISZERO PUSH2 0x302F JUMPI PUSH1 0x40 MLOAD PUSH3 0x461BCD PUSH1 0xE5 SHL DUP2 MSTORE PUSH1 0x4 ADD PUSH2 0x9EB SWAP1 PUSH2 0x450C JUMP JUMPDEST PUSH2 0x304E PUSH2 0x2DAA PUSH3 0xF4240 PUSH2 0xB79 PUSH1 0x15 SLOAD DUP11 PUSH2 0x3828 SWAP1 SWAP2 SWAP1 PUSH4 0xFFFFFFFF AND JUMP JUMPDEST PUSH1 0x17 SSTORE PUSH1 0x9 SLOAD PUSH1 0x40 MLOAD PUSH4 0x5453BC57 PUSH1 0xE1 SHL DUP2 MSTORE PUSH1 0x1 PUSH1 0x1 PUSH1 0xA0 SHL SUB SWAP1 SWAP2 AND SWAP1 PUSH4 0xA8A778AE SWAP1 PUSH2 0x3083 SWAP1 CALLER SWAP1 DUP11 SWAP1 PUSH1 0x4 ADD PUSH2 0x3EEA JUMP JUMPDEST PUSH1 0x0 PUSH1 0x40 MLOAD DUP1 DUP4 SUB DUP2 PUSH1 0x0 DUP8 DUP1 EXTCODESIZE ISZERO DUP1 ISZERO PUSH2 0x309D JUMPI PUSH1 0x0 DUP1 REVERT JUMPDEST POP GAS CALL ISZERO DUP1 ISZERO PUSH2 0x30B1 JUMPI RETURNDATASIZE PUSH1 0x0 DUP1 RETURNDATACOPY RETURNDATASIZE PUSH1 0x0 REVERT JUMPDEST POP POP PUSH1 0x2 SLOAD PUSH1 0x40 MLOAD PUSH4 0xA9059CBB PUSH1 0xE0 SHL DUP2 MSTORE PUSH1 0x1 PUSH1 0x1 PUSH1 0xA0 SHL SUB SWAP1 SWAP2 AND SWAP3 POP PUSH4 0xA9059CBB SWAP2 POP PUSH2 0x30E7 SWAP1 CALLER SWAP1 DUP6 SWAP1 PUSH1 0x4 ADD PUSH2 0x3EEA JUMP JUMPDEST PUSH1 0x20 PUSH1 0x40 MLOAD DUP1 DUP4 SUB DUP2 PUSH1 0x0 DUP8 DUP1 EXTCODESIZE ISZERO DUP1 ISZERO PUSH2 0x3101 JUMPI PUSH1 0x0 DUP1 REVERT JUMPDEST POP GAS CALL ISZERO DUP1 ISZERO PUSH2 0x3115 JUMPI RETURNDATASIZE PUSH1 0x0 DUP1 RETURNDATACOPY RETURNDATASIZE PUSH1 0x0 REVERT JUMPDEST POP POP POP POP PUSH1 0x40 MLOAD RETURNDATASIZE PUSH1 0x1F NOT PUSH1 0x1F DUP3 ADD AND DUP3 ADD DUP1 PUSH1 0x40 MSTORE POP DUP2 ADD SWAP1 PUSH2 0x3139 SWAP2 SWAP1 PUSH2 0x3C07 JUMP JUMPDEST POP POP NUMBER PUSH1 0x0 SWAP1 DUP2 MSTORE PUSH1 0x20 DUP2 DUP2 MSTORE PUSH1 0x40 DUP1 DUP4 KECCAK256 ORIGIN DUP5 MSTORE SWAP1 SWAP2 MSTORE DUP1 DUP3 KECCAK256 DUP1 SLOAD PUSH1 0x1 PUSH1 0xFF NOT SWAP2 DUP3 AND DUP2 OR SWAP1 SWAP3 SSTORE CALLER DUP5 MSTORE SWAP2 SWAP1 SWAP3 KECCAK256 DUP1 SLOAD SWAP1 SWAP2 AND SWAP1 SWAP2 OR SWAP1 SSTORE POP POP POP POP POP JUMP JUMPDEST PUSH1 0x22 SLOAD PUSH2 0x100 SWAP1 DIV PUSH1 0xFF AND DUP2 JUMP JUMPDEST PUSH1 0xE SLOAD DUP2 JUMP JUMPDEST PUSH1 0x8 SLOAD PUSH1 0x1 PUSH1 0x1 PUSH1 0xA0 SHL SUB AND CALLER EQ DUP1 PUSH2 0x31B2 JUMPI POP PUSH1 0x4 SLOAD PUSH1 0x1 PUSH1 0x1 PUSH1 0xA0 SHL SUB AND CALLER EQ JUMPDEST PUSH2 0x31CE JUMPI PUSH1 0x40 MLOAD PUSH3 0x461BCD PUSH1 0xE5 SHL DUP2 MSTORE PUSH1 0x4 ADD PUSH2 0x9EB SWAP1 PUSH2 0x42C8 JUMP JUMPDEST PUSH1 0x8 DUP1 SLOAD PUSH1 0x1 PUSH1 0x1 PUSH1 0xA0 SHL SUB NOT AND PUSH1 0x1 PUSH1 0x1 PUSH1 0xA0 SHL SUB SWAP3 SWAP1 SWAP3 AND SWAP2 SWAP1 SWAP2 OR SWAP1 SSTORE JUMP JUMPDEST PUSH1 0xA SLOAD PUSH1 0x40 DUP1 MLOAD PUSH4 0x7387F41B PUSH1 0xE0 SHL DUP2 MSTORE SWAP1 MLOAD PUSH1 0x0 SWAP3 PUSH1 0x1 PUSH1 0x1 PUSH1 0xA0 SHL SUB AND SWAP2 PUSH4 0x7387F41B SWAP2 PUSH1 0x4 DUP1 DUP4 ADD SWAP3 PUSH1 0x20 SWAP3 SWAP2 SWAP1 DUP3 SWAP1 SUB ADD DUP2 DUP8 DUP8 DUP1 EXTCODESIZE ISZERO DUP1 ISZERO PUSH2 0x3236 JUMPI PUSH1 0x0 DUP1 REVERT JUMPDEST POP GAS CALL ISZERO DUP1 ISZERO PUSH2 0x324A JUMPI RETURNDATASIZE PUSH1 0x0 DUP1 RETURNDATACOPY RETURNDATASIZE PUSH1 0x0 REVERT JUMPDEST POP POP POP POP PUSH1 0x40 MLOAD RETURNDATASIZE PUSH1 0x1F NOT PUSH1 0x1F DUP3 ADD AND DUP3 ADD DUP1 PUSH1 0x40 MSTORE POP DUP2 ADD SWAP1 PUSH2 0x326E SWAP2 SWAP1 PUSH2 0x3C8F JUMP JUMPDEST SWAP1 POP PUSH1 0x0 PUSH1 0xA PUSH1 0x0 SWAP1 SLOAD SWAP1 PUSH2 0x100 EXP SWAP1 DIV PUSH1 0x1 PUSH1 0x1 PUSH1 0xA0 SHL SUB AND PUSH1 0x1 PUSH1 0x1 PUSH1 0xA0 SHL SUB AND PUSH4 0xE26E6CE2 PUSH1 0x40 MLOAD DUP2 PUSH4 0xFFFFFFFF AND PUSH1 0xE0 SHL DUP2 MSTORE PUSH1 0x4 ADD PUSH1 0x20 PUSH1 0x40 MLOAD DUP1 DUP4 SUB DUP2 PUSH1 0x0 DUP8 DUP1 EXTCODESIZE ISZERO DUP1 ISZERO PUSH2 0x32C2 JUMPI PUSH1 0x0 DUP1 REVERT JUMPDEST POP GAS CALL ISZERO DUP1 ISZERO PUSH2 0x32D6 JUMPI RETURNDATASIZE PUSH1 0x0 DUP1 RETURNDATACOPY RETURNDATASIZE PUSH1 0x0 REVERT JUMPDEST POP POP POP POP PUSH1 0x40 MLOAD RETURNDATASIZE PUSH1 0x1F NOT PUSH1 0x1F DUP3 ADD AND DUP3 ADD DUP1 PUSH1 0x40 MSTORE POP DUP2 ADD SWAP1 PUSH2 0x32FA SWAP2 SWAP1 PUSH2 0x3C8F JUMP JUMPDEST SWAP1 POP PUSH1 0x0 DUP3 PUSH1 0x1 PUSH1 0x1 PUSH1 0xA0 SHL SUB AND PUSH4 0xA2E62045 PUSH1 0x40 MLOAD DUP2 PUSH4 0xFFFFFFFF AND PUSH1 0xE0 SHL DUP2 MSTORE PUSH1 0x4 ADD PUSH1 0x20 PUSH1 0x40 MLOAD DUP1 DUP4 SUB DUP2 PUSH1 0x0 DUP8 DUP1 EXTCODESIZE ISZERO DUP1 ISZERO PUSH2 0x3339 JUMPI PUSH1 0x0 DUP1 REVERT JUMPDEST POP GAS CALL ISZERO DUP1 ISZERO PUSH2 0x334D JUMPI RETURNDATASIZE PUSH1 0x0 DUP1 RETURNDATACOPY RETURNDATASIZE PUSH1 0x0 REVERT JUMPDEST POP POP POP POP PUSH1 0x40 MLOAD RETURNDATASIZE PUSH1 0x1F NOT PUSH1 0x1F DUP3 ADD AND DUP3 ADD DUP1 PUSH1 0x40 MSTORE POP DUP2 ADD SWAP1 PUSH2 0x3371 SWAP2 SWAP1 PUSH2 0x3C07 JUMP JUMPDEST SWAP1 POP PUSH1 0x0 DUP3 PUSH1 0x1 PUSH1 0x1 PUSH1 0xA0 SHL SUB AND PUSH4 0xA2E62045 PUSH1 0x40 MLOAD DUP2 PUSH4 0xFFFFFFFF AND PUSH1 0xE0 SHL DUP2 MSTORE PUSH1 0x4 ADD PUSH1 0x20 PUSH1 0x40 MLOAD DUP1 DUP4 SUB DUP2 PUSH1 0x0 DUP8 DUP1 EXTCODESIZE ISZERO DUP1 ISZERO PUSH2 0x33B0 JUMPI PUSH1 0x0 DUP1 REVERT JUMPDEST POP GAS CALL ISZERO DUP1 ISZERO PUSH2 0x33C4 JUMPI RETURNDATASIZE PUSH1 0x0 DUP1 RETURNDATACOPY RETURNDATASIZE PUSH1 0x0 REVERT JUMPDEST POP POP POP POP PUSH1 0x40 MLOAD RETURNDATASIZE PUSH1 0x1F NOT PUSH1 0x1F DUP3 ADD AND DUP3 ADD DUP1 PUSH1 0x40 MSTORE POP DUP2 ADD SWAP1 PUSH2 0x33E8 SWAP2 SWAP1 PUSH2 0x3C07 JUMP JUMPDEST SWAP1 POP DUP2 DUP1 PUSH2 0x33F3 JUMPI POP DUP1 JUMPDEST ISZERO PUSH2 0x343C JUMPI CALLER PUSH1 0x1 PUSH1 0x1 PUSH1 0xA0 SHL SUB AND PUSH32 0x29AF9298D72181C407044912A3FD1289D6626C86EB5DDA1D036424B013DA797D DUP4 DUP4 PUSH1 0x40 MLOAD PUSH2 0x3433 SWAP3 SWAP2 SWAP1 PUSH2 0x3F0E JUMP JUMPDEST PUSH1 0x40 MLOAD DUP1 SWAP2 SUB SWAP1 LOG2 JUMPDEST POP POP POP POP JUMP JUMPDEST PUSH1 0x0 PUSH1 0x12 SLOAD PUSH2 0x344F PUSH2 0x2954 JUMP JUMPDEST LT ISZERO SWAP1 POP SWAP1 JUMP JUMPDEST PUSH1 0x1E SLOAD DUP2 JUMP JUMPDEST PUSH1 0x0 DUP2 DUP2 MSTORE PUSH1 0x1 PUSH1 0x20 MSTORE PUSH1 0x40 DUP2 KECCAK256 PUSH2 0x1500 SWAP1 PUSH2 0x3975 JUMP JUMPDEST PUSH1 0xB SLOAD DUP2 JUMP JUMPDEST PUSH1 0x0 DUP3 DUP2 MSTORE PUSH1 0x1 PUSH1 0x20 MSTORE PUSH1 0x40 SWAP1 KECCAK256 PUSH1 0x2 ADD SLOAD PUSH2 0x3497 SWAP1 PUSH2 0x889 PUSH2 0x3887 JUMP JUMPDEST PUSH2 0x166D JUMPI PUSH1 0x40 MLOAD PUSH3 0x461BCD PUSH1 0xE5 SHL DUP2 MSTORE PUSH1 0x4 ADD PUSH2 0x9EB SWAP1 PUSH2 0x4278 JUMP JUMPDEST PUSH1 0x0 PUSH1 0xD SLOAD PUSH2 0x344F PUSH2 0x2954 JUMP JUMPDEST PUSH2 0x34CF PUSH1 0x40 MLOAD PUSH2 0xD67 SWAP1 PUSH2 0x3E59 JUMP JUMPDEST PUSH2 0x34D8 JUMPI PUSH1 0x0 DUP1 REVERT JUMPDEST PUSH1 0x22 DUP1 SLOAD PUSH2 0xFF00 NOT DUP2 AND PUSH2 0x100 SWAP2 DUP3 SWAP1 DIV PUSH1 0xFF AND ISZERO SWAP1 SWAP2 MUL OR SWAP1 SSTORE JUMP JUMPDEST PUSH1 0x8 SLOAD PUSH1 0x1 PUSH1 0x1 PUSH1 0xA0 SHL SUB AND DUP2 JUMP JUMPDEST PUSH1 0x16 SLOAD DUP2 JUMP JUMPDEST PUSH1 0x0 PUSH2 0x14FD PUSH3 0xF4240 PUSH2 0xB79 DUP5 DUP7 PUSH4 0xFFFFFFFF PUSH2 0x3828 AND JUMP JUMPDEST PUSH1 0x13 SLOAD DUP2 JUMP JUMPDEST PUSH1 0x0 DUP1 PUSH2 0x3580 PUSH1 0x21 SLOAD PUSH1 0xA PUSH1 0x0 SWAP1 SLOAD SWAP1 PUSH2 0x100 EXP SWAP1 DIV PUSH1 0x1 PUSH1 0x1 PUSH1 0xA0 SHL SUB AND PUSH1 0x1 PUSH1 0x1 PUSH1 0xA0 SHL SUB AND PUSH4 0x18160DDD PUSH1 0x40 MLOAD DUP2 PUSH4 0xFFFFFFFF AND PUSH1 0xE0 SHL DUP2 MSTORE PUSH1 0x4 ADD PUSH1 0x20 PUSH1 0x40 MLOAD DUP1 DUP4 SUB DUP2 DUP7 DUP1 EXTCODESIZE ISZERO DUP1 ISZERO PUSH2 0x12CB JUMPI PUSH1 0x0 DUP1 REVERT JUMPDEST SWAP1 POP PUSH1 0x0 PUSH1 0xA PUSH1 0x0 SWAP1 SLOAD SWAP1 PUSH2 0x100 EXP SWAP1 DIV PUSH1 0x1 PUSH1 0x1 PUSH1 0xA0 SHL SUB AND PUSH1 0x1 PUSH1 0x1 PUSH1 0xA0 SHL SUB AND PUSH4 0xD2D97B06 PUSH1 0x40 MLOAD DUP2 PUSH4 0xFFFFFFFF AND PUSH1 0xE0 SHL DUP2 MSTORE PUSH1 0x4 ADD PUSH1 0x20 PUSH1 0x40 MLOAD DUP1 DUP4 SUB DUP2 DUP7 DUP1 EXTCODESIZE ISZERO DUP1 ISZERO PUSH2 0x35D2 JUMPI PUSH1 0x0 DUP1 REVERT JUMPDEST POP GAS STATICCALL ISZERO DUP1 ISZERO PUSH2 0x35E6 JUMPI RETURNDATASIZE PUSH1 0x0 DUP1 RETURNDATACOPY RETURNDATASIZE PUSH1 0x0 REVERT JUMPDEST POP POP POP POP PUSH1 0x40 MLOAD RETURNDATASIZE PUSH1 0x1F NOT PUSH1 0x1F DUP3 ADD AND DUP3 ADD DUP1 PUSH1 0x40 MSTORE POP DUP2 ADD SWAP1 PUSH2 0x360A SWAP2 SWAP1 PUSH2 0x3D43 JUMP JUMPDEST SWAP1 POP PUSH1 0x0 PUSH1 0xA PUSH1 0x0 SWAP1 SLOAD SWAP1 PUSH2 0x100 EXP SWAP1 DIV PUSH1 0x1 PUSH1 0x1 PUSH1 0xA0 SHL SUB AND PUSH1 0x1 PUSH1 0x1 PUSH1 0xA0 SHL SUB AND PUSH4 0x2EB9771B PUSH1 0x40 MLOAD DUP2 PUSH4 0xFFFFFFFF AND PUSH1 0xE0 SHL DUP2 MSTORE PUSH1 0x4 ADD PUSH1 0x20 PUSH1 0x40 MLOAD DUP1 DUP4 SUB DUP2 DUP7 DUP1 EXTCODESIZE ISZERO DUP1 ISZERO PUSH2 0x365C JUMPI PUSH1 0x0 DUP1 REVERT JUMPDEST POP GAS STATICCALL ISZERO DUP1 ISZERO PUSH2 0x3670 JUMPI RETURNDATASIZE PUSH1 0x0 DUP1 RETURNDATACOPY RETURNDATASIZE PUSH1 0x0 REVERT JUMPDEST POP POP POP POP PUSH1 0x40 MLOAD RETURNDATASIZE PUSH1 0x1F NOT PUSH1 0x1F DUP3 ADD AND DUP3 ADD DUP1 PUSH1 0x40 MSTORE POP DUP2 ADD SWAP1 PUSH2 0x3694 SWAP2 SWAP1 PUSH2 0x3D43 JUMP JUMPDEST SWAP1 POP PUSH3 0xF4240 DUP2 GT ISZERO PUSH2 0x36A7 JUMPI POP PUSH3 0xF4240 JUMPDEST PUSH1 0x0 PUSH2 0x36C0 PUSH3 0xF4240 PUSH2 0xB79 DUP7 DUP6 PUSH4 0xFFFFFFFF PUSH2 0x3828 AND JUMP JUMPDEST SWAP1 POP DUP1 DUP4 GT ISZERO PUSH2 0x36E5 JUMPI PUSH2 0x36DA DUP4 DUP3 PUSH4 0xFFFFFFFF PUSH2 0x373C AND JUMP JUMPDEST SWAP5 POP POP POP POP POP PUSH2 0x1384 JUMP JUMPDEST PUSH1 0x0 SWAP5 POP POP POP POP POP SWAP1 JUMP JUMPDEST PUSH1 0x22 SLOAD PUSH1 0x0 SWAP1 PUSH5 0x100000000 SWAP1 DIV PUSH1 0xFF AND ISZERO ISZERO PUSH1 0x1 EQ ISZERO PUSH2 0x3714 JUMPI POP PUSH1 0x1E SLOAD PUSH2 0x1384 JUMP JUMPDEST POP PUSH3 0xF4240 PUSH2 0x1384 JUMP JUMPDEST PUSH1 0x17 SLOAD DUP2 JUMP JUMPDEST PUSH1 0x22 SLOAD PUSH6 0x10000000000 SWAP1 DIV PUSH1 0x1 PUSH1 0x1 PUSH1 0xA0 SHL SUB AND DUP2 JUMP JUMPDEST PUSH1 0x0 PUSH2 0x14FD DUP4 DUP4 PUSH1 0x40 MLOAD DUP1 PUSH1 0x40 ADD PUSH1 0x40 MSTORE DUP1 PUSH1 0x1E DUP2 MSTORE PUSH1 0x20 ADD PUSH32 0x536166654D6174683A207375627472616374696F6E206F766572666C6F770000 DUP2 MSTORE POP PUSH2 0x3980 JUMP JUMPDEST PUSH1 0x0 PUSH2 0x14FD DUP4 PUSH1 0x1 PUSH1 0x1 PUSH1 0xA0 SHL SUB DUP5 AND PUSH2 0x39AC JUMP JUMPDEST PUSH1 0x0 PUSH2 0x14FD DUP4 PUSH1 0x1 PUSH1 0x1 PUSH1 0xA0 SHL SUB DUP5 AND PUSH2 0x39F6 JUMP JUMPDEST NUMBER PUSH1 0x0 SWAP1 DUP2 MSTORE PUSH1 0x20 DUP2 DUP2 MSTORE PUSH1 0x40 DUP1 DUP4 KECCAK256 ORIGIN DUP5 MSTORE SWAP1 SWAP2 MSTORE SWAP1 KECCAK256 SLOAD PUSH1 0xFF AND SWAP1 JUMP JUMPDEST NUMBER PUSH1 0x0 SWAP1 DUP2 MSTORE PUSH1 0x20 DUP2 DUP2 MSTORE PUSH1 0x40 DUP1 DUP4 KECCAK256 CALLER DUP5 MSTORE SWAP1 SWAP2 MSTORE SWAP1 KECCAK256 SLOAD PUSH1 0xFF AND SWAP1 JUMP JUMPDEST PUSH1 0x0 PUSH2 0x14FD DUP4 DUP4 PUSH1 0x40 MLOAD DUP1 PUSH1 0x40 ADD PUSH1 0x40 MSTORE DUP1 PUSH1 0x1A DUP2 MSTORE PUSH1 0x20 ADD PUSH32 0x536166654D6174683A206469766973696F6E206279207A65726F000000000000 DUP2 MSTORE POP PUSH2 0x3A0E JUMP JUMPDEST PUSH1 0x0 DUP3 PUSH2 0x3837 JUMPI POP PUSH1 0x0 PUSH2 0x1500 JUMP JUMPDEST DUP3 DUP3 MUL DUP3 DUP5 DUP3 DUP2 PUSH2 0x3844 JUMPI INVALID JUMPDEST DIV EQ PUSH2 0x14FD JUMPI PUSH1 0x40 MLOAD PUSH3 0x461BCD PUSH1 0xE5 SHL DUP2 MSTORE PUSH1 0x4 ADD PUSH2 0x9EB SWAP1 PUSH2 0x433D JUMP JUMPDEST PUSH1 0x0 DUP3 DUP3 ADD DUP4 DUP2 LT ISZERO PUSH2 0x14FD JUMPI PUSH1 0x40 MLOAD PUSH3 0x461BCD PUSH1 0xE5 SHL DUP2 MSTORE PUSH1 0x4 ADD PUSH2 0x9EB SWAP1 PUSH2 0x4094 JUMP JUMPDEST CALLER SWAP1 JUMP JUMPDEST PUSH1 0x0 DUP3 DUP2 MSTORE PUSH1 0x1 PUSH1 0x20 MSTORE PUSH1 0x40 SWAP1 KECCAK256 PUSH2 0x38A9 SWAP1 DUP3 PUSH4 0xFFFFFFFF PUSH2 0x377E AND JUMP JUMPDEST ISZERO PUSH2 0x15EA JUMPI PUSH2 0x38B6 PUSH2 0x3887 JUMP JUMPDEST PUSH1 0x1 PUSH1 0x1 PUSH1 0xA0 SHL SUB AND DUP2 PUSH1 0x1 PUSH1 0x1 PUSH1 0xA0 SHL SUB AND DUP4 PUSH32 0x2F8788117E7EFF1D82E926EC794901D17C78024A50270940304540A733656F0D PUSH1 0x40 MLOAD PUSH1 0x40 MLOAD DUP1 SWAP2 SUB SWAP1 LOG4 POP POP JUMP JUMPDEST PUSH1 0x0 DUP3 DUP2 MSTORE PUSH1 0x1 PUSH1 0x20 MSTORE PUSH1 0x40 SWAP1 KECCAK256 PUSH2 0x3918 SWAP1 DUP3 PUSH4 0xFFFFFFFF PUSH2 0x3A45 AND JUMP JUMPDEST ISZERO PUSH2 0x15EA JUMPI PUSH2 0x3925 PUSH2 0x3887 JUMP JUMPDEST PUSH1 0x1 PUSH1 0x1 PUSH1 0xA0 SHL SUB AND DUP2 PUSH1 0x1 PUSH1 0x1 PUSH1 0xA0 SHL SUB AND DUP4 PUSH32 0xF6391F5C32D9C69D2A47EA670B442974B53935D1EDC7FD64EB21E047A839171B PUSH1 0x40 MLOAD PUSH1 0x40 MLOAD DUP1 SWAP2 SUB SWAP1 LOG4 POP POP JUMP JUMPDEST PUSH1 0x0 PUSH2 0x14FD DUP4 DUP4 PUSH2 0x3A5A JUMP JUMPDEST PUSH1 0x0 PUSH2 0x1500 DUP3 PUSH2 0x3A9F JUMP JUMPDEST PUSH1 0x0 DUP2 DUP5 DUP5 GT ISZERO PUSH2 0x39A4 JUMPI PUSH1 0x40 MLOAD PUSH3 0x461BCD PUSH1 0xE5 SHL DUP2 MSTORE PUSH1 0x4 ADD PUSH2 0x9EB SWAP2 SWAP1 PUSH2 0x3F29 JUMP JUMPDEST POP POP POP SWAP1 SUB SWAP1 JUMP JUMPDEST PUSH1 0x0 PUSH2 0x39B8 DUP4 DUP4 PUSH2 0x39F6 JUMP JUMPDEST PUSH2 0x39EE JUMPI POP DUP2 SLOAD PUSH1 0x1 DUP2 DUP2 ADD DUP5 SSTORE PUSH1 0x0 DUP5 DUP2 MSTORE PUSH1 0x20 DUP1 DUP3 KECCAK256 SWAP1 SWAP4 ADD DUP5 SWAP1 SSTORE DUP5 SLOAD DUP5 DUP3 MSTORE DUP3 DUP7 ADD SWAP1 SWAP4 MSTORE PUSH1 0x40 SWAP1 KECCAK256 SWAP2 SWAP1 SWAP2 SSTORE PUSH2 0x1500 JUMP JUMPDEST POP PUSH1 0x0 PUSH2 0x1500 JUMP JUMPDEST PUSH1 0x0 SWAP1 DUP2 MSTORE PUSH1 0x1 SWAP2 SWAP1 SWAP2 ADD PUSH1 0x20 MSTORE PUSH1 0x40 SWAP1 KECCAK256 SLOAD ISZERO ISZERO SWAP1 JUMP JUMPDEST PUSH1 0x0 DUP2 DUP4 PUSH2 0x3A2F JUMPI PUSH1 0x40 MLOAD PUSH3 0x461BCD PUSH1 0xE5 SHL DUP2 MSTORE PUSH1 0x4 ADD PUSH2 0x9EB SWAP2 SWAP1 PUSH2 0x3F29 JUMP JUMPDEST POP PUSH1 0x0 DUP4 DUP6 DUP2 PUSH2 0x3A3B JUMPI INVALID JUMPDEST DIV SWAP6 SWAP5 POP POP POP POP POP JUMP JUMPDEST PUSH1 0x0 PUSH2 0x14FD DUP4 PUSH1 0x1 PUSH1 0x1 PUSH1 0xA0 SHL SUB DUP5 AND PUSH2 0x3AA3 JUMP JUMPDEST DUP2 SLOAD PUSH1 0x0 SWAP1 DUP3 LT PUSH2 0x3A7D JUMPI PUSH1 0x40 MLOAD PUSH3 0x461BCD PUSH1 0xE5 SHL DUP2 MSTORE PUSH1 0x4 ADD PUSH2 0x9EB SWAP1 PUSH2 0x3F7C JUMP JUMPDEST DUP3 PUSH1 0x0 ADD DUP3 DUP2 SLOAD DUP2 LT PUSH2 0x3A8C JUMPI INVALID JUMPDEST SWAP1 PUSH1 0x0 MSTORE PUSH1 0x20 PUSH1 0x0 KECCAK256 ADD SLOAD SWAP1 POP SWAP3 SWAP2 POP POP JUMP JUMPDEST SLOAD SWAP1 JUMP JUMPDEST PUSH1 0x0 DUP2 DUP2 MSTORE PUSH1 0x1 DUP4 ADD PUSH1 0x20 MSTORE PUSH1 0x40 DUP2 KECCAK256 SLOAD DUP1 ISZERO PUSH2 0x3B5F JUMPI DUP4 SLOAD PUSH1 0x0 NOT DUP1 DUP4 ADD SWAP2 SWAP1 DUP2 ADD SWAP1 PUSH1 0x0 SWAP1 DUP8 SWAP1 DUP4 SWAP1 DUP2 LT PUSH2 0x3AD6 JUMPI INVALID JUMPDEST SWAP1 PUSH1 0x0 MSTORE PUSH1 0x20 PUSH1 0x0 KECCAK256 ADD SLOAD SWAP1 POP DUP1 DUP8 PUSH1 0x0 ADD DUP5 DUP2 SLOAD DUP2 LT PUSH2 0x3AF3 JUMPI INVALID JUMPDEST PUSH1 0x0 SWAP2 DUP3 MSTORE PUSH1 0x20 DUP1 DUP4 KECCAK256 SWAP1 SWAP2 ADD SWAP3 SWAP1 SWAP3 SSTORE DUP3 DUP2 MSTORE PUSH1 0x1 DUP10 DUP2 ADD SWAP1 SWAP3 MSTORE PUSH1 0x40 SWAP1 KECCAK256 SWAP1 DUP5 ADD SWAP1 SSTORE DUP7 SLOAD DUP8 SWAP1 DUP1 PUSH2 0x3B23 JUMPI INVALID JUMPDEST PUSH1 0x1 SWAP1 SUB DUP2 DUP2 SWAP1 PUSH1 0x0 MSTORE PUSH1 0x20 PUSH1 0x0 KECCAK256 ADD PUSH1 0x0 SWAP1 SSTORE SWAP1 SSTORE DUP7 PUSH1 0x1 ADD PUSH1 0x0 DUP8 DUP2 MSTORE PUSH1 0x20 ADD SWAP1 DUP2 MSTORE PUSH1 0x20 ADD PUSH1 0x0 KECCAK256 PUSH1 0x0 SWAP1 SSTORE PUSH1 0x1 SWAP5 POP POP POP POP POP PUSH2 0x1500 JUMP JUMPDEST PUSH1 0x0 SWAP2 POP POP PUSH2 0x1500 JUMP JUMPDEST PUSH1 0x40 MLOAD DUP1 PUSH1 0xA0 ADD PUSH1 0x40 MSTORE DUP1 PUSH1 0x0 DUP2 MSTORE PUSH1 0x20 ADD PUSH1 0x0 DUP2 MSTORE PUSH1 0x20 ADD PUSH1 0x0 DUP2 MSTORE PUSH1 0x20 ADD PUSH1 0x0 DUP2 MSTORE PUSH1 0x20 ADD PUSH1 0x0 DUP2 MSTORE POP SWAP1 JUMP JUMPDEST PUSH1 0x40 MLOAD DUP1 PUSH1 0x80 ADD PUSH1 0x40 MSTORE DUP1 PUSH1 0x0 DUP2 MSTORE PUSH1 0x20 ADD PUSH1 0x0 DUP2 MSTORE PUSH1 0x20 ADD PUSH1 0x0 DUP2 MSTORE PUSH1 0x20 ADD PUSH1 0x0 DUP2 MSTORE POP SWAP1 JUMP JUMPDEST PUSH1 0x0 PUSH1 0x20 DUP3 DUP5 SUB SLT ISZERO PUSH2 0x3BD1 JUMPI DUP1 DUP2 REVERT JUMPDEST DUP2 CALLDATALOAD PUSH2 0x14FD DUP2 PUSH2 0x474C JUMP JUMPDEST PUSH1 0x0 DUP1 PUSH1 0x40 DUP4 DUP6 SUB SLT ISZERO PUSH2 0x3BEE JUMPI DUP1 DUP2 REVERT JUMPDEST DUP3 CALLDATALOAD PUSH2 0x3BF9 DUP2 PUSH2 0x474C JUMP JUMPDEST SWAP5 PUSH1 0x20 SWAP4 SWAP1 SWAP4 ADD CALLDATALOAD SWAP4 POP POP POP JUMP JUMPDEST PUSH1 0x0 PUSH1 0x20 DUP3 DUP5 SUB SLT ISZERO PUSH2 0x3C18 JUMPI DUP1 DUP2 REVERT JUMPDEST DUP2 MLOAD DUP1 ISZERO ISZERO DUP2 EQ PUSH2 0x14FD JUMPI DUP2 DUP3 REVERT JUMPDEST PUSH1 0x0 PUSH1 0x20 DUP3 DUP5 SUB SLT ISZERO PUSH2 0x3C38 JUMPI DUP1 DUP2 REVERT JUMPDEST POP CALLDATALOAD SWAP2 SWAP1 POP JUMP JUMPDEST PUSH1 0x0 DUP1 PUSH1 0x40 DUP4 DUP6 SUB SLT ISZERO PUSH2 0x3C51 JUMPI DUP2 DUP3 REVERT JUMPDEST DUP3 CALLDATALOAD SWAP2 POP PUSH1 0x20 DUP4 ADD CALLDATALOAD PUSH2 0x3C63 DUP2 PUSH2 0x474C JUMP JUMPDEST DUP1 SWAP2 POP POP SWAP3 POP SWAP3 SWAP1 POP JUMP JUMPDEST PUSH1 0x0 DUP1 PUSH1 0x40 DUP4 DUP6 SUB SLT ISZERO PUSH2 0x3C80 JUMPI DUP2 DUP3 REVERT JUMPDEST POP POP DUP1 CALLDATALOAD SWAP3 PUSH1 0x20 SWAP1 SWAP2 ADD CALLDATALOAD SWAP2 POP JUMP JUMPDEST PUSH1 0x0 PUSH1 0x20 DUP3 DUP5 SUB SLT ISZERO PUSH2 0x3CA0 JUMPI DUP1 DUP2 REVERT JUMPDEST DUP2 MLOAD PUSH2 0x14FD DUP2 PUSH2 0x474C JUMP JUMPDEST PUSH1 0x0 PUSH1 0x80 DUP3 DUP5 SUB SLT ISZERO PUSH2 0x3CBC JUMPI DUP1 DUP2 REVERT JUMPDEST PUSH2 0x3CC6 PUSH1 0x80 PUSH2 0x4725 JUMP JUMPDEST DUP3 CALLDATALOAD DUP2 MSTORE PUSH1 0x20 DUP4 ADD CALLDATALOAD PUSH1 0x20 DUP3 ADD MSTORE PUSH1 0x40 DUP4 ADD CALLDATALOAD PUSH1 0x40 DUP3 ADD MSTORE PUSH1 0x60 DUP4 ADD CALLDATALOAD PUSH1 0x60 DUP3 ADD MSTORE DUP1 SWAP2 POP POP SWAP3 SWAP2 POP POP JUMP JUMPDEST PUSH1 0x0 PUSH1 0xA0 DUP3 DUP5 SUB SLT ISZERO PUSH2 0x3D03 JUMPI DUP1 DUP2 REVERT JUMPDEST PUSH2 0x3D0D PUSH1 0xA0 PUSH2 0x4725 JUMP JUMPDEST DUP3 CALLDATALOAD DUP2 MSTORE PUSH1 0x20 DUP4 ADD CALLDATALOAD PUSH1 0x20 DUP3 ADD MSTORE PUSH1 0x40 DUP4 ADD CALLDATALOAD PUSH1 0x40 DUP3 ADD MSTORE PUSH1 0x60 DUP4 ADD CALLDATALOAD PUSH1 0x60 DUP3 ADD MSTORE PUSH1 0x80 DUP4 ADD CALLDATALOAD PUSH1 0x80 DUP3 ADD MSTORE DUP1 SWAP2 POP POP SWAP3 SWAP2 POP POP JUMP JUMPDEST PUSH1 0x0 PUSH1 0x20 DUP3 DUP5 SUB SLT ISZERO PUSH2 0x3D54 JUMPI DUP1 DUP2 REVERT JUMPDEST POP MLOAD SWAP2 SWAP1 POP JUMP JUMPDEST PUSH1 0x0 DUP1 PUSH1 0x0 PUSH1 0x60 DUP5 DUP7 SUB SLT ISZERO PUSH2 0x3D6F JUMPI DUP1 DUP2 REVERT JUMPDEST POP POP DUP2 CALLDATALOAD SWAP4 PUSH1 0x20 DUP4 ADD CALLDATALOAD SWAP4 POP PUSH1 0x40 SWAP1 SWAP3 ADD CALLDATALOAD SWAP2 SWAP1 POP JUMP JUMPDEST PUSH1 0x0 DUP1 PUSH1 0x0 DUP1 PUSH1 0x0 PUSH1 0xA0 DUP7 DUP9 SUB SLT ISZERO PUSH2 0x3D9D JUMPI DUP1 DUP2 REVERT JUMPDEST POP POP DUP4 CALLDATALOAD SWAP6 PUSH1 0x20 DUP6 ADD CALLDATALOAD SWAP6 POP PUSH1 0x40 DUP6 ADD CALLDATALOAD SWAP5 PUSH1 0x60 DUP2 ADD CALLDATALOAD SWAP5 POP PUSH1 0x80 ADD CALLDATALOAD SWAP3 POP SWAP1 POP JUMP JUMPDEST PUSH1 0x0 DUP1 PUSH1 0x0 DUP1 PUSH1 0x0 DUP1 PUSH1 0xC0 DUP8 DUP10 SUB SLT ISZERO PUSH2 0x3DD8 JUMPI DUP4 DUP5 REVERT JUMPDEST POP POP DUP5 CALLDATALOAD SWAP7 PUSH1 0x20 DUP7 ADD CALLDATALOAD SWAP7 POP PUSH1 0x40 DUP7 ADD CALLDATALOAD SWAP6 PUSH1 0x60 DUP2 ADD CALLDATALOAD SWAP6 POP PUSH1 0x80 DUP2 ADD CALLDATALOAD SWAP5 POP PUSH1 0xA0 ADD CALLDATALOAD SWAP3 POP SWAP1 POP JUMP JUMPDEST PUSH15 0x21A7A6A6AAA724AA2CAFA920AA22A9 PUSH1 0x89 SHL DUP2 MSTORE PUSH1 0xF ADD SWAP1 JUMP JUMPDEST PUSH14 0x212AACA120A1A5AFA820AAA9A2A9 PUSH1 0x91 SHL DUP2 MSTORE PUSH1 0xE ADD SWAP1 JUMP JUMPDEST PUSH22 0x2922A1A7A62620AA22A920A624AD22AFA820AAA9A2A9 PUSH1 0x51 SHL DUP2 MSTORE PUSH1 0x16 ADD SWAP1 JUMP JUMPDEST PUSH13 0x2922A222A2A6AFA820AAA9A2A9 PUSH1 0x99 SHL DUP2 MSTORE PUSH1 0xD ADD SWAP1 JUMP JUMPDEST PUSH32 0x434F4C4C41544552414C5F50524943455F504155534552000000000000000000 DUP2 MSTORE PUSH1 0x17 ADD SWAP1 JUMP JUMPDEST PUSH11 0x26A4A72A2FA820AAA9A2A9 PUSH1 0xA9 SHL DUP2 MSTORE PUSH1 0xB ADD SWAP1 JUMP JUMPDEST PUSH1 0x1 PUSH1 0x1 PUSH1 0xA0 SHL SUB SWAP2 SWAP1 SWAP2 AND DUP2 MSTORE PUSH1 0x20 ADD SWAP1 JUMP JUMPDEST PUSH1 0x1 PUSH1 0x1 PUSH1 0xA0 SHL SUB SWAP4 DUP5 AND DUP2 MSTORE SWAP2 SWAP1 SWAP3 AND PUSH1 0x20 DUP3 ADD MSTORE PUSH1 0x40 DUP2 ADD SWAP2 SWAP1 SWAP2 MSTORE PUSH1 0x60 ADD SWAP1 JUMP JUMPDEST PUSH1 0x1 PUSH1 0x1 PUSH1 0xA0 SHL SUB SWAP3 SWAP1 SWAP3 AND DUP3 MSTORE PUSH1 0x20 DUP3 ADD MSTORE PUSH1 0x40 ADD SWAP1 JUMP JUMPDEST SWAP1 ISZERO ISZERO DUP2 MSTORE PUSH1 0x20 ADD SWAP1 JUMP JUMPDEST SWAP2 ISZERO ISZERO DUP3 MSTORE ISZERO ISZERO PUSH1 0x20 DUP3 ADD MSTORE PUSH1 0x40 ADD SWAP1 JUMP JUMPDEST SWAP1 DUP2 MSTORE PUSH1 0x20 ADD SWAP1 JUMP JUMPDEST PUSH1 0x0 PUSH1 0x20 DUP1 DUP4 MSTORE DUP4 MLOAD DUP1 DUP3 DUP6 ADD MSTORE DUP3 JUMPDEST DUP2 DUP2 LT ISZERO PUSH2 0x3F55 JUMPI DUP6 DUP2 ADD DUP4 ADD MLOAD DUP6 DUP3 ADD PUSH1 0x40 ADD MSTORE DUP3 ADD PUSH2 0x3F39 JUMP JUMPDEST DUP2 DUP2 GT ISZERO PUSH2 0x3F66 JUMPI DUP4 PUSH1 0x40 DUP4 DUP8 ADD ADD MSTORE JUMPDEST POP PUSH1 0x1F ADD PUSH1 0x1F NOT AND SWAP3 SWAP1 SWAP3 ADD PUSH1 0x40 ADD SWAP4 SWAP3 POP POP POP JUMP JUMPDEST PUSH1 0x20 DUP1 DUP3 MSTORE PUSH1 0x22 SWAP1 DUP3 ADD MSTORE PUSH32 0x456E756D657261626C655365743A20696E646578206F7574206F6620626F756E PUSH1 0x40 DUP3 ADD MSTORE PUSH2 0x6473 PUSH1 0xF0 SHL PUSH1 0x60 DUP3 ADD MSTORE PUSH1 0x80 ADD SWAP1 JUMP JUMPDEST PUSH1 0x20 DUP1 DUP3 MSTORE PUSH1 0x2F SWAP1 DUP3 ADD MSTORE PUSH32 0x416363657373436F6E74726F6C3A2073656E646572206D75737420626520616E PUSH1 0x40 DUP3 ADD MSTORE PUSH15 0x818591B5A5B881D1BC819DC985B9D PUSH1 0x8A SHL PUSH1 0x60 DUP3 ADD MSTORE PUSH1 0x80 ADD SWAP1 JUMP JUMPDEST PUSH1 0x20 DUP1 DUP3 MSTORE PUSH1 0x30 SWAP1 DUP3 ADD MSTORE PUSH32 0x596F752061726520747279696E6720746F20627579206261636B206D6F726520 PUSH1 0x40 DUP3 ADD MSTORE PUSH16 0x7468616E207468652065786365737321 PUSH1 0x80 SHL PUSH1 0x60 DUP3 ADD MSTORE PUSH1 0x80 ADD SWAP1 JUMP JUMPDEST PUSH1 0x20 DUP1 DUP3 MSTORE PUSH1 0x1D SWAP1 DUP3 ADD MSTORE PUSH32 0x436F6C6C61746572616C20726174696F206D757374206265203E3D2031000000 PUSH1 0x40 DUP3 ADD MSTORE PUSH1 0x60 ADD SWAP1 JUMP JUMPDEST PUSH1 0x20 DUP1 DUP3 MSTORE PUSH1 0x1B SWAP1 DUP3 ADD MSTORE PUSH32 0x536166654D6174683A206164646974696F6E206F766572666C6F770000000000 PUSH1 0x40 DUP3 ADD MSTORE PUSH1 0x60 ADD SWAP1 JUMP JUMPDEST PUSH1 0x20 DUP1 DUP3 MSTORE PUSH1 0x38 SWAP1 DUP3 ADD MSTORE PUSH32 0x436F6C6C61746572616C20726174696F206E6565647320746F20626520626574 PUSH1 0x40 DUP3 ADD MSTORE PUSH32 0x7765656E202E30303030303120616E64202E3939393939390000000000000000 PUSH1 0x60 DUP3 ADD MSTORE PUSH1 0x80 ADD SWAP1 JUMP JUMPDEST PUSH1 0x20 DUP1 DUP3 MSTORE PUSH1 0x23 SWAP1 DUP3 ADD MSTORE PUSH32 0x536C697070616765206C696D69742072656163686564205B636F6C6C61746572 PUSH1 0x40 DUP3 ADD MSTORE PUSH3 0x616C5D PUSH1 0xE8 SHL PUSH1 0x60 DUP3 ADD MSTORE PUSH1 0x80 ADD SWAP1 JUMP JUMPDEST PUSH1 0x20 DUP1 DUP3 MSTORE PUSH1 0x19 SWAP1 DUP3 ADD MSTORE PUSH32 0x7377617020636F6C6C61746572616C20697320656D7074793F00000000000000 PUSH1 0x40 DUP3 ADD MSTORE PUSH1 0x60 ADD SWAP1 JUMP JUMPDEST PUSH1 0x20 DUP1 DUP3 MSTORE PUSH1 0x42 SWAP1 DUP3 ADD MSTORE PUSH32 0x4D757374207761697420666F7220726564656D7074696F6E5F64656C61792062 PUSH1 0x40 DUP3 ADD MSTORE PUSH32 0x6C6F636B73206265666F726520636F6C6C656374696E6720726564656D707469 PUSH1 0x60 DUP3 ADD MSTORE PUSH2 0x37B7 PUSH1 0xF1 SHL PUSH1 0x80 DUP3 ADD MSTORE PUSH1 0xA0 ADD SWAP1 JUMP JUMPDEST PUSH1 0x20 DUP1 DUP3 MSTORE PUSH1 0x13 SWAP1 DUP3 ADD MSTORE PUSH19 0x14995919595B5A5B99C81A5CC81C185D5CD959 PUSH1 0x6A SHL PUSH1 0x40 DUP3 ADD MSTORE PUSH1 0x60 ADD SWAP1 JUMP JUMPDEST PUSH1 0x20 DUP1 DUP3 MSTORE PUSH1 0x21 SWAP1 DUP3 ADD MSTORE PUSH32 0x4E6F2065786365737320636F6C6C61746572616C20746F20627579206261636B PUSH1 0x40 DUP3 ADD MSTORE PUSH1 0x21 PUSH1 0xF8 SHL PUSH1 0x60 DUP3 ADD MSTORE PUSH1 0x80 ADD SWAP1 JUMP JUMPDEST PUSH1 0x20 DUP1 DUP3 MSTORE PUSH1 0x30 SWAP1 DUP3 ADD MSTORE PUSH32 0x416363657373436F6E74726F6C3A2073656E646572206D75737420626520616E PUSH1 0x40 DUP3 ADD MSTORE PUSH16 0x2061646D696E20746F207265766F6B65 PUSH1 0x80 SHL PUSH1 0x60 DUP3 ADD MSTORE PUSH1 0x80 ADD SWAP1 JUMP JUMPDEST PUSH1 0x20 DUP1 DUP3 MSTORE PUSH1 0x30 SWAP1 DUP3 ADD MSTORE PUSH32 0x596F7520617265206E6F7420746865206F776E6572206F722074686520676F76 PUSH1 0x40 DUP3 ADD MSTORE PUSH16 0x65726E616E63652074696D656C6F636B PUSH1 0x80 SHL PUSH1 0x60 DUP3 ADD MSTORE PUSH1 0x80 ADD SWAP1 JUMP JUMPDEST PUSH1 0x20 DUP1 DUP3 MSTORE PUSH1 0xB SWAP1 DUP3 ADD MSTORE PUSH11 0x4E6F205553452072617465 PUSH1 0xA8 SHL PUSH1 0x40 DUP3 ADD MSTORE PUSH1 0x60 ADD SWAP1 JUMP JUMPDEST PUSH1 0x20 DUP1 DUP3 MSTORE PUSH1 0x21 SWAP1 DUP3 ADD MSTORE PUSH32 0x536166654D6174683A206D756C7469706C69636174696F6E206F766572666C6F PUSH1 0x40 DUP3 ADD MSTORE PUSH1 0x77 PUSH1 0xF8 SHL PUSH1 0x60 DUP3 ADD MSTORE PUSH1 0x80 ADD SWAP1 JUMP JUMPDEST PUSH1 0x20 DUP1 DUP3 MSTORE PUSH1 0x1F SWAP1 DUP3 ADD MSTORE PUSH32 0x536C697070616765206C696D69742072656163686564205B5368617265735D00 PUSH1 0x40 DUP3 ADD MSTORE PUSH1 0x60 ADD SWAP1 JUMP JUMPDEST PUSH1 0x20 DUP1 DUP3 MSTORE PUSH1 0x44 SWAP1 DUP3 ADD MSTORE PUSH32 0x506F6F6C206365696C696E6720726561636865642C206E6F206D6F7265205553 PUSH1 0x40 DUP3 ADD MSTORE PUSH32 0x452063616E206265206D696E7465642077697468207468697320636F6C6C6174 PUSH1 0x60 DUP3 ADD MSTORE PUSH4 0x195C985B PUSH1 0xE2 SHL PUSH1 0x80 DUP3 ADD MSTORE PUSH1 0xA0 ADD SWAP1 JUMP JUMPDEST PUSH1 0x20 DUP1 DUP3 MSTORE PUSH1 0x1A SWAP1 DUP3 ADD MSTORE PUSH32 0x4E6F7420656E6F7567682053686172657320696E707574746564000000000000 PUSH1 0x40 DUP3 ADD MSTORE PUSH1 0x60 ADD SWAP1 JUMP JUMPDEST PUSH1 0x20 DUP1 DUP3 MSTORE PUSH1 0xD SWAP1 DUP3 ADD MSTORE PUSH13 0x4E6F2053484152452072617465 PUSH1 0x98 SHL PUSH1 0x40 DUP3 ADD MSTORE PUSH1 0x60 ADD SWAP1 JUMP JUMPDEST PUSH1 0x20 DUP1 DUP3 MSTORE PUSH1 0x1D SWAP1 DUP3 ADD MSTORE PUSH32 0x436F6C6C61746572616C20726174696F206D757374206265203D3D2031000000 PUSH1 0x40 DUP3 ADD MSTORE PUSH1 0x60 ADD SWAP1 JUMP JUMPDEST PUSH1 0x20 DUP1 DUP3 MSTORE PUSH1 0x11 SWAP1 DUP3 ADD MSTORE PUSH17 0x135A5B9D1A5B99C81A5CC81C185D5CD959 PUSH1 0x7A SHL PUSH1 0x40 DUP3 ADD MSTORE PUSH1 0x60 ADD SWAP1 JUMP JUMPDEST PUSH1 0x20 DUP1 DUP3 MSTORE PUSH1 0x13 SWAP1 DUP3 ADD MSTORE PUSH19 0x14995919595B5A5B99C81A5CC818DB1BDCD959 PUSH1 0x6A SHL PUSH1 0x40 DUP3 ADD MSTORE PUSH1 0x60 ADD SWAP1 JUMP JUMPDEST PUSH1 0x20 DUP1 DUP3 MSTORE PUSH1 0x16 SWAP1 DUP3 ADD MSTORE PUSH22 0x14DB1A5C1C1859D9481B1A5B5A5D081C995858DA1959 PUSH1 0x52 SHL PUSH1 0x40 DUP3 ADD MSTORE PUSH1 0x60 ADD SWAP1 JUMP JUMPDEST PUSH1 0x20 DUP1 DUP3 MSTORE DUP2 DUP2 ADD MSTORE PUSH32 0x5B506F6F6C277320436C6F7365645D3A204365696C696E672072656163686564 PUSH1 0x40 DUP3 ADD MSTORE PUSH1 0x60 ADD SWAP1 JUMP JUMPDEST PUSH1 0x20 DUP1 DUP3 MSTORE PUSH1 0x19 SWAP1 DUP3 ADD MSTORE PUSH32 0x5265636F6C6C61746572616C697A652069732070617573656400000000000000 PUSH1 0x40 DUP3 ADD MSTORE PUSH1 0x60 ADD SWAP1 JUMP JUMPDEST PUSH1 0x20 DUP1 DUP3 MSTORE PUSH1 0x26 SWAP1 DUP3 ADD MSTORE PUSH32 0x436F6E747261637447756172643A206F6E6520626C6F636B2C206F6E65206675 PUSH1 0x40 DUP3 ADD MSTORE PUSH6 0x3731BA34B7B7 PUSH1 0xD1 SHL PUSH1 0x60 DUP3 ADD MSTORE PUSH1 0x80 ADD SWAP1 JUMP JUMPDEST PUSH1 0x20 DUP1 DUP3 MSTORE PUSH1 0x11 SWAP1 DUP3 ADD MSTORE PUSH17 0x135A5B9D1A5B99C81A5CC818DB1BDCD959 PUSH1 0x7A SHL PUSH1 0x40 DUP3 ADD MSTORE PUSH1 0x60 ADD SWAP1 JUMP JUMPDEST PUSH1 0x20 DUP1 DUP3 MSTORE PUSH1 0x19 SWAP1 DUP3 ADD MSTORE PUSH32 0x52656465656D20616D6F756E7420746F6F206C61726765202100000000000000 PUSH1 0x40 DUP3 ADD MSTORE PUSH1 0x60 ADD SWAP1 JUMP JUMPDEST PUSH1 0x20 DUP1 DUP3 MSTORE PUSH1 0x1D SWAP1 DUP3 ADD MSTORE PUSH32 0x4E6F7420656E6F75676820636F6C6C61746572616C20696E20706F6F6C000000 PUSH1 0x40 DUP3 ADD MSTORE PUSH1 0x60 ADD SWAP1 JUMP JUMPDEST PUSH1 0x20 DUP1 DUP3 MSTORE PUSH1 0x2F SWAP1 DUP3 ADD MSTORE PUSH32 0x416363657373436F6E74726F6C3A2063616E206F6E6C792072656E6F756E6365 PUSH1 0x40 DUP3 ADD MSTORE PUSH15 0x103937B632B9903337B91039B2B633 PUSH1 0x89 SHL PUSH1 0x60 DUP3 ADD MSTORE PUSH1 0x80 ADD SWAP1 JUMP JUMPDEST PUSH1 0x20 DUP1 DUP3 MSTORE PUSH1 0x11 SWAP1 DUP3 ADD MSTORE PUSH17 0x109D5E589858DAC81A5CC81C185D5CD959 PUSH1 0x7A SHL PUSH1 0x40 DUP3 ADD MSTORE PUSH1 0x60 ADD SWAP1 JUMP JUMPDEST SWAP2 DUP3 MSTORE PUSH1 0x20 DUP3 ADD MSTORE PUSH1 0x40 ADD SWAP1 JUMP JUMPDEST SWAP3 DUP4 MSTORE PUSH1 0x20 DUP4 ADD SWAP2 SWAP1 SWAP2 MSTORE PUSH1 0x40 DUP3 ADD MSTORE PUSH1 0x60 ADD SWAP1 JUMP JUMPDEST PUSH1 0x40 MLOAD DUP2 DUP2 ADD PUSH8 0xFFFFFFFFFFFFFFFF DUP2 GT DUP3 DUP3 LT OR ISZERO PUSH2 0x4744 JUMPI PUSH1 0x0 DUP1 REVERT JUMPDEST PUSH1 0x40 MSTORE SWAP2 SWAP1 POP JUMP JUMPDEST PUSH1 0x1 PUSH1 0x1 PUSH1 0xA0 SHL SUB DUP2 AND DUP2 EQ PUSH2 0x4761 JUMPI PUSH1 0x0 DUP1 REVERT JUMPDEST POP JUMP INVALID LOG2 PUSH5 0x6970667358 0x22 SLT KECCAK256 0xE6 0xE2 DUP1 0xE4 0xB2 0xE4 CALLER 0xF9 PUSH32 0x5457F79B68BE1E97A4CF780157EDCF2E2B236A14A1A40464736F6C634300060B STOP CALLER "
		},
		"gasEstimates": {
			"creation": {
				"codeDepositCost": "3666000",
				"executionCost": "infinite",
				"totalCost": "infinite"
			},
			"external": {
				"BUYBACK_PAUSER()": "472",
				"COLLATERAL_PRICE_PAUSER()": "509",
				"COLLATERAL_RATIO_MAX()": "405",
				"COLLATERAL_RATIO_PRECISION()": "383",
				"COMMUNITY_RATER()": "449",
				"DAI_address()": "1257",
				"DEFAULT_ADMIN_ROLE()": "406",
				"MINT_PAUSER()": "449",
				"PRECISION()": "383",
				"PRICE_PRECISION()": "384",
				"RECOLLATERALIZE_PAUSER()": "405",
				"REDEEM_PAUSER()": "470",
				"RESERVE_RATIO_PRECISION()": "340",
				"availableExcessCollatDV()": "infinite",
				"bonus_rate()": "1118",
				"buyBackPaused()": "1185",
				"buyBackShares(uint256,uint256)": "infinite",
				"buyback_tax()": "1116",
				"calcBuyBackShares((uint256,uint256,uint256,uint256))": "infinite",
				"calcMint1t1USE(uint256,uint256)": "infinite",
				"calcMintFractionalUSE((uint256,uint256,uint256,uint256,uint256))": "infinite",
				"calcMintFractionalWithCollateral((uint256,uint256,uint256,uint256,uint256))": "infinite",
				"calcMintFractionalWithShare((uint256,uint256,uint256,uint256,uint256))": "infinite",
				"calcRecollateralizeUSEInner(uint256,uint256,uint256,uint256,uint256)": "infinite",
				"calcRedeem1t1USE(uint256,uint256)": "infinite",
				"collatDollarBalance()": "infinite",
				"collateralPricePaused()": "1141",
				"collateral_address()": "1249",
				"collateral_token()": "1248",
				"collectRedemption()": "infinite",
				"community_address()": "1227",
				"community_rate_in_share()": "1182",
				"community_rate_in_use()": "1183",
				"community_rate_ratio()": "1139",
				"dynamicRedemptionTax(uint256,uint256,uint256)": "infinite",
				"getCollateralAmount()": "infinite",
				"getCollateralPrice()": "2028",
				"getRoleAdmin(bytes32)": "1333",
				"getRoleMember(bytes32,uint256)": "infinite",
				"getRoleMemberCount(bytes32)": "infinite",
				"global_use_supply_adj()": "1117",
				"grantRole(bytes32,address)": "infinite",
				"hasRole(bytes32,address)": "infinite",
				"lastRedeemed(address)": "1318",
				"mint1t1USE(uint256,uint256)": "infinite",
				"mintFractionalUSE(uint256,uint256,uint256)": "infinite",
				"mintPaused()": "1152",
				"mintingOpened()": "infinite",
				"mintingTax()": "infinite",
				"minting_required_reserve_ratio()": "1163",
				"minting_tax_base()": "1205",
				"minting_tax_multiplier()": "1184",
				"missing_decimals()": "infinite",
				"owner_address()": "1226",
				"pausedPrice()": "1139",
				"pool_ceiling()": "1183",
				"recollat_tax()": "1163",
				"recollateralizeAmount(uint256,uint256,uint256)": "infinite",
				"recollateralizePaused()": "1142",
				"recollateralizeUSE(uint256,uint256)": "infinite",
				"redeem1t1USE(uint256,uint256)": "infinite",
				"redeemCollateralBalances(address)": "1364",
				"redeemFractionalUSE(uint256,uint256,uint256)": "infinite",
				"redeemPaused()": "1185",
				"redeemSharesBalances(address)": "1362",
				"redemptionOpened()": "infinite",
				"redemptionTax()": "infinite",
				"redemption_delay()": "1163",
				"redemption_gcr_adj()": "1184",
				"redemption_required_reserve_ratio()": "1097",
				"redemption_tax_base()": "1207",
				"redemption_tax_exponent()": "1096",
				"redemption_tax_multiplier()": "1161",
				"renounceRole(bytes32,address)": "infinite",
				"requiredReserveRatio()": "infinite",
				"revokeRole(bytes32,address)": "infinite",
				"setCommunityParameters(address,uint256)": "42944",
				"setMintingParameters(uint256,uint256,uint256)": "62127",
				"setOwner(address)": "22967",
				"setPoolParameters(uint256,uint256,uint256,uint256,uint256,uint256)": "122186",
				"setRedemptionParameters(uint256,uint256,uint256,uint256,uint256)": "102109",
				"setTimelock(address)": "23032",
				"shares_contract_address()": "1161",
				"timelock_address()": "1203",
				"toggleBuyBack()": "infinite",
				"toggleCollateralPrice(uint256)": "infinite",
				"toggleCommunityInSharesRate(uint256)": "infinite",
				"toggleCommunityInUSERate(uint256)": "infinite",
				"toggleMinting()": "infinite",
				"toggleRecollateralize()": "infinite",
				"toggleRedeeming()": "infinite",
				"unclaimedPoolCollateral()": "1207",
				"unclaimedPoolShares()": "1139",
				"updateOraclePrice()": "infinite",
				"use_contract_address()": "1139"
			}
		},
		"methodIdentifiers": {
			"BUYBACK_PAUSER()": "0d904ddd",
			"COLLATERAL_PRICE_PAUSER()": "1636e804",
			"COLLATERAL_RATIO_MAX()": "dd89fe0a",
			"COLLATERAL_RATIO_PRECISION()": "d07ac67e",
			"COMMUNITY_RATER()": "29323fb1",
			"DAI_address()": "fa4dfa3a",
			"DEFAULT_ADMIN_ROLE()": "a217fddf",
			"MINT_PAUSER()": "172a7b06",
			"PRECISION()": "aaf5eb68",
			"PRICE_PRECISION()": "95082d25",
			"RECOLLATERALIZE_PAUSER()": "6ad3531f",
			"REDEEM_PAUSER()": "3a26a91b",
			"RESERVE_RATIO_PRECISION()": "4ee3274e",
			"availableExcessCollatDV()": "f61adab2",
			"bonus_rate()": "4c634934",
			"buyBackPaused()": "7f877f85",
			"buyBackShares(uint256,uint256)": "aec25ce7",
			"buyback_tax()": "ece38e2d",
			"calcBuyBackShares((uint256,uint256,uint256,uint256))": "5134d99c",
			"calcMint1t1USE(uint256,uint256)": "e66a7fda",
			"calcMintFractionalUSE((uint256,uint256,uint256,uint256,uint256))": "2223f149",
			"calcMintFractionalWithCollateral((uint256,uint256,uint256,uint256,uint256))": "6a66bf83",
			"calcMintFractionalWithShare((uint256,uint256,uint256,uint256,uint256))": "202ea199",
			"calcRecollateralizeUSEInner(uint256,uint256,uint256,uint256,uint256)": "106e1a39",
			"calcRedeem1t1USE(uint256,uint256)": "20e6da17",
			"collatDollarBalance()": "17284c94",
			"collateralPricePaused()": "8d2ac7a4",
			"collateral_address()": "1eaa0e17",
			"collateral_token()": "2621db2f",
			"collectRedemption()": "12ace5a2",
			"community_address()": "1a286ad7",
			"community_rate_in_share()": "fa2febe2",
			"community_rate_in_use()": "dc9b60f3",
			"community_rate_ratio()": "a57381ea",
			"dynamicRedemptionTax(uint256,uint256,uint256)": "3b837521",
			"getCollateralAmount()": "315deeaa",
			"getCollateralPrice()": "f7683bbc",
			"getRoleAdmin(bytes32)": "248a9ca3",
			"getRoleMember(bytes32,uint256)": "9010d07c",
			"getRoleMemberCount(bytes32)": "ca15c873",
			"global_use_supply_adj()": "a49c9166",
			"grantRole(bytes32,address)": "2f2ff15d",
			"hasRole(bytes32,address)": "91d14854",
			"lastRedeemed(address)": "abae2c4c",
			"mint1t1USE(uint256,uint256)": "8ac75d6a",
			"mintFractionalUSE(uint256,uint256,uint256)": "5fc2477e",
			"mintPaused()": "7e4831d3",
			"mintingOpened()": "d5eecae9",
			"mintingTax()": "ab80926d",
			"minting_required_reserve_ratio()": "29be843a",
			"minting_tax_base()": "d30016cb",
			"minting_tax_multiplier()": "51161b2f",
			"missing_decimals()": "3ed4e55c",
			"owner_address()": "80edef8e",
			"pausedPrice()": "c74ec56a",
			"pool_ceiling()": "6526a12a",
			"recollat_tax()": "736b2d61",
			"recollateralizeAmount(uint256,uint256,uint256)": "0ff24ec1",
			"recollateralizePaused()": "6d2c5615",
			"recollateralizeUSE(uint256,uint256)": "abb5bb1e",
			"redeem1t1USE(uint256,uint256)": "00972dc6",
			"redeemCollateralBalances(address)": "08a7493d",
			"redeemFractionalUSE(uint256,uint256,uint256)": "86994bc0",
			"redeemPaused()": "b235d468",
			"redeemSharesBalances(address)": "38423a09",
			"redemptionOpened()": "c31587b8",
			"redemptionTax()": "6dfa7e2b",
			"redemption_delay()": "15128425",
			"redemption_gcr_adj()": "b929e2de",
			"redemption_required_reserve_ratio()": "26fc803f",
			"redemption_tax_base()": "2fb5e86d",
			"redemption_tax_exponent()": "1fb0c41d",
			"redemption_tax_multiplier()": "6481cac6",
			"renounceRole(bytes32,address)": "36568abe",
			"requiredReserveRatio()": "a7466afd",
			"revokeRole(bytes32,address)": "d547741f",
			"setCommunityParameters(address,uint256)": "5bf2930f",
			"setMintingParameters(uint256,uint256,uint256)": "15f05352",
			"setOwner(address)": "13af4035",
			"setPoolParameters(uint256,uint256,uint256,uint256,uint256,uint256)": "17eae98c",
			"setRedemptionParameters(uint256,uint256,uint256,uint256,uint256)": "7ded8ea0",
			"setTimelock(address)": "bdacb303",
			"shares_contract_address()": "2780130d",
			"timelock_address()": "dc6663c7",
			"toggleBuyBack()": "50c9ecd9",
			"toggleCollateralPrice(uint256)": "7ad1f61b",
			"toggleCommunityInSharesRate(uint256)": "06ed0a1d",
			"toggleCommunityInUSERate(uint256)": "a2248a8f",
			"toggleMinting()": "7d55094d",
			"toggleRecollateralize()": "42d15aec",
			"toggleRedeeming()": "daa50485",
			"unclaimedPoolCollateral()": "7b0461e9",
			"unclaimedPoolShares()": "6090cd50",
			"updateOraclePrice()": "c0bbd884",
			"use_contract_address()": "168313b3"
		}
	},
	"abi": [
		{
			"inputs": [
				{
					"internalType": "address",
					"name": "_use_contract_address",
					"type": "address"
				},
				{
					"internalType": "address",
					"name": "_shares_contract_address",
					"type": "address"
				},
				{
					"internalType": "address",
					"name": "_collateral_address",
					"type": "address"
				},
				{
					"internalType": "address",
					"name": "_creator_address",
					"type": "address"
				},
				{
					"internalType": "address",
					"name": "_timelock_address",
					"type": "address"
				},
				{
					"internalType": "address",
					"name": "_community_address",
					"type": "address"
				}
			],
			"stateMutability": "nonpayable",
			"type": "constructor"
		},
		{
			"anonymous": false,
			"inputs": [
				{
					"indexed": true,
					"internalType": "bytes32",
					"name": "role",
					"type": "bytes32"
				},
				{
					"indexed": true,
					"internalType": "bytes32",
					"name": "previousAdminRole",
					"type": "bytes32"
				},
				{
					"indexed": true,
					"internalType": "bytes32",
					"name": "newAdminRole",
					"type": "bytes32"
				}
			],
			"name": "RoleAdminChanged",
			"type": "event"
		},
		{
			"anonymous": false,
			"inputs": [
				{
					"indexed": true,
					"internalType": "bytes32",
					"name": "role",
					"type": "bytes32"
				},
				{
					"indexed": true,
					"internalType": "address",
					"name": "account",
					"type": "address"
				},
				{
					"indexed": true,
					"internalType": "address",
					"name": "sender",
					"type": "address"
				}
			],
			"name": "RoleGranted",
			"type": "event"
		},
		{
			"anonymous": false,
			"inputs": [
				{
					"indexed": true,
					"internalType": "bytes32",
					"name": "role",
					"type": "bytes32"
				},
				{
					"indexed": true,
					"internalType": "address",
					"name": "account",
					"type": "address"
				},
				{
					"indexed": true,
					"internalType": "address",
					"name": "sender",
					"type": "address"
				}
			],
			"name": "RoleRevoked",
			"type": "event"
		},
		{
			"anonymous": false,
			"inputs": [
				{
					"indexed": true,
					"internalType": "address",
					"name": "user",
					"type": "address"
				},
				{
					"indexed": false,
					"internalType": "bool",
					"name": "bonus1",
					"type": "bool"
				},
				{
					"indexed": false,
					"internalType": "bool",
					"name": "bonus2",
					"type": "bool"
				}
			],
			"name": "UpdateOracleBonus",
			"type": "event"
		},
		{
			"inputs": [],
			"name": "BUYBACK_PAUSER",
			"outputs": [
				{
					"internalType": "bytes32",
					"name": "",
					"type": "bytes32"
				}
			],
			"stateMutability": "view",
			"type": "function"
		},
		{
			"inputs": [],
			"name": "COLLATERAL_PRICE_PAUSER",
			"outputs": [
				{
					"internalType": "bytes32",
					"name": "",
					"type": "bytes32"
				}
			],
			"stateMutability": "view",
			"type": "function"
		},
		{
			"inputs": [],
			"name": "COLLATERAL_RATIO_MAX",
			"outputs": [
				{
					"internalType": "uint256",
					"name": "",
					"type": "uint256"
				}
			],
			"stateMutability": "view",
			"type": "function"
		},
		{
			"inputs": [],
			"name": "COLLATERAL_RATIO_PRECISION",
			"outputs": [
				{
					"internalType": "uint256",
					"name": "",
					"type": "uint256"
				}
			],
			"stateMutability": "view",
			"type": "function"
		},
		{
			"inputs": [],
			"name": "COMMUNITY_RATER",
			"outputs": [
				{
					"internalType": "bytes32",
					"name": "",
					"type": "bytes32"
				}
			],
			"stateMutability": "view",
			"type": "function"
		},
		{
			"inputs": [],
			"name": "DAI_address",
			"outputs": [
				{
					"internalType": "address",
					"name": "",
					"type": "address"
				}
			],
			"stateMutability": "view",
			"type": "function"
		},
		{
			"inputs": [],
			"name": "DEFAULT_ADMIN_ROLE",
			"outputs": [
				{
					"internalType": "bytes32",
					"name": "",
					"type": "bytes32"
				}
			],
			"stateMutability": "view",
			"type": "function"
		},
		{
			"inputs": [],
			"name": "MINT_PAUSER",
			"outputs": [
				{
					"internalType": "bytes32",
					"name": "",
					"type": "bytes32"
				}
			],
			"stateMutability": "view",
			"type": "function"
		},
		{
			"inputs": [],
			"name": "PRECISION",
			"outputs": [
				{
					"internalType": "uint256",
					"name": "",
					"type": "uint256"
				}
			],
			"stateMutability": "view",
			"type": "function"
		},
		{
			"inputs": [],
			"name": "PRICE_PRECISION",
			"outputs": [
				{
					"internalType": "uint256",
					"name": "",
					"type": "uint256"
				}
			],
			"stateMutability": "view",
			"type": "function"
		},
		{
			"inputs": [],
			"name": "RECOLLATERALIZE_PAUSER",
			"outputs": [
				{
					"internalType": "bytes32",
					"name": "",
					"type": "bytes32"
				}
			],
			"stateMutability": "view",
			"type": "function"
		},
		{
			"inputs": [],
			"name": "REDEEM_PAUSER",
			"outputs": [
				{
					"internalType": "bytes32",
					"name": "",
					"type": "bytes32"
				}
			],
			"stateMutability": "view",
			"type": "function"
		},
		{
			"inputs": [],
			"name": "RESERVE_RATIO_PRECISION",
			"outputs": [
				{
					"internalType": "uint256",
					"name": "",
					"type": "uint256"
				}
			],
			"stateMutability": "view",
			"type": "function"
		},
		{
			"inputs": [],
			"name": "availableExcessCollatDV",
			"outputs": [
				{
					"internalType": "uint256",
					"name": "",
					"type": "uint256"
				}
			],
			"stateMutability": "view",
			"type": "function"
		},
		{
			"inputs": [],
			"name": "bonus_rate",
			"outputs": [
				{
					"internalType": "uint256",
					"name": "",
					"type": "uint256"
				}
			],
			"stateMutability": "view",
			"type": "function"
		},
		{
			"inputs": [],
			"name": "buyBackPaused",
			"outputs": [
				{
					"internalType": "bool",
					"name": "",
					"type": "bool"
				}
			],
			"stateMutability": "view",
			"type": "function"
		},
		{
			"inputs": [
				{
					"internalType": "uint256",
					"name": "shares_amount",
					"type": "uint256"
				},
				{
					"internalType": "uint256",
					"name": "COLLATERAL_out_min",
					"type": "uint256"
				}
			],
			"name": "buyBackShares",
			"outputs": [],
			"stateMutability": "nonpayable",
			"type": "function"
		},
		{
			"inputs": [],
			"name": "buyback_tax",
			"outputs": [
				{
					"internalType": "uint256",
					"name": "",
					"type": "uint256"
				}
			],
			"stateMutability": "view",
			"type": "function"
		},
		{
			"inputs": [
				{
					"components": [
						{
							"internalType": "uint256",
							"name": "excess_collateral_dollar_value_d18",
							"type": "uint256"
						},
						{
							"internalType": "uint256",
							"name": "shares_price_usd",
							"type": "uint256"
						},
						{
							"internalType": "uint256",
							"name": "col_price_usd",
							"type": "uint256"
						},
						{
							"internalType": "uint256",
							"name": "shares_amount",
							"type": "uint256"
						}
					],
					"internalType": "struct USEPoolAlgo.BuybackShares_Params",
					"name": "params",
					"type": "tuple"
				}
			],
			"name": "calcBuyBackShares",
			"outputs": [
				{
					"internalType": "uint256",
					"name": "",
					"type": "uint256"
				}
			],
			"stateMutability": "pure",
			"type": "function"
		},
		{
			"inputs": [
				{
					"internalType": "uint256",
					"name": "col_price",
					"type": "uint256"
				},
				{
					"internalType": "uint256",
					"name": "collateral_amount_d18",
					"type": "uint256"
				}
			],
			"name": "calcMint1t1USE",
			"outputs": [
				{
					"internalType": "uint256",
					"name": "",
					"type": "uint256"
				}
			],
			"stateMutability": "pure",
			"type": "function"
		},
		{
			"inputs": [
				{
					"components": [
						{
							"internalType": "uint256",
							"name": "shares_price_usd",
							"type": "uint256"
						},
						{
							"internalType": "uint256",
							"name": "col_price_usd",
							"type": "uint256"
						},
						{
							"internalType": "uint256",
							"name": "shares_amount",
							"type": "uint256"
						},
						{
							"internalType": "uint256",
							"name": "collateral_amount",
							"type": "uint256"
						},
						{
							"internalType": "uint256",
							"name": "col_ratio",
							"type": "uint256"
						}
					],
					"internalType": "struct USEPoolAlgo.MintFU_Params",
					"name": "params",
					"type": "tuple"
				}
			],
			"name": "calcMintFractionalUSE",
			"outputs": [
				{
					"internalType": "uint256",
					"name": "",
					"type": "uint256"
				},
				{
					"internalType": "uint256",
					"name": "",
					"type": "uint256"
				},
				{
					"internalType": "uint256",
					"name": "",
					"type": "uint256"
				}
			],
			"stateMutability": "pure",
			"type": "function"
		},
		{
			"inputs": [
				{
					"components": [
						{
							"internalType": "uint256",
							"name": "shares_price_usd",
							"type": "uint256"
						},
						{
							"internalType": "uint256",
							"name": "col_price_usd",
							"type": "uint256"
						},
						{
							"internalType": "uint256",
							"name": "shares_amount",
							"type": "uint256"
						},
						{
							"internalType": "uint256",
							"name": "collateral_amount",
							"type": "uint256"
						},
						{
							"internalType": "uint256",
							"name": "col_ratio",
							"type": "uint256"
						}
					],
					"internalType": "struct USEPoolAlgo.MintFU_Params",
					"name": "params",
					"type": "tuple"
				}
			],
			"name": "calcMintFractionalWithCollateral",
			"outputs": [
				{
					"internalType": "uint256",
					"name": "",
					"type": "uint256"
				},
				{
					"internalType": "uint256",
					"name": "",
					"type": "uint256"
				},
				{
					"internalType": "uint256",
					"name": "",
					"type": "uint256"
				}
			],
			"stateMutability": "pure",
			"type": "function"
		},
		{
			"inputs": [
				{
					"components": [
						{
							"internalType": "uint256",
							"name": "shares_price_usd",
							"type": "uint256"
						},
						{
							"internalType": "uint256",
							"name": "col_price_usd",
							"type": "uint256"
						},
						{
							"internalType": "uint256",
							"name": "shares_amount",
							"type": "uint256"
						},
						{
							"internalType": "uint256",
							"name": "collateral_amount",
							"type": "uint256"
						},
						{
							"internalType": "uint256",
							"name": "col_ratio",
							"type": "uint256"
						}
					],
					"internalType": "struct USEPoolAlgo.MintFU_Params",
					"name": "params",
					"type": "tuple"
				}
			],
			"name": "calcMintFractionalWithShare",
			"outputs": [
				{
					"internalType": "uint256",
					"name": "",
					"type": "uint256"
				},
				{
					"internalType": "uint256",
					"name": "",
					"type": "uint256"
				},
				{
					"internalType": "uint256",
					"name": "",
					"type": "uint256"
				}
			],
			"stateMutability": "pure",
			"type": "function"
		},
		{
			"inputs": [
				{
					"internalType": "uint256",
					"name": "collateral_amount",
					"type": "uint256"
				},
				{
					"internalType": "uint256",
					"name": "col_price",
					"type": "uint256"
				},
				{
					"internalType": "uint256",
					"name": "global_collat_value",
					"type": "uint256"
				},
				{
					"internalType": "uint256",
					"name": "frax_total_supply",
					"type": "uint256"
				},
				{
					"internalType": "uint256",
					"name": "global_collateral_ratio",
					"type": "uint256"
				}
			],
			"name": "calcRecollateralizeUSEInner",
			"outputs": [
				{
					"internalType": "uint256",
					"name": "",
					"type": "uint256"
				},
				{
					"internalType": "uint256",
					"name": "",
					"type": "uint256"
				}
			],
			"stateMutability": "pure",
			"type": "function"
		},
		{
			"inputs": [
				{
					"internalType": "uint256",
					"name": "col_price_usd",
					"type": "uint256"
				},
				{
					"internalType": "uint256",
					"name": "use_amount",
					"type": "uint256"
				}
			],
			"name": "calcRedeem1t1USE",
			"outputs": [
				{
					"internalType": "uint256",
					"name": "",
					"type": "uint256"
				}
			],
			"stateMutability": "pure",
			"type": "function"
		},
		{
			"inputs": [],
			"name": "collatDollarBalance",
			"outputs": [
				{
					"internalType": "uint256",
					"name": "",
					"type": "uint256"
				}
			],
			"stateMutability": "view",
			"type": "function"
		},
		{
			"inputs": [],
			"name": "collateralPricePaused",
			"outputs": [
				{
					"internalType": "bool",
					"name": "",
					"type": "bool"
				}
			],
			"stateMutability": "view",
			"type": "function"
		},
		{
			"inputs": [],
			"name": "collateral_address",
			"outputs": [
				{
					"internalType": "address",
					"name": "",
					"type": "address"
				}
			],
			"stateMutability": "view",
			"type": "function"
		},
		{
			"inputs": [],
			"name": "collateral_token",
			"outputs": [
				{
					"internalType": "contract IERC20Detail",
					"name": "",
					"type": "address"
				}
			],
			"stateMutability": "view",
			"type": "function"
		},
		{
			"inputs": [],
			"name": "collectRedemption",
			"outputs": [],
			"stateMutability": "nonpayable",
			"type": "function"
		},
		{
			"inputs": [],
			"name": "community_address",
			"outputs": [
				{
					"internalType": "address",
					"name": "",
					"type": "address"
				}
			],
			"stateMutability": "view",
			"type": "function"
		},
		{
			"inputs": [],
			"name": "community_rate_in_share",
			"outputs": [
				{
					"internalType": "uint256",
					"name": "",
					"type": "uint256"
				}
			],
			"stateMutability": "view",
			"type": "function"
		},
		{
			"inputs": [],
			"name": "community_rate_in_use",
			"outputs": [
				{
					"internalType": "uint256",
					"name": "",
					"type": "uint256"
				}
			],
			"stateMutability": "view",
			"type": "function"
		},
		{
			"inputs": [],
			"name": "community_rate_ratio",
			"outputs": [
				{
					"internalType": "uint256",
					"name": "",
					"type": "uint256"
				}
			],
			"stateMutability": "view",
			"type": "function"
		},
		{
			"inputs": [
				{
					"internalType": "uint256",
					"name": "ratio",
					"type": "uint256"
				},
				{
					"internalType": "uint256",
					"name": "multiplier",
					"type": "uint256"
				},
				{
					"internalType": "uint256",
					"name": "exponent",
					"type": "uint256"
				}
			],
			"name": "dynamicRedemptionTax",
			"outputs": [
				{
					"internalType": "uint256",
					"name": "",
					"type": "uint256"
				}
			],
			"stateMutability": "pure",
			"type": "function"
		},
		{
			"inputs": [],
			"name": "getCollateralAmount",
			"outputs": [
				{
					"internalType": "uint256",
					"name": "",
					"type": "uint256"
				}
			],
			"stateMutability": "view",
			"type": "function"
		},
		{
			"inputs": [],
			"name": "getCollateralPrice",
			"outputs": [
				{
					"internalType": "uint256",
					"name": "",
					"type": "uint256"
				}
			],
			"stateMutability": "view",
			"type": "function"
		},
		{
			"inputs": [
				{
					"internalType": "bytes32",
					"name": "role",
					"type": "bytes32"
				}
			],
			"name": "getRoleAdmin",
			"outputs": [
				{
					"internalType": "bytes32",
					"name": "",
					"type": "bytes32"
				}
			],
			"stateMutability": "view",
			"type": "function"
		},
		{
			"inputs": [
				{
					"internalType": "bytes32",
					"name": "role",
					"type": "bytes32"
				},
				{
					"internalType": "uint256",
					"name": "index",
					"type": "uint256"
				}
			],
			"name": "getRoleMember",
			"outputs": [
				{
					"internalType": "address",
					"name": "",
					"type": "address"
				}
			],
			"stateMutability": "view",
			"type": "function"
		},
		{
			"inputs": [
				{
					"internalType": "bytes32",
					"name": "role",
					"type": "bytes32"
				}
			],
			"name": "getRoleMemberCount",
			"outputs": [
				{
					"internalType": "uint256",
					"name": "",
					"type": "uint256"
				}
			],
			"stateMutability": "view",
			"type": "function"
		},
		{
			"inputs": [],
			"name": "global_use_supply_adj",
			"outputs": [
				{
					"internalType": "uint256",
					"name": "",
					"type": "uint256"
				}
			],
			"stateMutability": "view",
			"type": "function"
		},
		{
			"inputs": [
				{
					"internalType": "bytes32",
					"name": "role",
					"type": "bytes32"
				},
				{
					"internalType": "address",
					"name": "account",
					"type": "address"
				}
			],
			"name": "grantRole",
			"outputs": [],
			"stateMutability": "nonpayable",
			"type": "function"
		},
		{
			"inputs": [
				{
					"internalType": "bytes32",
					"name": "role",
					"type": "bytes32"
				},
				{
					"internalType": "address",
					"name": "account",
					"type": "address"
				}
			],
			"name": "hasRole",
			"outputs": [
				{
					"internalType": "bool",
					"name": "",
					"type": "bool"
				}
			],
			"stateMutability": "view",
			"type": "function"
		},
		{
			"inputs": [
				{
					"internalType": "address",
					"name": "",
					"type": "address"
				}
			],
			"name": "lastRedeemed",
			"outputs": [
				{
					"internalType": "uint256",
					"name": "",
					"type": "uint256"
				}
			],
			"stateMutability": "view",
			"type": "function"
		},
		{
			"inputs": [
				{
					"internalType": "uint256",
					"name": "collateral_amount",
					"type": "uint256"
				},
				{
					"internalType": "uint256",
					"name": "use_out_min",
					"type": "uint256"
				}
			],
			"name": "mint1t1USE",
			"outputs": [],
			"stateMutability": "nonpayable",
			"type": "function"
		},
		{
			"inputs": [
				{
					"internalType": "uint256",
					"name": "collateral_amount",
					"type": "uint256"
				},
				{
					"internalType": "uint256",
					"name": "shares_amount",
					"type": "uint256"
				},
				{
					"internalType": "uint256",
					"name": "use_out_min",
					"type": "uint256"
				}
			],
			"name": "mintFractionalUSE",
			"outputs": [],
			"stateMutability": "nonpayable",
			"type": "function"
		},
		{
			"inputs": [],
			"name": "mintPaused",
			"outputs": [
				{
					"internalType": "bool",
					"name": "",
					"type": "bool"
				}
			],
			"stateMutability": "view",
			"type": "function"
		},
		{
			"inputs": [],
			"name": "mintingOpened",
			"outputs": [
				{
					"internalType": "bool",
					"name": "",
					"type": "bool"
				}
			],
			"stateMutability": "view",
			"type": "function"
		},
		{
			"inputs": [],
			"name": "mintingTax",
			"outputs": [
				{
					"internalType": "uint256",
					"name": "",
					"type": "uint256"
				}
			],
			"stateMutability": "view",
			"type": "function"
		},
		{
			"inputs": [],
			"name": "minting_required_reserve_ratio",
			"outputs": [
				{
					"internalType": "uint256",
					"name": "",
					"type": "uint256"
				}
			],
			"stateMutability": "view",
			"type": "function"
		},
		{
			"inputs": [],
			"name": "minting_tax_base",
			"outputs": [
				{
					"internalType": "uint256",
					"name": "",
					"type": "uint256"
				}
			],
			"stateMutability": "view",
			"type": "function"
		},
		{
			"inputs": [],
			"name": "minting_tax_multiplier",
			"outputs": [
				{
					"internalType": "uint256",
					"name": "",
					"type": "uint256"
				}
			],
			"stateMutability": "view",
			"type": "function"
		},
		{
			"inputs": [],
			"name": "missing_decimals",
			"outputs": [
				{
					"internalType": "uint256",
					"name": "",
					"type": "uint256"
				}
			],
			"stateMutability": "view",
			"type": "function"
		},
		{
			"inputs": [],
			"name": "owner_address",
			"outputs": [
				{
					"internalType": "address",
					"name": "",
					"type": "address"
				}
			],
			"stateMutability": "view",
			"type": "function"
		},
		{
			"inputs": [],
			"name": "pausedPrice",
			"outputs": [
				{
					"internalType": "uint256",
					"name": "",
					"type": "uint256"
				}
			],
			"stateMutability": "view",
			"type": "function"
		},
		{
			"inputs": [],
			"name": "pool_ceiling",
			"outputs": [
				{
					"internalType": "uint256",
					"name": "",
					"type": "uint256"
				}
			],
			"stateMutability": "view",
			"type": "function"
		},
		{
			"inputs": [],
			"name": "recollat_tax",
			"outputs": [
				{
					"internalType": "uint256",
					"name": "",
					"type": "uint256"
				}
			],
			"stateMutability": "view",
			"type": "function"
		},
		{
			"inputs": [
				{
					"internalType": "uint256",
					"name": "total_supply",
					"type": "uint256"
				},
				{
					"internalType": "uint256",
					"name": "global_collateral_ratio",
					"type": "uint256"
				},
				{
					"internalType": "uint256",
					"name": "global_collat_value",
					"type": "uint256"
				}
			],
			"name": "recollateralizeAmount",
			"outputs": [
				{
					"internalType": "uint256",
					"name": "",
					"type": "uint256"
				}
			],
			"stateMutability": "pure",
			"type": "function"
		},
		{
			"inputs": [],
			"name": "recollateralizePaused",
			"outputs": [
				{
					"internalType": "bool",
					"name": "",
					"type": "bool"
				}
			],
			"stateMutability": "view",
			"type": "function"
		},
		{
			"inputs": [
				{
					"internalType": "uint256",
					"name": "collateral_amount",
					"type": "uint256"
				},
				{
					"internalType": "uint256",
					"name": "shares_out_min",
					"type": "uint256"
				}
			],
			"name": "recollateralizeUSE",
			"outputs": [],
			"stateMutability": "nonpayable",
			"type": "function"
		},
		{
			"inputs": [
				{
					"internalType": "uint256",
					"name": "use_amount",
					"type": "uint256"
				},
				{
					"internalType": "uint256",
					"name": "COLLATERAL_out_min",
					"type": "uint256"
				}
			],
			"name": "redeem1t1USE",
			"outputs": [],
			"stateMutability": "nonpayable",
			"type": "function"
		},
		{
			"inputs": [
				{
					"internalType": "address",
					"name": "",
					"type": "address"
				}
			],
			"name": "redeemCollateralBalances",
			"outputs": [
				{
					"internalType": "uint256",
					"name": "",
					"type": "uint256"
				}
			],
			"stateMutability": "view",
			"type": "function"
		},
		{
			"inputs": [
				{
					"internalType": "uint256",
					"name": "use_amount",
					"type": "uint256"
				},
				{
					"internalType": "uint256",
					"name": "shares_out_min",
					"type": "uint256"
				},
				{
					"internalType": "uint256",
					"name": "COLLATERAL_out_min",
					"type": "uint256"
				}
			],
			"name": "redeemFractionalUSE",
			"outputs": [],
			"stateMutability": "nonpayable",
			"type": "function"
		},
		{
			"inputs": [],
			"name": "redeemPaused",
			"outputs": [
				{
					"internalType": "bool",
					"name": "",
					"type": "bool"
				}
			],
			"stateMutability": "view",
			"type": "function"
		},
		{
			"inputs": [
				{
					"internalType": "address",
					"name": "",
					"type": "address"
				}
			],
			"name": "redeemSharesBalances",
			"outputs": [
				{
					"internalType": "uint256",
					"name": "",
					"type": "uint256"
				}
			],
			"stateMutability": "view",
			"type": "function"
		},
		{
			"inputs": [],
			"name": "redemptionOpened",
			"outputs": [
				{
					"internalType": "bool",
					"name": "",
					"type": "bool"
				}
			],
			"stateMutability": "view",
			"type": "function"
		},
		{
			"inputs": [],
			"name": "redemptionTax",
			"outputs": [
				{
					"internalType": "uint256",
					"name": "",
					"type": "uint256"
				}
			],
			"stateMutability": "view",
			"type": "function"
		},
		{
			"inputs": [],
			"name": "redemption_delay",
			"outputs": [
				{
					"internalType": "uint256",
					"name": "",
					"type": "uint256"
				}
			],
			"stateMutability": "view",
			"type": "function"
		},
		{
			"inputs": [],
			"name": "redemption_gcr_adj",
			"outputs": [
				{
					"internalType": "uint256",
					"name": "",
					"type": "uint256"
				}
			],
			"stateMutability": "view",
			"type": "function"
		},
		{
			"inputs": [],
			"name": "redemption_required_reserve_ratio",
			"outputs": [
				{
					"internalType": "uint256",
					"name": "",
					"type": "uint256"
				}
			],
			"stateMutability": "view",
			"type": "function"
		},
		{
			"inputs": [],
			"name": "redemption_tax_base",
			"outputs": [
				{
					"internalType": "uint256",
					"name": "",
					"type": "uint256"
				}
			],
			"stateMutability": "view",
			"type": "function"
		},
		{
			"inputs": [],
			"name": "redemption_tax_exponent",
			"outputs": [
				{
					"internalType": "uint256",
					"name": "",
					"type": "uint256"
				}
			],
			"stateMutability": "view",
			"type": "function"
		},
		{
			"inputs": [],
			"name": "redemption_tax_multiplier",
			"outputs": [
				{
					"internalType": "uint256",
					"name": "",
					"type": "uint256"
				}
			],
			"stateMutability": "view",
			"type": "function"
		},
		{
			"inputs": [
				{
					"internalType": "bytes32",
					"name": "role",
					"type": "bytes32"
				},
				{
					"internalType": "address",
					"name": "account",
					"type": "address"
				}
			],
			"name": "renounceRole",
			"outputs": [],
			"stateMutability": "nonpayable",
			"type": "function"
		},
		{
			"inputs": [],
			"name": "requiredReserveRatio",
			"outputs": [
				{
					"internalType": "uint256",
					"name": "",
					"type": "uint256"
				}
			],
			"stateMutability": "view",
			"type": "function"
		},
		{
			"inputs": [
				{
					"internalType": "bytes32",
					"name": "role",
					"type": "bytes32"
				},
				{
					"internalType": "address",
					"name": "account",
					"type": "address"
				}
			],
			"name": "revokeRole",
			"outputs": [],
			"stateMutability": "nonpayable",
			"type": "function"
		},
		{
			"inputs": [
				{
					"internalType": "address",
					"name": "_community_address",
					"type": "address"
				},
				{
					"internalType": "uint256",
					"name": "_ratio",
					"type": "uint256"
				}
			],
			"name": "setCommunityParameters",
			"outputs": [],
			"stateMutability": "nonpayable",
			"type": "function"
		},
		{
			"inputs": [
				{
					"internalType": "uint256",
					"name": "_ratioLevel",
					"type": "uint256"
				},
				{
					"internalType": "uint256",
					"name": "_tax_base",
					"type": "uint256"
				},
				{
					"internalType": "uint256",
					"name": "_tax_multiplier",
					"type": "uint256"
				}
			],
			"name": "setMintingParameters",
			"outputs": [],
			"stateMutability": "nonpayable",
			"type": "function"
		},
		{
			"inputs": [
				{
					"internalType": "address",
					"name": "_owner_address",
					"type": "address"
				}
			],
			"name": "setOwner",
			"outputs": [],
			"stateMutability": "nonpayable",
			"type": "function"
		},
		{
			"inputs": [
				{
					"internalType": "uint256",
					"name": "new_ceiling",
					"type": "uint256"
				},
				{
					"internalType": "uint256",
					"name": "new_bonus_rate",
					"type": "uint256"
				},
				{
					"internalType": "uint256",
					"name": "new_redemption_delay",
					"type": "uint256"
				},
				{
					"internalType": "uint256",
					"name": "new_buyback_tax",
					"type": "uint256"
				},
				{
					"internalType": "uint256",
					"name": "new_recollat_tax",
					"type": "uint256"
				},
				{
					"internalType": "uint256",
					"name": "use_supply_adj",
					"type": "uint256"
				}
			],
			"name": "setPoolParameters",
			"outputs": [],
			"stateMutability": "nonpayable",
			"type": "function"
		},
		{
			"inputs": [
				{
					"internalType": "uint256",
					"name": "_ratioLevel",
					"type": "uint256"
				},
				{
					"internalType": "uint256",
					"name": "_tax_base",
					"type": "uint256"
				},
				{
					"internalType": "uint256",
					"name": "_tax_multiplier",
					"type": "uint256"
				},
				{
					"internalType": "uint256",
					"name": "_tax_exponent",
					"type": "uint256"
				},
				{
					"internalType": "uint256",
					"name": "_redeem_gcr_adj",
					"type": "uint256"
				}
			],
			"name": "setRedemptionParameters",
			"outputs": [],
			"stateMutability": "nonpayable",
			"type": "function"
		},
		{
			"inputs": [
				{
					"internalType": "address",
					"name": "new_timelock",
					"type": "address"
				}
			],
			"name": "setTimelock",
			"outputs": [],
			"stateMutability": "nonpayable",
			"type": "function"
		},
		{
			"inputs": [],
			"name": "shares_contract_address",
			"outputs": [
				{
					"internalType": "address",
					"name": "",
					"type": "address"
				}
			],
			"stateMutability": "view",
			"type": "function"
		},
		{
			"inputs": [],
			"name": "timelock_address",
			"outputs": [
				{
					"internalType": "address",
					"name": "",
					"type": "address"
				}
			],
			"stateMutability": "view",
			"type": "function"
		},
		{
			"inputs": [],
			"name": "toggleBuyBack",
			"outputs": [],
			"stateMutability": "nonpayable",
			"type": "function"
		},
		{
			"inputs": [
				{
					"internalType": "uint256",
					"name": "_new_price",
					"type": "uint256"
				}
			],
			"name": "toggleCollateralPrice",
			"outputs": [],
			"stateMutability": "nonpayable",
			"type": "function"
		},
		{
			"inputs": [
				{
					"internalType": "uint256",
					"name": "_rate",
					"type": "uint256"
				}
			],
			"name": "toggleCommunityInSharesRate",
			"outputs": [],
			"stateMutability": "nonpayable",
			"type": "function"
		},
		{
			"inputs": [
				{
					"internalType": "uint256",
					"name": "_rate",
					"type": "uint256"
				}
			],
			"name": "toggleCommunityInUSERate",
			"outputs": [],
			"stateMutability": "nonpayable",
			"type": "function"
		},
		{
			"inputs": [],
			"name": "toggleMinting",
			"outputs": [],
			"stateMutability": "nonpayable",
			"type": "function"
		},
		{
			"inputs": [],
			"name": "toggleRecollateralize",
			"outputs": [],
			"stateMutability": "nonpayable",
			"type": "function"
		},
		{
			"inputs": [],
			"name": "toggleRedeeming",
			"outputs": [],
			"stateMutability": "nonpayable",
			"type": "function"
		},
		{
			"inputs": [],
			"name": "unclaimedPoolCollateral",
			"outputs": [
				{
					"internalType": "uint256",
					"name": "",
					"type": "uint256"
				}
			],
			"stateMutability": "view",
			"type": "function"
		},
		{
			"inputs": [],
			"name": "unclaimedPoolShares",
			"outputs": [
				{
					"internalType": "uint256",
					"name": "",
					"type": "uint256"
				}
			],
			"stateMutability": "view",
			"type": "function"
		},
		{
			"inputs": [],
			"name": "updateOraclePrice",
			"outputs": [],
			"stateMutability": "nonpayable",
			"type": "function"
		},
		{
			"inputs": [],
			"name": "use_contract_address",
			"outputs": [
				{
					"internalType": "address",
					"name": "",
					"type": "address"
				}
			],
			"stateMutability": "view",
			"type": "function"
		}
	]
}